{
  "transactions": [
    {
      "hash": "0x986de24391e77dfedc0747d78cb33b1677d5207c0f3df890c74b6ca8e796fc9f",
      "transactionType": "CALL",
      "contractName": null,
      "contractAddress": "0x19e46095b3a17d9873d4ab87a61fdf97fef567f0",
      "function": "createMarket(bytes32,uint64,uint64)",
      "arguments": [
        "0x4925470f63f51268e3d1aa7f525a178851f866d1c02eb2f950324076fb7b097a",
        "1763620864",
        "1763621764"
      ],
      "transaction": {
        "from": "0xc5b2130f38eac51a1b93723509237572963322e9",
        "to": "0x19e46095b3a17d9873d4ab87a61fdf97fef567f0",
        "gas": "0x57028",
        "value": "0x0",
        "input": "0xaab38bee4925470f63f51268e3d1aa7f525a178851f866d1c02eb2f950324076fb7b097a00000000000000000000000000000000000000000000000000000000691eb80000000000000000000000000000000000000000000000000000000000691ebb84",
        "nonce": "0x4",
        "chainId": "0x14a34"
      },
      "additionalContracts": [
        {
          "transactionType": "CREATE",
          "contractName": null,
          "address": "0x9bee3ec8b0ed0986f15143cdbaad73852e086136",
          "initCode": "0x3d602d80600a3d3981f3363d3d373d3d3d363d731c6e03e826cfb2ee21b1509f6ad51339cc3bc2cc5af43d82803e903d91602b57fd5bf3"
        }
      ],
      "isFixedGasLimit": false
    },
    {
      "hash": "0x94eaccea529c9a00b947d9697feff749af27183216affded76d5bc9ac22d396d",
      "transactionType": "CALL",
      "contractName": null,
      "contractAddress": "0x19e46095b3a17d9873d4ab87a61fdf97fef567f0",
      "function": "createMarket(bytes32,uint64,uint64)",
      "arguments": [
        "0x42fb04b3bb9132ad9ecbab1104e19f617781dceb26579d67723e803e18b1782b",
        "1763620864",
        "1763621764"
      ],
      "transaction": {
        "from": "0xc5b2130f38eac51a1b93723509237572963322e9",
        "to": "0x19e46095b3a17d9873d4ab87a61fdf97fef567f0",
        "gas": "0x57028",
        "value": "0x0",
        "input": "0xaab38bee42fb04b3bb9132ad9ecbab1104e19f617781dceb26579d67723e803e18b1782b00000000000000000000000000000000000000000000000000000000691eb80000000000000000000000000000000000000000000000000000000000691ebb84",
        "nonce": "0x5",
        "chainId": "0x14a34"
      },
      "additionalContracts": [
        {
          "transactionType": "CREATE",
          "contractName": null,
          "address": "0x48d70aa98316bdd39ef0055b9839909af51a8f86",
          "initCode": "0x3d602d80600a3d3981f3363d3d373d3d3d363d731c6e03e826cfb2ee21b1509f6ad51339cc3bc2cc5af43d82803e903d91602b57fd5bf3"
        }
      ],
      "isFixedGasLimit": false
    },
    {
      "hash": "0xbe2fcca3f6685cadeaeae222561cbd71ec40f4763c5816c257dc85bccd5c8d91",
      "transactionType": "CALL",
      "contractName": null,
      "contractAddress": "0x19e46095b3a17d9873d4ab87a61fdf97fef567f0",
      "function": "createMarket(bytes32,uint64,uint64)",
      "arguments": [
        "0xe74beea947d5949a0dc9c55e36fcb73c136439344a135e98aa9c039f23ef45d0",
        "1763620864",
        "1763621764"
      ],
      "transaction": {
        "from": "0xc5b2130f38eac51a1b93723509237572963322e9",
        "to": "0x19e46095b3a17d9873d4ab87a61fdf97fef567f0",
        "gas": "0x57028",
        "value": "0x0",
        "input": "0xaab38beee74beea947d5949a0dc9c55e36fcb73c136439344a135e98aa9c039f23ef45d000000000000000000000000000000000000000000000000000000000691eb80000000000000000000000000000000000000000000000000000000000691ebb84",
        "nonce": "0x6",
        "chainId": "0x14a34"
      },
      "additionalContracts": [
        {
          "transactionType": "CREATE",
          "contractName": null,
          "address": "0xe956950d40b6d17848062402ecd41a81014af655",
          "initCode": "0x3d602d80600a3d3981f3363d3d373d3d3d363d731c6e03e826cfb2ee21b1509f6ad51339cc3bc2cc5af43d82803e903d91602b57fd5bf3"
        }
      ],
      "isFixedGasLimit": false
    },
    {
      "hash": "0x493096ed573ea3a85ed11fe436ff6ca4b38179d7e35c0c4538ed9bb9a39ae376",
      "transactionType": "CALL",
      "contractName": null,
      "contractAddress": "0x19e46095b3a17d9873d4ab87a61fdf97fef567f0",
      "function": "createMarket(bytes32,uint64,uint64)",
      "arguments": [
        "0x9a5715e500037c9bd2b7816f73e68ff67c0f6d4a3bbaf203dba024a1acf77748",
        "1763620864",
        "1763621764"
      ],
      "transaction": {
        "from": "0xc5b2130f38eac51a1b93723509237572963322e9",
        "to": "0x19e46095b3a17d9873d4ab87a61fdf97fef567f0",
        "gas": "0x5c1fb",
        "value": "0x0",
        "input": "0xaab38bee9a5715e500037c9bd2b7816f73e68ff67c0f6d4a3bbaf203dba024a1acf7774800000000000000000000000000000000000000000000000000000000691eb80000000000000000000000000000000000000000000000000000000000691ebb84",
        "nonce": "0x7",
        "chainId": "0x14a34"
      },
      "additionalContracts": [
        {
          "transactionType": "CREATE",
          "contractName": null,
          "address": "0x9fe434c85bb7f73a01ffacebab93fb5659b87a93",
          "initCode": "0x3d602d80600a3d3981f3363d3d373d3d3d363d731c6e03e826cfb2ee21b1509f6ad51339cc3bc2cc5af43d82803e903d91602b57fd5bf3"
        }
      ],
      "isFixedGasLimit": false
    },
    {
      "hash": "0x1eba56de5a364656d77170d8a217b6b43a1b53c42b13cbba3ac5e7fd93cffee9",
      "transactionType": "CALL",
      "contractName": null,
      "contractAddress": "0x19e46095b3a17d9873d4ab87a61fdf97fef567f0",
      "function": "createMarket(bytes32,uint64,uint64)",
      "arguments": [
        "0xcc09c1c903a44a7d021cff09315268e7aa40b6183673f7208760ebe879e81fd0",
        "1763620864",
        "1763621764"
      ],
      "transaction": {
        "from": "0xc5b2130f38eac51a1b93723509237572963322e9",
        "to": "0x19e46095b3a17d9873d4ab87a61fdf97fef567f0",
        "gas": "0x57028",
        "value": "0x0",
        "input": "0xaab38beecc09c1c903a44a7d021cff09315268e7aa40b6183673f7208760ebe879e81fd000000000000000000000000000000000000000000000000000000000691eb80000000000000000000000000000000000000000000000000000000000691ebb84",
        "nonce": "0x8",
        "chainId": "0x14a34"
      },
      "additionalContracts": [
        {
          "transactionType": "CREATE",
          "contractName": null,
          "address": "0x3f73998d6bee7d9f5e5dd467e250764192eb16a9",
          "initCode": "0x3d602d80600a3d3981f3363d3d373d3d3d363d731c6e03e826cfb2ee21b1509f6ad51339cc3bc2cc5af43d82803e903d91602b57fd5bf3"
        }
      ],
      "isFixedGasLimit": false
    },
    {
      "hash": "0x61f9d8cf7682752a069444ddd4ef263a818fa3e2217bb9609ec5e572247fba50",
      "transactionType": "CALL",
      "contractName": null,
      "contractAddress": "0x19e46095b3a17d9873d4ab87a61fdf97fef567f0",
      "function": "createMarket(bytes32,uint64,uint64)",
      "arguments": [
        "0x4f63c6d04645ea3da07c899a46a4b5cd2e34b50b89cffb3fa541efa7cd769403",
        "1763620864",
        "1763621764"
      ],
      "transaction": {
        "from": "0xc5b2130f38eac51a1b93723509237572963322e9",
        "to": "0x19e46095b3a17d9873d4ab87a61fdf97fef567f0",
        "gas": "0x57028",
        "value": "0x0",
        "input": "0xaab38bee4f63c6d04645ea3da07c899a46a4b5cd2e34b50b89cffb3fa541efa7cd76940300000000000000000000000000000000000000000000000000000000691eb80000000000000000000000000000000000000000000000000000000000691ebb84",
        "nonce": "0x9",
        "chainId": "0x14a34"
      },
      "additionalContracts": [
        {
          "transactionType": "CREATE",
          "contractName": null,
          "address": "0x8e21d473863313c91feb2d974e7e98a6513b295c",
          "initCode": "0x3d602d80600a3d3981f3363d3d373d3d3d363d731c6e03e826cfb2ee21b1509f6ad51339cc3bc2cc5af43d82803e903d91602b57fd5bf3"
        }
      ],
      "isFixedGasLimit": false
    },
    {
      "hash": "0xb5e5ab57e47722fa60510da007f90009884763aabfade87eadcbbaec81782109",
      "transactionType": "CALL",
      "contractName": null,
      "contractAddress": "0x19e46095b3a17d9873d4ab87a61fdf97fef567f0",
      "function": "createMarket(bytes32,uint64,uint64)",
      "arguments": [
        "0xf02a1173446af461c2e7713ca07054b9bcf769d3037290aa6a2141e0c85d71e3",
        "1763620864",
        "1763621764"
      ],
      "transaction": {
        "from": "0xc5b2130f38eac51a1b93723509237572963322e9",
        "to": "0x19e46095b3a17d9873d4ab87a61fdf97fef567f0",
        "gas": "0x57028",
        "value": "0x0",
        "input": "0xaab38beef02a1173446af461c2e7713ca07054b9bcf769d3037290aa6a2141e0c85d71e300000000000000000000000000000000000000000000000000000000691eb80000000000000000000000000000000000000000000000000000000000691ebb84",
        "nonce": "0xa",
        "chainId": "0x14a34"
      },
      "additionalContracts": [
        {
          "transactionType": "CREATE",
          "contractName": null,
          "address": "0xc9a8a708b3194b880238d61bc96ecb74af635dd2",
          "initCode": "0x3d602d80600a3d3981f3363d3d373d3d3d363d731c6e03e826cfb2ee21b1509f6ad51339cc3bc2cc5af43d82803e903d91602b57fd5bf3"
        }
      ],
      "isFixedGasLimit": false
    },
    {
      "hash": "0xa72aa9e88ab77c6e25c4ac1713718b0b2cd41e6cf0cf042d898a01da1d9518a0",
      "transactionType": "CALL",
      "contractName": null,
      "contractAddress": "0x19e46095b3a17d9873d4ab87a61fdf97fef567f0",
      "function": "createMarket(bytes32,uint64,uint64)",
      "arguments": [
        "0xe45400756754f6c7fe0676fe2daf846ab7b5914cc4dd1e546393dd635f2ac02a",
        "1763620864",
        "1763621764"
      ],
      "transaction": {
        "from": "0xc5b2130f38eac51a1b93723509237572963322e9",
        "to": "0x19e46095b3a17d9873d4ab87a61fdf97fef567f0",
        "gas": "0x5c1fb",
        "value": "0x0",
        "input": "0xaab38beee45400756754f6c7fe0676fe2daf846ab7b5914cc4dd1e546393dd635f2ac02a00000000000000000000000000000000000000000000000000000000691eb80000000000000000000000000000000000000000000000000000000000691ebb84",
        "nonce": "0xb",
        "chainId": "0x14a34"
      },
      "additionalContracts": [
        {
          "transactionType": "CREATE",
          "contractName": null,
          "address": "0xe4e2d207344a7de57d15e0ec06a622a107828dfd",
          "initCode": "0x3d602d80600a3d3981f3363d3d373d3d3d363d731c6e03e826cfb2ee21b1509f6ad51339cc3bc2cc5af43d82803e903d91602b57fd5bf3"
        }
      ],
      "isFixedGasLimit": false
    },
    {
      "hash": "0x35c4e45dd3d2416fa7636682b1b653d21e51026e789f950df7d73ed376216338",
      "transactionType": "CALL",
      "contractName": null,
      "contractAddress": "0x19e46095b3a17d9873d4ab87a61fdf97fef567f0",
      "function": "createMarket(bytes32,uint64,uint64)",
      "arguments": [
        "0x2b75e6ca10914651ab96005d868cf65ce5bbea738ee24519341bb31bca8a2c81",
        "1763620864",
        "1763621764"
      ],
      "transaction": {
        "from": "0xc5b2130f38eac51a1b93723509237572963322e9",
        "to": "0x19e46095b3a17d9873d4ab87a61fdf97fef567f0",
        "gas": "0x5c1fb",
        "value": "0x0",
        "input": "0xaab38bee2b75e6ca10914651ab96005d868cf65ce5bbea738ee24519341bb31bca8a2c8100000000000000000000000000000000000000000000000000000000691eb80000000000000000000000000000000000000000000000000000000000691ebb84",
        "nonce": "0xc",
        "chainId": "0x14a34"
      },
      "additionalContracts": [
        {
          "transactionType": "CREATE",
          "contractName": null,
          "address": "0xb737041cd9ceaa2e0a17f2c03843f05280e94b02",
          "initCode": "0x3d602d80600a3d3981f3363d3d373d3d3d363d731c6e03e826cfb2ee21b1509f6ad51339cc3bc2cc5af43d82803e903d91602b57fd5bf3"
        }
      ],
      "isFixedGasLimit": false
    },
    {
      "hash": "0xaad7bc828db64173c3fc79227180fee32be43d6058b281e5f1f00acb0c87e094",
      "transactionType": "CALL",
      "contractName": null,
      "contractAddress": "0x19e46095b3a17d9873d4ab87a61fdf97fef567f0",
      "function": "createMarket(bytes32,uint64,uint64)",
      "arguments": [
        "0x887d28894fe04b6802855d81f0544d8427aa05a626d8f4030ea4f0eb50a38da9",
        "1763620864",
        "1763621764"
      ],
      "transaction": {
        "from": "0xc5b2130f38eac51a1b93723509237572963322e9",
        "to": "0x19e46095b3a17d9873d4ab87a61fdf97fef567f0",
        "gas": "0x57028",
        "value": "0x0",
        "input": "0xaab38bee887d28894fe04b6802855d81f0544d8427aa05a626d8f4030ea4f0eb50a38da900000000000000000000000000000000000000000000000000000000691eb80000000000000000000000000000000000000000000000000000000000691ebb84",
        "nonce": "0xd",
        "chainId": "0x14a34"
      },
      "additionalContracts": [
        {
          "transactionType": "CREATE",
          "contractName": null,
          "address": "0x0c0bb9d4c9b42222aba7361a9a4c3ef5558b6376",
          "initCode": "0x3d602d80600a3d3981f3363d3d373d3d3d363d731c6e03e826cfb2ee21b1509f6ad51339cc3bc2cc5af43d82803e903d91602b57fd5bf3"
        }
      ],
      "isFixedGasLimit": false
    }
  ],
  "receipts": [
    {
      "status": "0x1",
      "cumulativeGasUsed": "0x5124a4",
      "logs": [
        {
          "address": "0x19e46095b3a17d9873d4ab87a61fdf97fef567f0",
          "topics": [
            "0x375b93db8e087a80beb91d1a191dd247767bb9df982963a9868fc739edf1f8c6",
            "0x0000000000000000000000009bee3ec8b0ed0986f15143cdbaad73852e086136",
            "0x89b5566b76323caaf22164ff580aa6a700832cd086bd7dac1599b9c00d749beb"
          ],
          "data": "0x00000000000000000000000000000000000000000000000000000000691eb80000000000000000000000000000000000000000000000000000000000691ebb84",
          "blockHash": "0x0137b39b7615286aad2ca598a60e9e7f7eaf615b151f6bc25ae628df8cf7a582",
          "blockNumber": "0x20503d5",
          "blockTimestamp": "0x691d668a",
          "transactionHash": "0x986de24391e77dfedc0747d78cb33b1677d5207c0f3df890c74b6ca8e796fc9f",
          "transactionIndex": "0xc",
          "logIndex": "0x42",
          "removed": false
        }
      ],
      "logsBloom": "0x00000000000008000000000000000000000000002000000000000000000000000000000000000000000000000000000000000000000000000000000014000000000000000000000000000000000000000000000000000000000000000000000000000000000000000000000000000000000000000000000400000008000000000000008000000000000000000000000000000000000000000000000000080000000000002000080000000000000000000000000000000000000000000000000000000000000000000000000000000000000000000000000000000000000000000000000000000000000000000001000000002000000000000000000000000000",
      "type": "0x2",
      "transactionHash": "0x986de24391e77dfedc0747d78cb33b1677d5207c0f3df890c74b6ca8e796fc9f",
      "transactionIndex": "0xc",
      "blockHash": "0x0137b39b7615286aad2ca598a60e9e7f7eaf615b151f6bc25ae628df8cf7a582",
      "blockNumber": "0x20503d5",
      "gasUsed": "0x3efe6",
      "effectiveGasPrice": "0xecd59",
      "from": "0xc5b2130f38eac51a1b93723509237572963322e9",
      "to": "0x19e46095b3a17d9873d4ab87a61fdf97fef567f0",
      "contractAddress": null,
      "l1BaseFeeScalar": "0x44d",
      "l1BlobBaseFee": "0x1",
      "l1BlobBaseFeeScalar": "0xa118b",
      "l1Fee": "0x55",
      "l1GasPrice": "0xb",
      "l1GasUsed": "0x640"
    },
    {
      "status": "0x1",
      "cumulativeGasUsed": "0x55148a",
      "logs": [
        {
          "address": "0x19e46095b3a17d9873d4ab87a61fdf97fef567f0",
          "topics": [
            "0x375b93db8e087a80beb91d1a191dd247767bb9df982963a9868fc739edf1f8c6",
            "0x00000000000000000000000048d70aa98316bdd39ef0055b9839909af51a8f86",
            "0xa203bd714616842c42b0cb82c49c14bc1cd501b60710980ca4a55ba90dd8fc15"
          ],
          "data": "0x00000000000000000000000000000000000000000000000000000000691eb80000000000000000000000000000000000000000000000000000000000691ebb84",
          "blockHash": "0x0137b39b7615286aad2ca598a60e9e7f7eaf615b151f6bc25ae628df8cf7a582",
          "blockNumber": "0x20503d5",
          "blockTimestamp": "0x691d668a",
          "transactionHash": "0x94eaccea529c9a00b947d9697feff749af27183216affded76d5bc9ac22d396d",
          "transactionIndex": "0xd",
          "logIndex": "0x43",
          "removed": false
        }
      ],
      "logsBloom": "0x40000000000000000000000000000000000000002000400000000000000000000000000000000000000000000000000000000000000000000000000014000000000000000000000000000000000000000000000000000000000000000000000000000000000000000000000000004000000000000400000400000000000000000000000000000000000000000000000000000000000000000000000000000000000000000000080000000000000000000400000000000000000000000000000000000000000000000000000000000000000000000000000000000000000000000000000000000000000000000000000000002000004000000000000000000000",
      "type": "0x2",
      "transactionHash": "0x94eaccea529c9a00b947d9697feff749af27183216affded76d5bc9ac22d396d",
      "transactionIndex": "0xd",
      "blockHash": "0x0137b39b7615286aad2ca598a60e9e7f7eaf615b151f6bc25ae628df8cf7a582",
      "blockNumber": "0x20503d5",
      "gasUsed": "0x3efe6",
      "effectiveGasPrice": "0xecd59",
      "from": "0xc5b2130f38eac51a1b93723509237572963322e9",
      "to": "0x19e46095b3a17d9873d4ab87a61fdf97fef567f0",
      "contractAddress": null,
      "l1BaseFeeScalar": "0x44d",
      "l1BlobBaseFee": "0x1",
      "l1BlobBaseFeeScalar": "0xa118b",
      "l1Fee": "0x55",
      "l1GasPrice": "0xb",
      "l1GasUsed": "0x640"
    },
    {
      "status": "0x1",
      "cumulativeGasUsed": "0x590470",
      "logs": [
        {
          "address": "0x19e46095b3a17d9873d4ab87a61fdf97fef567f0",
          "topics": [
            "0x375b93db8e087a80beb91d1a191dd247767bb9df982963a9868fc739edf1f8c6",
            "0x000000000000000000000000e956950d40b6d17848062402ecd41a81014af655",
            "0xf6d58a50b921a99bfc747e00f65eed856ff6547f386a61a69289b765fd685bcf"
          ],
          "data": "0x00000000000000000000000000000000000000000000000000000000691eb80000000000000000000000000000000000000000000000000000000000691ebb84",
          "blockHash": "0x0137b39b7615286aad2ca598a60e9e7f7eaf615b151f6bc25ae628df8cf7a582",
          "blockNumber": "0x20503d5",
          "blockTimestamp": "0x691d668a",
          "transactionHash": "0xbe2fcca3f6685cadeaeae222561cbd71ec40f4763c5816c257dc85bccd5c8d91",
          "transactionIndex": "0xe",
          "logIndex": "0x44",
          "removed": false
        }
      ],
      "logsBloom": "0x00000000000010000000100000000000000000002000000000000000000000000000000000000000000000000000000000000000000000000000000016000000000000000000000000000000000000000000000000000000000000000000000000000000000000000000000000000000000000000000000400000000000000000000000000000000000000000000000000000000000040000000000000000000000000000000080000000000000000000000000000000000000000000000000000000000000000000400000000000000000000000000800000000000000000000000000000000000000000000000000000002000000000000000000000000000",
      "type": "0x2",
      "transactionHash": "0xbe2fcca3f6685cadeaeae222561cbd71ec40f4763c5816c257dc85bccd5c8d91",
      "transactionIndex": "0xe",
      "blockHash": "0x0137b39b7615286aad2ca598a60e9e7f7eaf615b151f6bc25ae628df8cf7a582",
      "blockNumber": "0x20503d5",
      "gasUsed": "0x3efe6",
      "effectiveGasPrice": "0xecd59",
      "from": "0xc5b2130f38eac51a1b93723509237572963322e9",
      "to": "0x19e46095b3a17d9873d4ab87a61fdf97fef567f0",
      "contractAddress": null,
      "l1BaseFeeScalar": "0x44d",
      "l1BlobBaseFee": "0x1",
      "l1BlobBaseFeeScalar": "0xa118b",
      "l1Fee": "0x55",
      "l1GasPrice": "0xb",
      "l1GasUsed": "0x640"
    },
    {
      "status": "0x1",
      "cumulativeGasUsed": "0x5cf44a",
      "logs": [
        {
          "address": "0x19e46095b3a17d9873d4ab87a61fdf97fef567f0",
          "topics": [
            "0x375b93db8e087a80beb91d1a191dd247767bb9df982963a9868fc739edf1f8c6",
            "0x0000000000000000000000009fe434c85bb7f73a01ffacebab93fb5659b87a93",
            "0x56841352a9c82153271fc0094398b9858f4f1463cdc0d4582ef61f576c4d9f60"
          ],
          "data": "0x00000000000000000000000000000000000000000000000000000000691eb80000000000000000000000000000000000000000000000000000000000691ebb84",
          "blockHash": "0x0137b39b7615286aad2ca598a60e9e7f7eaf615b151f6bc25ae628df8cf7a582",
          "blockNumber": "0x20503d5",
          "blockTimestamp": "0x691d668a",
          "transactionHash": "0x493096ed573ea3a85ed11fe436ff6ca4b38179d7e35c0c4538ed9bb9a39ae376",
          "transactionIndex": "0xf",
          "logIndex": "0x45",
          "removed": false
        }
      ],
      "logsBloom": "0x00000000000000000000000000000000000000002000000000000000000000000000000000000000000000000000000000000000000000000000080014000000002000000000000000000000000000000000000000000000000000000000400000010000000000000000000000000000000000000000000400000000000000000000000000000000000000000000000000000000000000000000000000000000000000000000080000000000000000000000000000000000000000000000000000000000000000000000000000000000000000000000000000000000000000000000000000000000000000000000000000002000200000000000001000000000",
      "type": "0x2",
      "transactionHash": "0x493096ed573ea3a85ed11fe436ff6ca4b38179d7e35c0c4538ed9bb9a39ae376",
      "transactionIndex": "0xf",
      "blockHash": "0x0137b39b7615286aad2ca598a60e9e7f7eaf615b151f6bc25ae628df8cf7a582",
      "blockNumber": "0x20503d5",
      "gasUsed": "0x3efda",
      "effectiveGasPrice": "0xecd59",
      "from": "0xc5b2130f38eac51a1b93723509237572963322e9",
      "to": "0x19e46095b3a17d9873d4ab87a61fdf97fef567f0",
      "contractAddress": null,
      "l1BaseFeeScalar": "0x44d",
      "l1BlobBaseFee": "0x1",
      "l1BlobBaseFeeScalar": "0xa118b",
      "l1Fee": "0x55",
      "l1GasPrice": "0xb",
      "l1GasUsed": "0x640"
    },
    {
      "status": "0x1",
      "cumulativeGasUsed": "0xc1c5d",
      "logs": [
        {
          "address": "0x19e46095b3a17d9873d4ab87a61fdf97fef567f0",
          "topics": [
            "0x375b93db8e087a80beb91d1a191dd247767bb9df982963a9868fc739edf1f8c6",
            "0x0000000000000000000000003f73998d6bee7d9f5e5dd467e250764192eb16a9",
            "0xcbb546ce94e81ce768fe2da18b2eb325893e4e9e9db4625d8808ffed3a57f070"
          ],
          "data": "0x00000000000000000000000000000000000000000000000000000000691eb80000000000000000000000000000000000000000000000000000000000691ebb84",
          "blockHash": "0xb0d25fbf5a6079eed484a4f9a06af92b3306e99659df6828d590181846a8006b",
          "blockNumber": "0x20503d6",
          "blockTimestamp": "0x691d668c",
          "transactionHash": "0x1eba56de5a364656d77170d8a217b6b43a1b53c42b13cbba3ac5e7fd93cffee9",
          "transactionIndex": "0x5",
          "logIndex": "0x7",
          "removed": false
        }
      ],
      "logsBloom": "0x00000000000000000004000000000000000000002000000000000000000000000000000000000000000000000000000000000000000000000000000014000000000000000000000000400000000000000000000000000000000000000000000000000000000000000000000000000000000000000000000400000000000000000000000000000000000000000000000000000000000000000000000000000000000001000000080000000000000000000000000000000400000000000000000000000000000000000000000004000000000000000000000000000000000000000000000080000000000000000000000000002000000000000000000000000000",
      "type": "0x2",
      "transactionHash": "0x1eba56de5a364656d77170d8a217b6b43a1b53c42b13cbba3ac5e7fd93cffee9",
      "transactionIndex": "0x5",
      "blockHash": "0xb0d25fbf5a6079eed484a4f9a06af92b3306e99659df6828d590181846a8006b",
      "blockNumber": "0x20503d6",
      "gasUsed": "0x3efe6",
      "effectiveGasPrice": "0xecd59",
      "from": "0xc5b2130f38eac51a1b93723509237572963322e9",
      "to": "0x19e46095b3a17d9873d4ab87a61fdf97fef567f0",
      "contractAddress": null,
      "l1BaseFeeScalar": "0x44d",
      "l1BlobBaseFee": "0x1",
      "l1BlobBaseFeeScalar": "0xa118b",
      "l1Fee": "0x55",
      "l1GasPrice": "0xb",
      "l1GasUsed": "0x640"
    },
    {
      "status": "0x1",
      "cumulativeGasUsed": "0x100c43",
      "logs": [
        {
          "address": "0x19e46095b3a17d9873d4ab87a61fdf97fef567f0",
          "topics": [
            "0x375b93db8e087a80beb91d1a191dd247767bb9df982963a9868fc739edf1f8c6",
            "0x0000000000000000000000008e21d473863313c91feb2d974e7e98a6513b295c",
            "0x1048fa7181b001bef0348216affad76346b04473426acc6e5f35430e03d3c887"
          ],
          "data": "0x00000000000000000000000000000000000000000000000000000000691eb80000000000000000000000000000000000000000000000000000000000691ebb84",
          "blockHash": "0xb0d25fbf5a6079eed484a4f9a06af92b3306e99659df6828d590181846a8006b",
          "blockNumber": "0x20503d6",
          "blockTimestamp": "0x691d668c",
          "transactionHash": "0x61f9d8cf7682752a069444ddd4ef263a818fa3e2217bb9609ec5e572247fba50",
          "transactionIndex": "0x6",
          "logIndex": "0x8",
          "removed": false
        }
      ],
      "logsBloom": "0x00000000800000000000000000000000000000002000000000000000000000000000000000000000000000001000000000000000000000000000000014000000000000000000000000000000000000000000000000000010000000000000000000000000000000000000000000000000000000000000000400000000000000100000000000000000000000000000000000000000000000000000000000000000000000000000080000000000000000000000000000000000000000000000000004000000000000000000000000000000000000000000000000000000000000000020000000000000000000000000000000002000000000000000000000000000",
      "type": "0x2",
      "transactionHash": "0x61f9d8cf7682752a069444ddd4ef263a818fa3e2217bb9609ec5e572247fba50",
      "transactionIndex": "0x6",
      "blockHash": "0xb0d25fbf5a6079eed484a4f9a06af92b3306e99659df6828d590181846a8006b",
      "blockNumber": "0x20503d6",
      "gasUsed": "0x3efe6",
      "effectiveGasPrice": "0xecd59",
      "from": "0xc5b2130f38eac51a1b93723509237572963322e9",
      "to": "0x19e46095b3a17d9873d4ab87a61fdf97fef567f0",
      "contractAddress": null,
      "l1BaseFeeScalar": "0x44d",
      "l1BlobBaseFee": "0x1",
      "l1BlobBaseFeeScalar": "0xa118b",
      "l1Fee": "0x55",
      "l1GasPrice": "0xb",
      "l1GasUsed": "0x640"
    },
    {
      "status": "0x1",
      "cumulativeGasUsed": "0x13fc29",
      "logs": [
        {
          "address": "0x19e46095b3a17d9873d4ab87a61fdf97fef567f0",
          "topics": [
            "0x375b93db8e087a80beb91d1a191dd247767bb9df982963a9868fc739edf1f8c6",
            "0x000000000000000000000000c9a8a708b3194b880238d61bc96ecb74af635dd2",
            "0x7b6444320796c1276699907f9db643d3fa183903bf953f0211923873b0bd8e1e"
          ],
          "data": "0x00000000000000000000000000000000000000000000000000000000691eb80000000000000000000000000000000000000000000000000000000000691ebb84",
          "blockHash": "0xb0d25fbf5a6079eed484a4f9a06af92b3306e99659df6828d590181846a8006b",
          "blockNumber": "0x20503d6",
          "blockTimestamp": "0x691d668c",
          "transactionHash": "0xb5e5ab57e47722fa60510da007f90009884763aabfade87eadcbbaec81782109",
          "transactionIndex": "0x7",
          "logIndex": "0x9",
          "removed": false
        }
      ],
      "logsBloom": "0x00000000000000000000000000000000000000002000000000000010000000000000000000000000000000000000000000000000000000000000002014000000000000000000000000000000000000010000000000000000000000000000000000000000000000000000000000000000000000000000000400000000000000000000000000000000000000000000000000000000000000000000000000000000000000000000080000000000000000000000000020000000000000000000000000000000000000000000000000000000000000000000000000000000080000000000000000000000000000000000000000002000000000000000000000000800",
      "type": "0x2",
      "transactionHash": "0xb5e5ab57e47722fa60510da007f90009884763aabfade87eadcbbaec81782109",
      "transactionIndex": "0x7",
      "blockHash": "0xb0d25fbf5a6079eed484a4f9a06af92b3306e99659df6828d590181846a8006b",
      "blockNumber": "0x20503d6",
      "gasUsed": "0x3efe6",
      "effectiveGasPrice": "0xecd59",
      "from": "0xc5b2130f38eac51a1b93723509237572963322e9",
      "to": "0x19e46095b3a17d9873d4ab87a61fdf97fef567f0",
      "contractAddress": null,
      "l1BaseFeeScalar": "0x44d",
      "l1BlobBaseFee": "0x1",
      "l1BlobBaseFeeScalar": "0xa118b",
      "l1Fee": "0x55",
      "l1GasPrice": "0xb",
      "l1GasUsed": "0x640"
    },
    {
      "status": "0x1",
      "cumulativeGasUsed": "0x17ec03",
      "logs": [
        {
          "address": "0x19e46095b3a17d9873d4ab87a61fdf97fef567f0",
          "topics": [
            "0x375b93db8e087a80beb91d1a191dd247767bb9df982963a9868fc739edf1f8c6",
            "0x000000000000000000000000e4e2d207344a7de57d15e0ec06a622a107828dfd",
            "0x27e0dd3519797ddc8ea3ecfedae258cbdeea8995f8b579e224f8350824ff8898"
          ],
          "data": "0x00000000000000000000000000000000000000000000000000000000691eb80000000000000000000000000000000000000000000000000000000000691ebb84",
          "blockHash": "0xb0d25fbf5a6079eed484a4f9a06af92b3306e99659df6828d590181846a8006b",
          "blockNumber": "0x20503d6",
          "blockTimestamp": "0x691d668c",
          "transactionHash": "0xa72aa9e88ab77c6e25c4ac1713718b0b2cd41e6cf0cf042d898a01da1d9518a0",
          "transactionIndex": "0x8",
          "logIndex": "0xa",
          "removed": false
        }
      ],
      "logsBloom": "0x00000000000000000000000008000000000000002000000000000000000000000000000000000000000000000000000800000000000000000000000014000000800000000000000000000000000000000000000000000000000000000000000000000000000004000000000000000000000000000000000400000000000000000000000000000000000000000000000000000000000000000000000000000800000000000000080000000000000000000000000000000000000000000000000000000000000000000000000000000000000000000010000000000000000000000000000000000000000000000000000000002000000000000000000000000000",
      "type": "0x2",
      "transactionHash": "0xa72aa9e88ab77c6e25c4ac1713718b0b2cd41e6cf0cf042d898a01da1d9518a0",
      "transactionIndex": "0x8",
      "blockHash": "0xb0d25fbf5a6079eed484a4f9a06af92b3306e99659df6828d590181846a8006b",
      "blockNumber": "0x20503d6",
      "gasUsed": "0x3efda",
      "effectiveGasPrice": "0xecd59",
      "from": "0xc5b2130f38eac51a1b93723509237572963322e9",
      "to": "0x19e46095b3a17d9873d4ab87a61fdf97fef567f0",
      "contractAddress": null,
      "l1BaseFeeScalar": "0x44d",
      "l1BlobBaseFee": "0x1",
      "l1BlobBaseFeeScalar": "0xa118b",
      "l1Fee": "0x55",
      "l1GasPrice": "0xb",
      "l1GasUsed": "0x640"
    },
    {
      "status": "0x1",
      "cumulativeGasUsed": "0x1bdbdd",
      "logs": [
        {
          "address": "0x19e46095b3a17d9873d4ab87a61fdf97fef567f0",
          "topics": [
            "0x375b93db8e087a80beb91d1a191dd247767bb9df982963a9868fc739edf1f8c6",
            "0x000000000000000000000000b737041cd9ceaa2e0a17f2c03843f05280e94b02",
            "0x25a8929f17bd16edcc0dd19f70eb50cb78d372acae68727b02e9bd8313483bfe"
          ],
          "data": "0x00000000000000000000000000000000000000000000000000000000691eb80000000000000000000000000000000000000000000000000000000000691ebb84",
          "blockHash": "0xb0d25fbf5a6079eed484a4f9a06af92b3306e99659df6828d590181846a8006b",
          "blockNumber": "0x20503d6",
          "blockTimestamp": "0x691d668c",
          "transactionHash": "0x35c4e45dd3d2416fa7636682b1b653d21e51026e789f950df7d73ed376216338",
          "transactionIndex": "0x9",
          "logIndex": "0xb",
          "removed": false
        }
      ],
      "logsBloom": "0x00000000000000000000000000000000000000002000000000000000000000000000000000000000000000080000000000000000000000000000000014000000000000000000000000000000000000000000000000000000000000000000000000000000000000000000000000000000000000000000000400000000200000000000000000000000000000000000000000000080000000000000000000000000000000000000080000000000000000000000000000000000000000000000000000000000000000000000000800000001000000000000000000000000000000000000000000200000000000000000000000002000000000000000000000000000",
      "type": "0x2",
      "transactionHash": "0x35c4e45dd3d2416fa7636682b1b653d21e51026e789f950df7d73ed376216338",
      "transactionIndex": "0x9",
      "blockHash": "0xb0d25fbf5a6079eed484a4f9a06af92b3306e99659df6828d590181846a8006b",
      "blockNumber": "0x20503d6",
      "gasUsed": "0x3efda",
      "effectiveGasPrice": "0xecd59",
      "from": "0xc5b2130f38eac51a1b93723509237572963322e9",
      "to": "0x19e46095b3a17d9873d4ab87a61fdf97fef567f0",
      "contractAddress": null,
      "l1BaseFeeScalar": "0x44d",
      "l1BlobBaseFee": "0x1",
      "l1BlobBaseFeeScalar": "0xa118b",
      "l1Fee": "0x55",
      "l1GasPrice": "0xb",
      "l1GasUsed": "0x640"
    },
    {
      "status": "0x1",
      "cumulativeGasUsed": "0x1fcbc3",
      "logs": [
        {
          "address": "0x19e46095b3a17d9873d4ab87a61fdf97fef567f0",
          "topics": [
            "0x375b93db8e087a80beb91d1a191dd247767bb9df982963a9868fc739edf1f8c6",
            "0x0000000000000000000000000c0bb9d4c9b42222aba7361a9a4c3ef5558b6376",
            "0x57ea6380b3db5e51c369d6d37b884963f67398083f4e14893e20644c88397944"
          ],
          "data": "0x00000000000000000000000000000000000000000000000000000000691eb80000000000000000000000000000000000000000000000000000000000691ebb84",
          "blockHash": "0xb0d25fbf5a6079eed484a4f9a06af92b3306e99659df6828d590181846a8006b",
          "blockNumber": "0x20503d6",
          "blockTimestamp": "0x691d668c",
          "transactionHash": "0xaad7bc828db64173c3fc79227180fee32be43d6058b281e5f1f00acb0c87e094",
          "transactionIndex": "0xa",
          "logIndex": "0xc",
          "removed": false
        }
      ],
      "logsBloom": "0x00000000000000000000000000000000000000002000000000000000000000000000000000000000000000004000000000000000000000000000000014000000000000000000000000000000000000000000000000000000000000400000000000000001000000000000000000000000000000000000000400000000000000000000000000000000000000000000000000000000000000000000000000000000000000000000080000000000000000000000000000000000000003000000000000000000000000000000000000000000000000000000000000000008000000000000000000000000000000000000000000002000000000000000000000000000",
      "type": "0x2",
      "transactionHash": "0xaad7bc828db64173c3fc79227180fee32be43d6058b281e5f1f00acb0c87e094",
      "transactionIndex": "0xa",
      "blockHash": "0xb0d25fbf5a6079eed484a4f9a06af92b3306e99659df6828d590181846a8006b",
      "blockNumber": "0x20503d6",
      "gasUsed": "0x3efe6",
      "effectiveGasPrice": "0xecd59",
      "from": "0xc5b2130f38eac51a1b93723509237572963322e9",
      "to": "0x19e46095b3a17d9873d4ab87a61fdf97fef567f0",
      "contractAddress": null,
      "l1BaseFeeScalar": "0x44d",
      "l1BlobBaseFee": "0x1",
      "l1BlobBaseFeeScalar": "0xa118b",
      "l1Fee": "0x55",
      "l1GasPrice": "0xb",
      "l1GasUsed": "0x640"
    }
  ],
  "libraries": [],
  "pending": [],
  "returns": {},
  "timestamp": 1763534475664,
  "chain": 84532,
  "commit": "dcb7368"
}