{
  "transactions": [
    {
      "hash": "0xeb4ddf29f147a3acf15c59438765748db58f948148fc755b6245afbfc0e1810d",
      "transactionType": "CALL",
      "contractName": null,
      "contractAddress": "0x01d8c2543c46a01f86f5eecc8a4648baf9f662b1",
      "function": "createMarket(bytes32,uint64,uint64)",
      "arguments": [
        "0x3474e5946ac15d7611f7f7839c93b4b110730e72d450b68d6d79cee39789f03a",
        "1764296398",
        "1764296408"
      ],
      "transaction": {
        "from": "0xc5b2130f38eac51a1b93723509237572963322e9",
        "to": "0x01d8c2543c46a01f86f5eecc8a4648baf9f662b1",
        "gas": "0x56e0e",
        "value": "0x0",
        "input": "0xaab38bee3474e5946ac15d7611f7f7839c93b4b110730e72d450b68d6d79cee39789f03a00000000000000000000000000000000000000000000000000000000692906ce00000000000000000000000000000000000000000000000000000000692906d8",
        "nonce": "0x1fc",
        "chainId": "0x14a34"
      },
      "additionalContracts": [
        {
          "transactionType": "CREATE",
          "contractName": null,
          "address": "0xc1582da116eff0d7d973cef56bed7ed9f43a7b39",
          "initCode": "0x3d602d80600a3d3981f3363d3d373d3d3d363d73d2bcb1be7285c77e4410bb0d0d47565759ec55e55af43d82803e903d91602b57fd5bf3"
        }
      ],
      "isFixedGasLimit": false
    },
    {
      "hash": "0x00b03c8a06056b19e222c9994922224ac4200a9ecba96623c02a8bc3584e305d",
      "transactionType": "CALL",
      "contractName": null,
      "contractAddress": "0x01d8c2543c46a01f86f5eecc8a4648baf9f662b1",
      "function": "createMarket(bytes32,uint64,uint64)",
      "arguments": [
        "0x7d90f606efa9ce378d54e918ac0cb880deb5af9775211f3af16875627aab952d",
        "1764296398",
        "1764296408"
      ],
      "transaction": {
        "from": "0xc5b2130f38eac51a1b93723509237572963322e9",
        "to": "0x01d8c2543c46a01f86f5eecc8a4648baf9f662b1",
        "gas": "0x56e0e",
        "value": "0x0",
        "input": "0xaab38bee7d90f606efa9ce378d54e918ac0cb880deb5af9775211f3af16875627aab952d00000000000000000000000000000000000000000000000000000000692906ce00000000000000000000000000000000000000000000000000000000692906d8",
        "nonce": "0x1fd",
        "chainId": "0x14a34"
      },
      "additionalContracts": [
        {
          "transactionType": "CREATE",
          "contractName": null,
          "address": "0x4ad98c2bdaf5501ebe97eddc6704584c90a6a9eb",
          "initCode": "0x3d602d80600a3d3981f3363d3d373d3d3d363d73d2bcb1be7285c77e4410bb0d0d47565759ec55e55af43d82803e903d91602b57fd5bf3"
        }
      ],
      "isFixedGasLimit": false
    },
    {
      "hash": "0x15fe5cc01d22567dc22e949b41f2d47c43844938262c897b29e7b5dc032a92c5",
      "transactionType": "CALL",
      "contractName": null,
      "contractAddress": "0x01d8c2543c46a01f86f5eecc8a4648baf9f662b1",
      "function": "createMarket(bytes32,uint64,uint64)",
      "arguments": [
        "0x544102fe5224547ef2ad8545e68c8840191c01575cc19cf1bcfff3a957a3a430",
        "1764296398",
        "1764296408"
      ],
      "transaction": {
        "from": "0xc5b2130f38eac51a1b93723509237572963322e9",
        "to": "0x01d8c2543c46a01f86f5eecc8a4648baf9f662b1",
        "gas": "0x56e0e",
        "value": "0x0",
        "input": "0xaab38bee544102fe5224547ef2ad8545e68c8840191c01575cc19cf1bcfff3a957a3a43000000000000000000000000000000000000000000000000000000000692906ce00000000000000000000000000000000000000000000000000000000692906d8",
        "nonce": "0x1fe",
        "chainId": "0x14a34"
      },
      "additionalContracts": [
        {
          "transactionType": "CREATE",
          "contractName": null,
          "address": "0x83c78cf3a141dac4dd16e44776f415c6f1d828fe",
          "initCode": "0x3d602d80600a3d3981f3363d3d373d3d3d363d73d2bcb1be7285c77e4410bb0d0d47565759ec55e55af43d82803e903d91602b57fd5bf3"
        }
      ],
      "isFixedGasLimit": false
    },
    {
      "hash": "0x087ca7439bbd1ac6fc9990a6efe705b29970cba281d71d45162653a35b460492",
      "transactionType": "CALL",
      "contractName": null,
      "contractAddress": "0x01d8c2543c46a01f86f5eecc8a4648baf9f662b1",
      "function": "createMarket(bytes32,uint64,uint64)",
      "arguments": [
        "0xf6bee4ae38f55fccc3d6cd319bf22754d32c95fecc7b9cea8e6ce06df6964f4a",
        "1764296398",
        "1764296408"
      ],
      "transaction": {
        "from": "0xc5b2130f38eac51a1b93723509237572963322e9",
        "to": "0x01d8c2543c46a01f86f5eecc8a4648baf9f662b1",
        "gas": "0x56e0e",
        "value": "0x0",
        "input": "0xaab38beef6bee4ae38f55fccc3d6cd319bf22754d32c95fecc7b9cea8e6ce06df6964f4a00000000000000000000000000000000000000000000000000000000692906ce00000000000000000000000000000000000000000000000000000000692906d8",
        "nonce": "0x1ff",
        "chainId": "0x14a34"
      },
      "additionalContracts": [
        {
          "transactionType": "CREATE",
          "contractName": null,
          "address": "0x1b42fbc6ef674ac7b5f762e850b9e1a4195ef035",
          "initCode": "0x3d602d80600a3d3981f3363d3d373d3d3d363d73d2bcb1be7285c77e4410bb0d0d47565759ec55e55af43d82803e903d91602b57fd5bf3"
        }
      ],
      "isFixedGasLimit": false
    },
    {
      "hash": "0x203dbdafc49c17c798fcab1391ee840724bda1bcc2103295fab6ec2d6cc18f95",
      "transactionType": "CALL",
      "contractName": null,
      "contractAddress": "0x01d8c2543c46a01f86f5eecc8a4648baf9f662b1",
      "function": "createMarket(bytes32,uint64,uint64)",
      "arguments": [
        "0x72956c9f21e9bcdceeeba948730a3097339fbc48d101206e35f08e97240a6a4d",
        "1764296398",
        "1764296408"
      ],
      "transaction": {
        "from": "0xc5b2130f38eac51a1b93723509237572963322e9",
        "to": "0x01d8c2543c46a01f86f5eecc8a4648baf9f662b1",
        "gas": "0x56e0e",
        "value": "0x0",
        "input": "0xaab38bee72956c9f21e9bcdceeeba948730a3097339fbc48d101206e35f08e97240a6a4d00000000000000000000000000000000000000000000000000000000692906ce00000000000000000000000000000000000000000000000000000000692906d8",
        "nonce": "0x200",
        "chainId": "0x14a34"
      },
      "additionalContracts": [
        {
          "transactionType": "CREATE",
          "contractName": null,
          "address": "0x7482b3db91b1d201f87de7dec48b302e1049ada2",
          "initCode": "0x3d602d80600a3d3981f3363d3d373d3d3d363d73d2bcb1be7285c77e4410bb0d0d47565759ec55e55af43d82803e903d91602b57fd5bf3"
        }
      ],
      "isFixedGasLimit": false
    },
    {
      "hash": "0x65b98bf483866fadcd1a82f48d1c4b591fafe177c48b162b946f4b444aec4853",
      "transactionType": "CALL",
      "contractName": null,
      "contractAddress": "0x01d8c2543c46a01f86f5eecc8a4648baf9f662b1",
      "function": "createMarket(bytes32,uint64,uint64)",
      "arguments": [
        "0x0ccb1351485b80f6c319d237191a20d6a2e1a02846bed3d69f5f33b7d11baaf6",
        "1764296398",
        "1764296408"
      ],
      "transaction": {
        "from": "0xc5b2130f38eac51a1b93723509237572963322e9",
        "to": "0x01d8c2543c46a01f86f5eecc8a4648baf9f662b1",
        "gas": "0x56e0e",
        "value": "0x0",
        "input": "0xaab38bee0ccb1351485b80f6c319d237191a20d6a2e1a02846bed3d69f5f33b7d11baaf600000000000000000000000000000000000000000000000000000000692906ce00000000000000000000000000000000000000000000000000000000692906d8",
        "nonce": "0x201",
        "chainId": "0x14a34"
      },
      "additionalContracts": [
        {
          "transactionType": "CREATE",
          "contractName": null,
          "address": "0x97cd9d7bacbebab0c3cb074e757a90e07dfe8e96",
          "initCode": "0x3d602d80600a3d3981f3363d3d373d3d3d363d73d2bcb1be7285c77e4410bb0d0d47565759ec55e55af43d82803e903d91602b57fd5bf3"
        }
      ],
      "isFixedGasLimit": false
    },
    {
      "hash": "0x78c80d21a9da17de1c0088dc605132e345aa11ffbc0f726c3915393dc51221fa",
      "transactionType": "CALL",
      "contractName": null,
      "contractAddress": "0x01d8c2543c46a01f86f5eecc8a4648baf9f662b1",
      "function": "createMarket(bytes32,uint64,uint64)",
      "arguments": [
        "0x8b8e39bd9f06a00c7dec8952f9be9c26a93bea1ccb1e5a4662fb2200b0b31c6c",
        "1764296398",
        "1764296408"
      ],
      "transaction": {
        "from": "0xc5b2130f38eac51a1b93723509237572963322e9",
        "to": "0x01d8c2543c46a01f86f5eecc8a4648baf9f662b1",
        "gas": "0x56dfd",
        "value": "0x0",
        "input": "0xaab38bee8b8e39bd9f06a00c7dec8952f9be9c26a93bea1ccb1e5a4662fb2200b0b31c6c00000000000000000000000000000000000000000000000000000000692906ce00000000000000000000000000000000000000000000000000000000692906d8",
        "nonce": "0x202",
        "chainId": "0x14a34"
      },
      "additionalContracts": [
        {
          "transactionType": "CREATE",
          "contractName": null,
          "address": "0x305bf13fedaefdf9b6516e79794bedebd79aeff1",
          "initCode": "0x3d602d80600a3d3981f3363d3d373d3d3d363d73d2bcb1be7285c77e4410bb0d0d47565759ec55e55af43d82803e903d91602b57fd5bf3"
        }
      ],
      "isFixedGasLimit": false
    },
    {
      "hash": "0x224c648a4a40586639f1dc8a19c6db91ce5fadcaefc5e0fed24f27b903a9a29e",
      "transactionType": "CALL",
      "contractName": null,
      "contractAddress": "0x01d8c2543c46a01f86f5eecc8a4648baf9f662b1",
      "function": "createMarket(bytes32,uint64,uint64)",
      "arguments": [
        "0x21ec3e4eadbf3f5d10f3ea3e357507e415a164a93b6c922b5d38a41b6abcad5f",
        "1764296398",
        "1764296408"
      ],
      "transaction": {
        "from": "0xc5b2130f38eac51a1b93723509237572963322e9",
        "to": "0x01d8c2543c46a01f86f5eecc8a4648baf9f662b1",
        "gas": "0x56e0e",
        "value": "0x0",
        "input": "0xaab38bee21ec3e4eadbf3f5d10f3ea3e357507e415a164a93b6c922b5d38a41b6abcad5f00000000000000000000000000000000000000000000000000000000692906ce00000000000000000000000000000000000000000000000000000000692906d8",
        "nonce": "0x203",
        "chainId": "0x14a34"
      },
      "additionalContracts": [
        {
          "transactionType": "CREATE",
          "contractName": null,
          "address": "0x01e4a33513bfe3a8a6c5201a3431ace260f83ebd",
          "initCode": "0x3d602d80600a3d3981f3363d3d373d3d3d363d73d2bcb1be7285c77e4410bb0d0d47565759ec55e55af43d82803e903d91602b57fd5bf3"
        }
      ],
      "isFixedGasLimit": false
    },
    {
      "hash": "0x92f850bc8b6e6994cefa0c61dd27ad0adb9215ae4a98f40f46cbe034dbfe9663",
      "transactionType": "CALL",
      "contractName": null,
      "contractAddress": "0x01d8c2543c46a01f86f5eecc8a4648baf9f662b1",
      "function": "createMarket(bytes32,uint64,uint64)",
      "arguments": [
        "0xba2e8da5eedd1611e54668f3a05d0b41710a69b5a5c22f6aabfb4dd0ce771319",
        "1764296398",
        "1764296408"
      ],
      "transaction": {
        "from": "0xc5b2130f38eac51a1b93723509237572963322e9",
        "to": "0x01d8c2543c46a01f86f5eecc8a4648baf9f662b1",
        "gas": "0x56e0e",
        "value": "0x0",
        "input": "0xaab38beeba2e8da5eedd1611e54668f3a05d0b41710a69b5a5c22f6aabfb4dd0ce77131900000000000000000000000000000000000000000000000000000000692906ce00000000000000000000000000000000000000000000000000000000692906d8",
        "nonce": "0x204",
        "chainId": "0x14a34"
      },
      "additionalContracts": [
        {
          "transactionType": "CREATE",
          "contractName": null,
          "address": "0xa72d43d111ef18c8afca9ef87aa7bd9ab123ab29",
          "initCode": "0x3d602d80600a3d3981f3363d3d373d3d3d363d73d2bcb1be7285c77e4410bb0d0d47565759ec55e55af43d82803e903d91602b57fd5bf3"
        }
      ],
      "isFixedGasLimit": false
    },
    {
      "hash": "0x4329857be49e8034b4de2e407b6b5c9d5d5bc564f068135c34bcf083e27161d9",
      "transactionType": "CALL",
      "contractName": null,
      "contractAddress": "0x01d8c2543c46a01f86f5eecc8a4648baf9f662b1",
      "function": "createMarket(bytes32,uint64,uint64)",
      "arguments": [
        "0xfa669a8d55d55aa01b4c6556837be7069bdac80c278bac0901f0fba3b5f01613",
        "1764296398",
        "1764296408"
      ],
      "transaction": {
        "from": "0xc5b2130f38eac51a1b93723509237572963322e9",
        "to": "0x01d8c2543c46a01f86f5eecc8a4648baf9f662b1",
        "gas": "0x56e0e",
        "value": "0x0",
        "input": "0xaab38beefa669a8d55d55aa01b4c6556837be7069bdac80c278bac0901f0fba3b5f0161300000000000000000000000000000000000000000000000000000000692906ce00000000000000000000000000000000000000000000000000000000692906d8",
        "nonce": "0x205",
        "chainId": "0x14a34"
      },
      "additionalContracts": [
        {
          "transactionType": "CREATE",
          "contractName": null,
          "address": "0x7baef33116b276d3172f0d1f990bd45e3af48e24",
          "initCode": "0x3d602d80600a3d3981f3363d3d373d3d3d363d73d2bcb1be7285c77e4410bb0d0d47565759ec55e55af43d82803e903d91602b57fd5bf3"
        }
      ],
      "isFixedGasLimit": false
    }
  ],
  "receipts": [
    {
      "status": "0x1",
      "cumulativeGasUsed": "0x12d4732",
      "logs": [
        {
          "address": "0x01d8c2543c46a01f86f5eecc8a4648baf9f662b1",
          "topics": [
            "0x375b93db8e087a80beb91d1a191dd247767bb9df982963a9868fc739edf1f8c6",
            "0x000000000000000000000000c1582da116eff0d7d973cef56bed7ed9f43a7b39",
            "0xbeb3a350d9d50f8491ae1dfd1acfc2eed7fd8841feb6cc63f843120b95d90f8d"
          ],
          "data": "0x00000000000000000000000000000000000000000000000000000000692906ce00000000000000000000000000000000000000000000000000000000692906d8",
          "blockHash": "0x4a64d4e3f41b07f54df5e65b954be3f72b6f61800d6dd7bafecbd7a085a3d809",
          "blockNumber": "0x20ad36a",
          "blockTimestamp": "0x692905b4",
          "transactionHash": "0xeb4ddf29f147a3acf15c59438765748db58f948148fc755b6245afbfc0e1810d",
          "transactionIndex": "0x54",
          "logIndex": "0x102",
          "removed": false
        }
      ],
      "logsBloom": "0x00000000200000000000000000000000000000000000000000000000000000000000000000000000000000000000000000000000000000000000000014000000000000000000000000000000000000000000000000000000000000000000000000000000000000000000000000000000000000000000000000000000000000400000000040000000000000000000000000000000008000000000000000000000000000000000080000000000001000000000000000000000000000000000000000000000000000000000000000000000000000000000000000000000000000000000000002000000000000000000020000400000010000000000000000000000",
      "type": "0x2",
      "transactionHash": "0xeb4ddf29f147a3acf15c59438765748db58f948148fc755b6245afbfc0e1810d",
      "transactionIndex": "0x54",
      "blockHash": "0x4a64d4e3f41b07f54df5e65b954be3f72b6f61800d6dd7bafecbd7a085a3d809",
      "blockNumber": "0x20ad36a",
      "gasUsed": "0x3ee60",
      "effectiveGasPrice": "0x155627",
      "blobGasUsed": "0x79e0",
      "from": "0xc5b2130f38eac51a1b93723509237572963322e9",
      "to": "0x01d8c2543c46a01f86f5eecc8a4648baf9f662b1",
      "contractAddress": null,
      "daFootprintGasScalar": "0x138",
      "l1BaseFeeScalar": "0x44d",
      "l1BlobBaseFee": "0x1",
      "l1BlobBaseFeeScalar": "0xa118b",
      "l1Fee": "0x9a",
      "l1GasPrice": "0x8",
      "l1GasUsed": "0x647"
    },
    {
      "status": "0x1",
      "cumulativeGasUsed": "0x1313592",
      "logs": [
        {
          "address": "0x01d8c2543c46a01f86f5eecc8a4648baf9f662b1",
          "topics": [
            "0x375b93db8e087a80beb91d1a191dd247767bb9df982963a9868fc739edf1f8c6",
            "0x0000000000000000000000004ad98c2bdaf5501ebe97eddc6704584c90a6a9eb",
            "0x0399f6f62cdf6cef73e415f4961ac077dbe4aa9129e5948fa81c54b1caa91521"
          ],
          "data": "0x00000000000000000000000000000000000000000000000000000000692906ce00000000000000000000000000000000000000000000000000000000692906d8",
          "blockHash": "0x4a64d4e3f41b07f54df5e65b954be3f72b6f61800d6dd7bafecbd7a085a3d809",
          "blockNumber": "0x20ad36a",
          "blockTimestamp": "0x692905b4",
          "transactionHash": "0x00b03c8a06056b19e222c9994922224ac4200a9ecba96623c02a8bc3584e305d",
          "transactionIndex": "0x55",
          "logIndex": "0x103",
          "removed": false
        }
      ],
      "logsBloom": "0x00000000200000000000000000008000000000000000000000000000000000000000000000000000000000000000000000000000000000000000000014000000000000000000200000000000000000000000000000000000000000000000000000000000000000000000000000000000000000002000000000000000000000000000000000000000000000000000000000000000008000000000000000000000000000000000080000000040000000000000000000000000000000000000000000000000000000000000000000000004000000000000000400000000000000000000000002000000000000000000000000000000000000000000000000000000",
      "type": "0x2",
      "transactionHash": "0x00b03c8a06056b19e222c9994922224ac4200a9ecba96623c02a8bc3584e305d",
      "transactionIndex": "0x55",
      "blockHash": "0x4a64d4e3f41b07f54df5e65b954be3f72b6f61800d6dd7bafecbd7a085a3d809",
      "blockNumber": "0x20ad36a",
      "gasUsed": "0x3ee60",
      "effectiveGasPrice": "0x155627",
      "blobGasUsed": "0x79e0",
      "from": "0xc5b2130f38eac51a1b93723509237572963322e9",
      "to": "0x01d8c2543c46a01f86f5eecc8a4648baf9f662b1",
      "contractAddress": null,
      "daFootprintGasScalar": "0x138",
      "l1BaseFeeScalar": "0x44d",
      "l1BlobBaseFee": "0x1",
      "l1BlobBaseFeeScalar": "0xa118b",
      "l1Fee": "0x9a",
      "l1GasPrice": "0x8",
      "l1GasUsed": "0x647"
    },
    {
      "status": "0x1",
      "cumulativeGasUsed": "0x13523f2",
      "logs": [
        {
          "address": "0x01d8c2543c46a01f86f5eecc8a4648baf9f662b1",
          "topics": [
            "0x375b93db8e087a80beb91d1a191dd247767bb9df982963a9868fc739edf1f8c6",
            "0x00000000000000000000000083c78cf3a141dac4dd16e44776f415c6f1d828fe",
            "0x2ce603722b196e0952903f7d023a77231e671b979b8cc24789ab942180efef68"
          ],
          "data": "0x00000000000000000000000000000000000000000000000000000000692906ce00000000000000000000000000000000000000000000000000000000692906d8",
          "blockHash": "0x4a64d4e3f41b07f54df5e65b954be3f72b6f61800d6dd7bafecbd7a085a3d809",
          "blockNumber": "0x20ad36a",
          "blockTimestamp": "0x692905b4",
          "transactionHash": "0x15fe5cc01d22567dc22e949b41f2d47c43844938262c897b29e7b5dc032a92c5",
          "transactionIndex": "0x56",
          "logIndex": "0x104",
          "removed": false
        }
      ],
      "logsBloom": "0x00000000200000000000000000000000000000000000000000000000000000000000000000000000000000040000000000000000000000000000000014000000000000000000000000000000000000000000000000000000000000000000000000000000000000000000000000000000000000000000000000000000000000000000000000000000000000000000000000000000008000800000000000000000000000000000080000000000000000000000000000000000000000000000000000000000000000000100000000000000000000000000000000000000000000100000000002210000000000000000000000000000000000000000000000000000",
      "type": "0x2",
      "transactionHash": "0x15fe5cc01d22567dc22e949b41f2d47c43844938262c897b29e7b5dc032a92c5",
      "transactionIndex": "0x56",
      "blockHash": "0x4a64d4e3f41b07f54df5e65b954be3f72b6f61800d6dd7bafecbd7a085a3d809",
      "blockNumber": "0x20ad36a",
      "gasUsed": "0x3ee60",
      "effectiveGasPrice": "0x155627",
      "blobGasUsed": "0x79e0",
      "from": "0xc5b2130f38eac51a1b93723509237572963322e9",
      "to": "0x01d8c2543c46a01f86f5eecc8a4648baf9f662b1",
      "contractAddress": null,
      "daFootprintGasScalar": "0x138",
      "l1BaseFeeScalar": "0x44d",
      "l1BlobBaseFee": "0x1",
      "l1BlobBaseFeeScalar": "0xa118b",
      "l1Fee": "0x9a",
      "l1GasPrice": "0x8",
      "l1GasUsed": "0x647"
    },
    {
      "status": "0x1",
      "cumulativeGasUsed": "0x1391252",
      "logs": [
        {
          "address": "0x01d8c2543c46a01f86f5eecc8a4648baf9f662b1",
          "topics": [
            "0x375b93db8e087a80beb91d1a191dd247767bb9df982963a9868fc739edf1f8c6",
            "0x0000000000000000000000001b42fbc6ef674ac7b5f762e850b9e1a4195ef035",
            "0xebd47f6f3e093ed2915c97b933f4b44a2bb3d4f395e02cdb0bcd7ade1d6122c7"
          ],
          "data": "0x00000000000000000000000000000000000000000000000000000000692906ce00000000000000000000000000000000000000000000000000000000692906d8",
          "blockHash": "0x4a64d4e3f41b07f54df5e65b954be3f72b6f61800d6dd7bafecbd7a085a3d809",
          "blockNumber": "0x20ad36a",
          "blockTimestamp": "0x692905b4",
          "transactionHash": "0x087ca7439bbd1ac6fc9990a6efe705b29970cba281d71d45162653a35b460492",
          "transactionIndex": "0x57",
          "logIndex": "0x105",
          "removed": false
        }
      ],
      "logsBloom": "0x00000000200000000000000000000000000000000000000000000000000000000000000000000000000000000000000000000000000000000000000014002000000000000000000000000000000000000000000000000000000000000000000000000000000000000000000000000000000000000000000000000000400000000000040000000000000000000000000000000000008000000000000000000000000000000000080000000000000000000000000000000000000020000000000010000000000000000000000000000000000000000000000000000000000000000000000402000000000000000000000000000000000000000000000000000000",
      "type": "0x2",
      "transactionHash": "0x087ca7439bbd1ac6fc9990a6efe705b29970cba281d71d45162653a35b460492",
      "transactionIndex": "0x57",
      "blockHash": "0x4a64d4e3f41b07f54df5e65b954be3f72b6f61800d6dd7bafecbd7a085a3d809",
      "blockNumber": "0x20ad36a",
      "gasUsed": "0x3ee60",
      "effectiveGasPrice": "0x155627",
      "blobGasUsed": "0x79e0",
      "from": "0xc5b2130f38eac51a1b93723509237572963322e9",
      "to": "0x01d8c2543c46a01f86f5eecc8a4648baf9f662b1",
      "contractAddress": null,
      "daFootprintGasScalar": "0x138",
      "l1BaseFeeScalar": "0x44d",
      "l1BlobBaseFee": "0x1",
      "l1BlobBaseFeeScalar": "0xa118b",
      "l1Fee": "0x9a",
      "l1GasPrice": "0x8",
      "l1GasUsed": "0x647"
    },
    {
      "status": "0x1",
      "cumulativeGasUsed": "0x13d00b2",
      "logs": [
        {
          "address": "0x01d8c2543c46a01f86f5eecc8a4648baf9f662b1",
          "topics": [
            "0x375b93db8e087a80beb91d1a191dd247767bb9df982963a9868fc739edf1f8c6",
            "0x0000000000000000000000007482b3db91b1d201f87de7dec48b302e1049ada2",
            "0x985994eec5c380c69a2a9299f8aff7a43952cfb9bf9af26c8977a75c17cda8a1"
          ],
          "data": "0x00000000000000000000000000000000000000000000000000000000692906ce00000000000000000000000000000000000000000000000000000000692906d8",
          "blockHash": "0x4a64d4e3f41b07f54df5e65b954be3f72b6f61800d6dd7bafecbd7a085a3d809",
          "blockNumber": "0x20ad36a",
          "blockTimestamp": "0x692905b4",
          "transactionHash": "0x203dbdafc49c17c798fcab1391ee840724bda1bcc2103295fab6ec2d6cc18f95",
          "transactionIndex": "0x58",
          "logIndex": "0x106",
          "removed": false
        }
      ],
      "logsBloom": "0x00000000200080000000000000000000000000000004000000000000000000000000000000000000000000000000000000000000000000000000000014000200000000000000000000000000000000000000000000000000000000000000000000000000000000000000000000000000000000000000000000000000000000000000000000000000000000000000002000000000008000000000000000000000000000000000080000000000000000000000800000000000000000000000000000000000000000000000000000000000000100000000000000000000000000000000000002000000000000000000000000000000000000000000000000000000",
      "type": "0x2",
      "transactionHash": "0x203dbdafc49c17c798fcab1391ee840724bda1bcc2103295fab6ec2d6cc18f95",
      "transactionIndex": "0x58",
      "blockHash": "0x4a64d4e3f41b07f54df5e65b954be3f72b6f61800d6dd7bafecbd7a085a3d809",
      "blockNumber": "0x20ad36a",
      "gasUsed": "0x3ee60",
      "effectiveGasPrice": "0x155627",
      "blobGasUsed": "0x79e0",
      "from": "0xc5b2130f38eac51a1b93723509237572963322e9",
      "to": "0x01d8c2543c46a01f86f5eecc8a4648baf9f662b1",
      "contractAddress": null,
      "daFootprintGasScalar": "0x138",
      "l1BaseFeeScalar": "0x44d",
      "l1BlobBaseFee": "0x1",
      "l1BlobBaseFeeScalar": "0xa118b",
      "l1Fee": "0x9a",
      "l1GasPrice": "0x8",
      "l1GasUsed": "0x647"
    },
    {
      "status": "0x1",
      "cumulativeGasUsed": "0x140ef12",
      "logs": [
        {
          "address": "0x01d8c2543c46a01f86f5eecc8a4648baf9f662b1",
          "topics": [
            "0x375b93db8e087a80beb91d1a191dd247767bb9df982963a9868fc739edf1f8c6",
            "0x00000000000000000000000097cd9d7bacbebab0c3cb074e757a90e07dfe8e96",
            "0x5fbffd0d089ae63a8ae8ec742452eecbe76ad9dd71f185b8d3b34c93914e73da"
          ],
          "data": "0x00000000000000000000000000000000000000000000000000000000692906ce00000000000000000000000000000000000000000000000000000000692906d8",
          "blockHash": "0x4a64d4e3f41b07f54df5e65b954be3f72b6f61800d6dd7bafecbd7a085a3d809",
          "blockNumber": "0x20ad36a",
          "blockTimestamp": "0x692905b4",
          "transactionHash": "0x65b98bf483866fadcd1a82f48d1c4b591fafe177c48b162b946f4b444aec4853",
          "transactionIndex": "0x59",
          "logIndex": "0x107",
          "removed": false
        }
      ],
      "logsBloom": "0x00000000200000000000000000000000000000000000000000000000000000000000000000000010000000000000000000000000000000000000000014000000000000000000000000000000000000000000000000000020000000000000000000000000000000000000000000000000000000000000000000000000000000000000000000000000000000000000000000040000008000000000000000000000000000000000080000000000000000000000000000000000000000008000000000000000000000000000000800000000000000000000000000000000000000000000000002000000000000001000000000000000000000000000000000000000",
      "type": "0x2",
      "transactionHash": "0x65b98bf483866fadcd1a82f48d1c4b591fafe177c48b162b946f4b444aec4853",
      "transactionIndex": "0x59",
      "blockHash": "0x4a64d4e3f41b07f54df5e65b954be3f72b6f61800d6dd7bafecbd7a085a3d809",
      "blockNumber": "0x20ad36a",
      "gasUsed": "0x3ee60",
      "effectiveGasPrice": "0x155627",
      "blobGasUsed": "0x79e0",
      "from": "0xc5b2130f38eac51a1b93723509237572963322e9",
      "to": "0x01d8c2543c46a01f86f5eecc8a4648baf9f662b1",
      "contractAddress": null,
      "daFootprintGasScalar": "0x138",
      "l1BaseFeeScalar": "0x44d",
      "l1BlobBaseFee": "0x1",
      "l1BlobBaseFeeScalar": "0xa118b",
      "l1Fee": "0x9a",
      "l1GasPrice": "0x8",
      "l1GasUsed": "0x647"
    },
    {
      "status": "0x1",
      "cumulativeGasUsed": "0x144dd66",
      "logs": [
        {
          "address": "0x01d8c2543c46a01f86f5eecc8a4648baf9f662b1",
          "topics": [
            "0x375b93db8e087a80beb91d1a191dd247767bb9df982963a9868fc739edf1f8c6",
            "0x000000000000000000000000305bf13fedaefdf9b6516e79794bedebd79aeff1",
            "0x92337dc4fda0c3857dbb89b2a8a5d9e1f88f211d97d87d83adf8965697d4afd6"
          ],
          "data": "0x00000000000000000000000000000000000000000000000000000000692906ce00000000000000000000000000000000000000000000000000000000692906d8",
          "blockHash": "0x4a64d4e3f41b07f54df5e65b954be3f72b6f61800d6dd7bafecbd7a085a3d809",
          "blockNumber": "0x20ad36a",
          "blockTimestamp": "0x692905b4",
          "transactionHash": "0x78c80d21a9da17de1c0088dc605132e345aa11ffbc0f726c3915393dc51221fa",
          "transactionIndex": "0x5a",
          "logIndex": "0x108",
          "removed": false
        }
      ],
      "logsBloom": "0x00000000200000000000000000000000000000000000000000100100000000000000000000000000000000000000000000000000000000000000000014020000000000000000000000000000000000000000000000000000000000000000000000000000000000000000000000000000000000000000000000000000000000000000000000000000000000000000000000000000008000000000000000000000000000000000080000000000100000000000000000000000800000000000000000000000000000000000000000000000000000000000000000000000000000000000000002000000000000000000000000000000000000000000000000100000",
      "type": "0x2",
      "transactionHash": "0x78c80d21a9da17de1c0088dc605132e345aa11ffbc0f726c3915393dc51221fa",
      "transactionIndex": "0x5a",
      "blockHash": "0x4a64d4e3f41b07f54df5e65b954be3f72b6f61800d6dd7bafecbd7a085a3d809",
      "blockNumber": "0x20ad36a",
      "gasUsed": "0x3ee54",
      "effectiveGasPrice": "0x155627",
      "blobGasUsed": "0x79e0",
      "from": "0xc5b2130f38eac51a1b93723509237572963322e9",
      "to": "0x01d8c2543c46a01f86f5eecc8a4648baf9f662b1",
      "contractAddress": null,
      "daFootprintGasScalar": "0x138",
      "l1BaseFeeScalar": "0x44d",
      "l1BlobBaseFee": "0x1",
      "l1BlobBaseFeeScalar": "0xa118b",
      "l1Fee": "0x9a",
      "l1GasPrice": "0x8",
      "l1GasUsed": "0x647"
    },
    {
      "status": "0x1",
      "cumulativeGasUsed": "0xddb5b",
      "logs": [
        {
          "address": "0x01d8c2543c46a01f86f5eecc8a4648baf9f662b1",
          "topics": [
            "0x375b93db8e087a80beb91d1a191dd247767bb9df982963a9868fc739edf1f8c6",
            "0x00000000000000000000000001e4a33513bfe3a8a6c5201a3431ace260f83ebd",
            "0xeda09a2aa1773c558dba1beb3712fab85fa291aae8ff63f722c7f7012d56d638"
          ],
          "data": "0x00000000000000000000000000000000000000000000000000000000692906ce00000000000000000000000000000000000000000000000000000000692906d8",
          "blockHash": "0x572744357158f277caf9972bb78f961a318e61274acde4df2d34355248b1b660",
          "blockNumber": "0x20ad36b",
          "blockTimestamp": "0x692905b6",
          "transactionHash": "0x224c648a4a40586639f1dc8a19c6db91ce5fadcaefc5e0fed24f27b903a9a29e",
          "transactionIndex": "0xa",
          "logIndex": "0xa",
          "removed": false
        }
      ],
      "logsBloom": "0x00000000200000000000000000000000000000000000000000000000000000000000000000000000000000000002000000000000000000000000000014000000000000000000000000000000000000000000000000000000000000000000000000000000000000000000000000000000000000000000000000000000000000000000000000000000000000020000000000000000008000000000000000000000000000000000080000000000000400000000000000000000000000000040000000200000000000000000000000000000000000000000000000000000000000000000000002000000000000000800000000000000000000000000000000000000",
      "type": "0x2",
      "transactionHash": "0x224c648a4a40586639f1dc8a19c6db91ce5fadcaefc5e0fed24f27b903a9a29e",
      "transactionIndex": "0xa",
      "blockHash": "0x572744357158f277caf9972bb78f961a318e61274acde4df2d34355248b1b660",
      "blockNumber": "0x20ad36b",
      "gasUsed": "0x3ee60",
      "effectiveGasPrice": "0x1563f9",
      "blobGasUsed": "0x79e0",
      "from": "0xc5b2130f38eac51a1b93723509237572963322e9",
      "to": "0x01d8c2543c46a01f86f5eecc8a4648baf9f662b1",
      "contractAddress": null,
      "daFootprintGasScalar": "0x138",
      "l1BaseFeeScalar": "0x44d",
      "l1BlobBaseFee": "0x1",
      "l1BlobBaseFeeScalar": "0xa118b",
      "l1Fee": "0x50",
      "l1GasPrice": "0x8",
      "l1GasUsed": "0x647"
    },
    {
      "status": "0x1",
      "cumulativeGasUsed": "0x11c9bb",
      "logs": [
        {
          "address": "0x01d8c2543c46a01f86f5eecc8a4648baf9f662b1",
          "topics": [
            "0x375b93db8e087a80beb91d1a191dd247767bb9df982963a9868fc739edf1f8c6",
            "0x000000000000000000000000a72d43d111ef18c8afca9ef87aa7bd9ab123ab29",
            "0xd74f6ca6c28b330d9a5ab71959d7262e92dad403158efe913e65ff20ed7ed4bc"
          ],
          "data": "0x00000000000000000000000000000000000000000000000000000000692906ce00000000000000000000000000000000000000000000000000000000692906d8",
          "blockHash": "0x572744357158f277caf9972bb78f961a318e61274acde4df2d34355248b1b660",
          "blockNumber": "0x20ad36b",
          "blockTimestamp": "0x692905b6",
          "transactionHash": "0x92f850bc8b6e6994cefa0c61dd27ad0adb9215ae4a98f40f46cbe034dbfe9663",
          "transactionIndex": "0xb",
          "logIndex": "0xb",
          "removed": false
        }
      ],
      "logsBloom": "0x00000000200000000000000000000000000000000000000000000000000000000000000000000000000000000000000000000000000000000000000014000000000000000000000000000000000000000000000000000000000000000000000000000000000000000000000000000000000000000000000000000000000000000000000000000000000000000000000000000000008000000100000000000000000000000000080000000441000000000000000000000000000000000000000000000000000000000000000000000000000000000000000000000000000000000400000002000000000000000000000000000000000000000000100000000000",
      "type": "0x2",
      "transactionHash": "0x92f850bc8b6e6994cefa0c61dd27ad0adb9215ae4a98f40f46cbe034dbfe9663",
      "transactionIndex": "0xb",
      "blockHash": "0x572744357158f277caf9972bb78f961a318e61274acde4df2d34355248b1b660",
      "blockNumber": "0x20ad36b",
      "gasUsed": "0x3ee60",
      "effectiveGasPrice": "0x1563f9",
      "blobGasUsed": "0x79e0",
      "from": "0xc5b2130f38eac51a1b93723509237572963322e9",
      "to": "0x01d8c2543c46a01f86f5eecc8a4648baf9f662b1",
      "contractAddress": null,
      "daFootprintGasScalar": "0x138",
      "l1BaseFeeScalar": "0x44d",
      "l1BlobBaseFee": "0x1",
      "l1BlobBaseFeeScalar": "0xa118b",
      "l1Fee": "0x50",
      "l1GasPrice": "0x8",
      "l1GasUsed": "0x647"
    },
    {
      "status": "0x1",
      "cumulativeGasUsed": "0x15b81b",
      "logs": [
        {
          "address": "0x01d8c2543c46a01f86f5eecc8a4648baf9f662b1",
          "topics": [
            "0x375b93db8e087a80beb91d1a191dd247767bb9df982963a9868fc739edf1f8c6",
            "0x0000000000000000000000007baef33116b276d3172f0d1f990bd45e3af48e24",
            "0x79d951edf0995e2b11969b75f36b0472f27c715227ff14b822d58359215dfead"
          ],
          "data": "0x00000000000000000000000000000000000000000000000000000000692906ce00000000000000000000000000000000000000000000000000000000692906d8",
          "blockHash": "0x572744357158f277caf9972bb78f961a318e61274acde4df2d34355248b1b660",
          "blockNumber": "0x20ad36b",
          "blockTimestamp": "0x692905b6",
          "transactionHash": "0x4329857be49e8034b4de2e407b6b5c9d5d5bc564f068135c34bcf083e27161d9",
          "transactionIndex": "0xc",
          "logIndex": "0xc",
          "removed": false
        }
      ],
      "logsBloom": "0x00000000200000000000000000000000000000000000000000000400000800000000000000000000000000000000000000000000000000000000800014000000000000000000000000000000000000000000000000000000000000001000000000000000000000000000000000000000000000000000000000000000000000000000000000000000000000000000000000000000008000000000000000000000000000000000080000000400000000000000000000000000000000000000000000000000000000000000000000000000000000000000000000000000000000000000004002000000000000000000000000000000000000000000000000000000",
      "type": "0x2",
      "transactionHash": "0x4329857be49e8034b4de2e407b6b5c9d5d5bc564f068135c34bcf083e27161d9",
      "transactionIndex": "0xc",
      "blockHash": "0x572744357158f277caf9972bb78f961a318e61274acde4df2d34355248b1b660",
      "blockNumber": "0x20ad36b",
      "gasUsed": "0x3ee60",
      "effectiveGasPrice": "0x1563f9",
      "blobGasUsed": "0x79e0",
      "from": "0xc5b2130f38eac51a1b93723509237572963322e9",
      "to": "0x01d8c2543c46a01f86f5eecc8a4648baf9f662b1",
      "contractAddress": null,
      "daFootprintGasScalar": "0x138",
      "l1BaseFeeScalar": "0x44d",
      "l1BlobBaseFee": "0x1",
      "l1BlobBaseFeeScalar": "0xa118b",
      "l1Fee": "0x50",
      "l1GasPrice": "0x8",
      "l1GasUsed": "0x647"
    }
  ],
  "libraries": [],
  "pending": [],
  "returns": {},
  "timestamp": 1764296117763,
  "chain": 84532,
  "commit": "fcefa9e"
}