{
  "transactions": [
    {
      "hash": "0x1c03b798bec89ab3277b51adc1ba0d06f368f24a8c0c96de798c5608a0a9d8ff",
      "transactionType": "CALL",
      "contractName": null,
      "contractAddress": "0x00f1600c1fb79a28efb64180b064958387e24a15",
      "function": "createMarket(bytes32,uint64,uint64)",
      "arguments": [
        "0xd57bed826ed0c4d96bff1c25ee0527f9a778cc5c98dc4144dbe509eb30a788b2",
        "1763636822",
        "1763637722"
      ],
      "transaction": {
        "from": "0xc5b2130f38eac51a1b93723509237572963322e9",
        "to": "0x00f1600c1fb79a28efb64180b064958387e24a15",
        "gas": "0x56e0e",
        "value": "0x0",
        "input": "0xaab38beed57bed826ed0c4d96bff1c25ee0527f9a778cc5c98dc4144dbe509eb30a788b200000000000000000000000000000000000000000000000000000000691ef65600000000000000000000000000000000000000000000000000000000691ef9da",
        "nonce": "0x41",
        "chainId": "0x14a34"
      },
      "additionalContracts": [
        {
          "transactionType": "CREATE",
          "contractName": null,
          "address": "0x26e190338bae68408bbef007821163e330b2b0e4",
          "initCode": "0x3d602d80600a3d3981f3363d3d373d3d3d363d737c96173a124a502dc880727b4a25b4d058e9af125af43d82803e903d91602b57fd5bf3"
        }
      ],
      "isFixedGasLimit": false
    },
    {
      "hash": "0xd4a6268d6e6c913f36a4aff5ae10c6e3bc7bb4a8aeef4b7e2629b9a218e6385d",
      "transactionType": "CALL",
      "contractName": null,
      "contractAddress": "0x00f1600c1fb79a28efb64180b064958387e24a15",
      "function": "createMarket(bytes32,uint64,uint64)",
      "arguments": [
        "0x46a3f002c8c7fc92e494f395ff3a438b56dbbc5751dc2196fa62af9ccab63661",
        "1763636822",
        "1763637722"
      ],
      "transaction": {
        "from": "0xc5b2130f38eac51a1b93723509237572963322e9",
        "to": "0x00f1600c1fb79a28efb64180b064958387e24a15",
        "gas": "0x56e0e",
        "value": "0x0",
        "input": "0xaab38bee46a3f002c8c7fc92e494f395ff3a438b56dbbc5751dc2196fa62af9ccab6366100000000000000000000000000000000000000000000000000000000691ef65600000000000000000000000000000000000000000000000000000000691ef9da",
        "nonce": "0x42",
        "chainId": "0x14a34"
      },
      "additionalContracts": [
        {
          "transactionType": "CREATE",
          "contractName": null,
          "address": "0xbab09b05c79667ba66c1c788f633806e84f3fa0f",
          "initCode": "0x3d602d80600a3d3981f3363d3d373d3d3d363d737c96173a124a502dc880727b4a25b4d058e9af125af43d82803e903d91602b57fd5bf3"
        }
      ],
      "isFixedGasLimit": false
    },
    {
      "hash": "0xdbd4db1086b18bfeb355b55647bfe0a66afc7bf0b8cf4606402441d206516a8f",
      "transactionType": "CALL",
      "contractName": null,
      "contractAddress": "0x00f1600c1fb79a28efb64180b064958387e24a15",
      "function": "createMarket(bytes32,uint64,uint64)",
      "arguments": [
        "0x96138594d5d323d77bfdfa6073e253905a63942b746dff6202c9cb36507cef96",
        "1763636822",
        "1763637722"
      ],
      "transaction": {
        "from": "0xc5b2130f38eac51a1b93723509237572963322e9",
        "to": "0x00f1600c1fb79a28efb64180b064958387e24a15",
        "gas": "0x56e0e",
        "value": "0x0",
        "input": "0xaab38bee96138594d5d323d77bfdfa6073e253905a63942b746dff6202c9cb36507cef9600000000000000000000000000000000000000000000000000000000691ef65600000000000000000000000000000000000000000000000000000000691ef9da",
        "nonce": "0x43",
        "chainId": "0x14a34"
      },
      "additionalContracts": [
        {
          "transactionType": "CREATE",
          "contractName": null,
          "address": "0x002b23d9931faaea543899461a7babd571a22b5b",
          "initCode": "0x3d602d80600a3d3981f3363d3d373d3d3d363d737c96173a124a502dc880727b4a25b4d058e9af125af43d82803e903d91602b57fd5bf3"
        }
      ],
      "isFixedGasLimit": false
    },
    {
      "hash": "0xd69dec8d7c757c89035057f79dcf2e11c179d0c4defb1499c567a48aa4771703",
      "transactionType": "CALL",
      "contractName": null,
      "contractAddress": "0x00f1600c1fb79a28efb64180b064958387e24a15",
      "function": "createMarket(bytes32,uint64,uint64)",
      "arguments": [
        "0x05029b6c794a516d87654ae1032e2a81578098ab9f0aa608c5f9577ef2ecdd1e",
        "1763636822",
        "1763637722"
      ],
      "transaction": {
        "from": "0xc5b2130f38eac51a1b93723509237572963322e9",
        "to": "0x00f1600c1fb79a28efb64180b064958387e24a15",
        "gas": "0x56e0e",
        "value": "0x0",
        "input": "0xaab38bee05029b6c794a516d87654ae1032e2a81578098ab9f0aa608c5f9577ef2ecdd1e00000000000000000000000000000000000000000000000000000000691ef65600000000000000000000000000000000000000000000000000000000691ef9da",
        "nonce": "0x44",
        "chainId": "0x14a34"
      },
      "additionalContracts": [
        {
          "transactionType": "CREATE",
          "contractName": null,
          "address": "0x9578d080baaeab2634c38e3cc65f2f1800eaf0d8",
          "initCode": "0x3d602d80600a3d3981f3363d3d373d3d3d363d737c96173a124a502dc880727b4a25b4d058e9af125af43d82803e903d91602b57fd5bf3"
        }
      ],
      "isFixedGasLimit": false
    },
    {
      "hash": "0xb2fe53c173a4779ecb21f3f7408879494e49053730199ac4623e66a231bb0c9f",
      "transactionType": "CALL",
      "contractName": null,
      "contractAddress": "0x00f1600c1fb79a28efb64180b064958387e24a15",
      "function": "createMarket(bytes32,uint64,uint64)",
      "arguments": [
        "0xef84bcdef1cb3cee1164cf464cb30114e23e7b2a363e60ab9af01f88fe567a76",
        "1763636822",
        "1763637722"
      ],
      "transaction": {
        "from": "0xc5b2130f38eac51a1b93723509237572963322e9",
        "to": "0x00f1600c1fb79a28efb64180b064958387e24a15",
        "gas": "0x56e0e",
        "value": "0x0",
        "input": "0xaab38beeef84bcdef1cb3cee1164cf464cb30114e23e7b2a363e60ab9af01f88fe567a7600000000000000000000000000000000000000000000000000000000691ef65600000000000000000000000000000000000000000000000000000000691ef9da",
        "nonce": "0x45",
        "chainId": "0x14a34"
      },
      "additionalContracts": [
        {
          "transactionType": "CREATE",
          "contractName": null,
          "address": "0x9aa426acd3cf7b322c2b28fa6413465387d3e63c",
          "initCode": "0x3d602d80600a3d3981f3363d3d373d3d3d363d737c96173a124a502dc880727b4a25b4d058e9af125af43d82803e903d91602b57fd5bf3"
        }
      ],
      "isFixedGasLimit": false
    },
    {
      "hash": "0xf04fea8fc27306d207b2606ea8e59a16deed3628ab4e391cd48598348c87287d",
      "transactionType": "CALL",
      "contractName": null,
      "contractAddress": "0x00f1600c1fb79a28efb64180b064958387e24a15",
      "function": "createMarket(bytes32,uint64,uint64)",
      "arguments": [
        "0xf4cd50de9c947ae456e63fca0c7f5f341a18bd5eb4889bb74c0711b5f4104752",
        "1763636822",
        "1763637722"
      ],
      "transaction": {
        "from": "0xc5b2130f38eac51a1b93723509237572963322e9",
        "to": "0x00f1600c1fb79a28efb64180b064958387e24a15",
        "gas": "0x56e0e",
        "value": "0x0",
        "input": "0xaab38beef4cd50de9c947ae456e63fca0c7f5f341a18bd5eb4889bb74c0711b5f410475200000000000000000000000000000000000000000000000000000000691ef65600000000000000000000000000000000000000000000000000000000691ef9da",
        "nonce": "0x46",
        "chainId": "0x14a34"
      },
      "additionalContracts": [
        {
          "transactionType": "CREATE",
          "contractName": null,
          "address": "0x5ea7ae799fcf6a6096e9721272ba82fd19fdeaf1",
          "initCode": "0x3d602d80600a3d3981f3363d3d373d3d3d363d737c96173a124a502dc880727b4a25b4d058e9af125af43d82803e903d91602b57fd5bf3"
        }
      ],
      "isFixedGasLimit": false
    },
    {
      "hash": "0xe44288d508b78f4c2dbb56fe227a04bdd8f945126e3e5178b31c76be1cb284c2",
      "transactionType": "CALL",
      "contractName": null,
      "contractAddress": "0x00f1600c1fb79a28efb64180b064958387e24a15",
      "function": "createMarket(bytes32,uint64,uint64)",
      "arguments": [
        "0x6285d67740dc5c877fc16cc3ea567ee3883a0bdcdc4cc5a456e10ed7ed888261",
        "1763636822",
        "1763637722"
      ],
      "transaction": {
        "from": "0xc5b2130f38eac51a1b93723509237572963322e9",
        "to": "0x00f1600c1fb79a28efb64180b064958387e24a15",
        "gas": "0x56e0e",
        "value": "0x0",
        "input": "0xaab38bee6285d67740dc5c877fc16cc3ea567ee3883a0bdcdc4cc5a456e10ed7ed88826100000000000000000000000000000000000000000000000000000000691ef65600000000000000000000000000000000000000000000000000000000691ef9da",
        "nonce": "0x47",
        "chainId": "0x14a34"
      },
      "additionalContracts": [
        {
          "transactionType": "CREATE",
          "contractName": null,
          "address": "0x6069f22c4a2dda35a774b594563fed825e932b65",
          "initCode": "0x3d602d80600a3d3981f3363d3d373d3d3d363d737c96173a124a502dc880727b4a25b4d058e9af125af43d82803e903d91602b57fd5bf3"
        }
      ],
      "isFixedGasLimit": false
    },
    {
      "hash": "0x963e00c1e08eee136083ecc3ac76312ebc888f609d8f9ef6282824e3358ec348",
      "transactionType": "CALL",
      "contractName": null,
      "contractAddress": "0x00f1600c1fb79a28efb64180b064958387e24a15",
      "function": "createMarket(bytes32,uint64,uint64)",
      "arguments": [
        "0x8cacaabc22b897be5ccbe7204f9f9db5bdcd77936d50694dff68ca35f45e5dd5",
        "1763636822",
        "1763637722"
      ],
      "transaction": {
        "from": "0xc5b2130f38eac51a1b93723509237572963322e9",
        "to": "0x00f1600c1fb79a28efb64180b064958387e24a15",
        "gas": "0x56e0e",
        "value": "0x0",
        "input": "0xaab38bee8cacaabc22b897be5ccbe7204f9f9db5bdcd77936d50694dff68ca35f45e5dd500000000000000000000000000000000000000000000000000000000691ef65600000000000000000000000000000000000000000000000000000000691ef9da",
        "nonce": "0x48",
        "chainId": "0x14a34"
      },
      "additionalContracts": [
        {
          "transactionType": "CREATE",
          "contractName": null,
          "address": "0xb7b8d8db367e9fd6e450e5acb7c659e21d0c165f",
          "initCode": "0x3d602d80600a3d3981f3363d3d373d3d3d363d737c96173a124a502dc880727b4a25b4d058e9af125af43d82803e903d91602b57fd5bf3"
        }
      ],
      "isFixedGasLimit": false
    },
    {
      "hash": "0x3b2ebbb94e04ebd5e1dd37584ac33d6e9d9cd2cd0f90bcd7b5c3fc2226b81db6",
      "transactionType": "CALL",
      "contractName": null,
      "contractAddress": "0x00f1600c1fb79a28efb64180b064958387e24a15",
      "function": "createMarket(bytes32,uint64,uint64)",
      "arguments": [
        "0x8e5283e622e0afb672856a77c8f43d7a888f8bfaaac1584564aae5c2d0902d99",
        "1763636822",
        "1763637722"
      ],
      "transaction": {
        "from": "0xc5b2130f38eac51a1b93723509237572963322e9",
        "to": "0x00f1600c1fb79a28efb64180b064958387e24a15",
        "gas": "0x56e0e",
        "value": "0x0",
        "input": "0xaab38bee8e5283e622e0afb672856a77c8f43d7a888f8bfaaac1584564aae5c2d0902d9900000000000000000000000000000000000000000000000000000000691ef65600000000000000000000000000000000000000000000000000000000691ef9da",
        "nonce": "0x49",
        "chainId": "0x14a34"
      },
      "additionalContracts": [
        {
          "transactionType": "CREATE",
          "contractName": null,
          "address": "0xaa5f7ff0234e083b9faea2deb683ac45ed556819",
          "initCode": "0x3d602d80600a3d3981f3363d3d373d3d3d363d737c96173a124a502dc880727b4a25b4d058e9af125af43d82803e903d91602b57fd5bf3"
        }
      ],
      "isFixedGasLimit": false
    },
    {
      "hash": "0x0f09ca061913379f4a66a0b3214ac75ccfef0ea95c7176f1df781ea57f6e19d3",
      "transactionType": "CALL",
      "contractName": null,
      "contractAddress": "0x00f1600c1fb79a28efb64180b064958387e24a15",
      "function": "createMarket(bytes32,uint64,uint64)",
      "arguments": [
        "0x9bd2cc2886f7e32780df083afd294b619f876948fb23f450e99be69b46510714",
        "1763636822",
        "1763637722"
      ],
      "transaction": {
        "from": "0xc5b2130f38eac51a1b93723509237572963322e9",
        "to": "0x00f1600c1fb79a28efb64180b064958387e24a15",
        "gas": "0x56e0e",
        "value": "0x0",
        "input": "0xaab38bee9bd2cc2886f7e32780df083afd294b619f876948fb23f450e99be69b4651071400000000000000000000000000000000000000000000000000000000691ef65600000000000000000000000000000000000000000000000000000000691ef9da",
        "nonce": "0x4a",
        "chainId": "0x14a34"
      },
      "additionalContracts": [
        {
          "transactionType": "CREATE",
          "contractName": null,
          "address": "0xed23ce17a4999939c91d26d20cb50ff4801a4645",
          "initCode": "0x3d602d80600a3d3981f3363d3d373d3d3d363d737c96173a124a502dc880727b4a25b4d058e9af125af43d82803e903d91602b57fd5bf3"
        }
      ],
      "isFixedGasLimit": false
    }
  ],
  "receipts": [
    {
      "status": "0x1",
      "cumulativeGasUsed": "0xdc38f7",
      "logs": [
        {
          "address": "0x00f1600c1fb79a28efb64180b064958387e24a15",
          "topics": [
            "0x375b93db8e087a80beb91d1a191dd247767bb9df982963a9868fc739edf1f8c6",
            "0x00000000000000000000000026e190338bae68408bbef007821163e330b2b0e4",
            "0x1ba10790e187b571f52f8fe6cd53050b32ab48c1c1b419b0ab2cc0074fb6ba2e"
          ],
          "data": "0x00000000000000000000000000000000000000000000000000000000691ef65600000000000000000000000000000000000000000000000000000000691ef9da",
          "blockHash": "0x9ab23f9882165a36b31e96472984e004547051767ac8d51b1c3e9ac2c8408a01",
          "blockNumber": "0x2052302",
          "blockTimestamp": "0x691da4e4",
          "transactionHash": "0x1c03b798bec89ab3277b51adc1ba0d06f368f24a8c0c96de798c5608a0a9d8ff",
          "transactionIndex": "0x19",
          "logIndex": "0xf5",
          "removed": false
        }
      ],
      "logsBloom": "0x00000000000000000000000020000000040000000000000000000000800000000000000400000000000000000000000000000000000000000000000014000000000000000000000000000200000000000000000000000000000000000000000000000000000000000000000000000000000000000000000000000000000000000000000000000000000004000000000000000000000000000000000000000000000000000000080000000000000000000000020000000010000000000000000000000000000000000000000000000000000000000000000000000000000000000000000000000000000000000000000800000000000000000000000000000000",
      "type": "0x2",
      "transactionHash": "0x1c03b798bec89ab3277b51adc1ba0d06f368f24a8c0c96de798c5608a0a9d8ff",
      "transactionIndex": "0x19",
      "blockHash": "0x9ab23f9882165a36b31e96472984e004547051767ac8d51b1c3e9ac2c8408a01",
      "blockNumber": "0x2052302",
      "gasUsed": "0x3ee60",
      "effectiveGasPrice": "0xf428a",
      "from": "0xc5b2130f38eac51a1b93723509237572963322e9",
      "to": "0x00f1600c1fb79a28efb64180b064958387e24a15",
      "contractAddress": null,
      "l1BaseFeeScalar": "0x44d",
      "l1BlobBaseFee": "0x1",
      "l1BlobBaseFeeScalar": "0xa118b",
      "l1Fee": "0x5c",
      "l1GasPrice": "0xf",
      "l1GasUsed": "0x640"
    },
    {
      "status": "0x1",
      "cumulativeGasUsed": "0xe02757",
      "logs": [
        {
          "address": "0x00f1600c1fb79a28efb64180b064958387e24a15",
          "topics": [
            "0x375b93db8e087a80beb91d1a191dd247767bb9df982963a9868fc739edf1f8c6",
            "0x000000000000000000000000bab09b05c79667ba66c1c788f633806e84f3fa0f",
            "0xc480f85b5c0c99c32fd756ea807d09257c512e3e5cb86f6d747526440b89e2e6"
          ],
          "data": "0x00000000000000000000000000000000000000000000000000000000691ef65600000000000000000000000000000000000000000000000000000000691ef9da",
          "blockHash": "0x9ab23f9882165a36b31e96472984e004547051767ac8d51b1c3e9ac2c8408a01",
          "blockNumber": "0x2052302",
          "blockTimestamp": "0x691da4e4",
          "transactionHash": "0xd4a6268d6e6c913f36a4aff5ae10c6e3bc7bb4a8aeef4b7e2629b9a218e6385d",
          "transactionIndex": "0x1a",
          "logIndex": "0xf6",
          "removed": false
        }
      ],
      "logsBloom": "0x00000800000000000000000000000000040000000000000000000000000000000000000000000000000000000000000000000000000000000000000014000000000000000000000000000000000000000000000000000000000000000000000000000000000000000000000000000000000000000000002000000000000000000000000000000000000004000000400000000008000000000000000000000000000000000000080000000000000000000000000000000010000000000000000000000000000000000000000000000010000000000000000000000000000004000000000000000000000000000000000000000000000000000000000000000000",
      "type": "0x2",
      "transactionHash": "0xd4a6268d6e6c913f36a4aff5ae10c6e3bc7bb4a8aeef4b7e2629b9a218e6385d",
      "transactionIndex": "0x1a",
      "blockHash": "0x9ab23f9882165a36b31e96472984e004547051767ac8d51b1c3e9ac2c8408a01",
      "blockNumber": "0x2052302",
      "gasUsed": "0x3ee60",
      "effectiveGasPrice": "0xf428a",
      "from": "0xc5b2130f38eac51a1b93723509237572963322e9",
      "to": "0x00f1600c1fb79a28efb64180b064958387e24a15",
      "contractAddress": null,
      "l1BaseFeeScalar": "0x44d",
      "l1BlobBaseFee": "0x1",
      "l1BlobBaseFeeScalar": "0xa118b",
      "l1Fee": "0x5c",
      "l1GasPrice": "0xf",
      "l1GasUsed": "0x640"
    },
    {
      "status": "0x1",
      "cumulativeGasUsed": "0xe415b7",
      "logs": [
        {
          "address": "0x00f1600c1fb79a28efb64180b064958387e24a15",
          "topics": [
            "0x375b93db8e087a80beb91d1a191dd247767bb9df982963a9868fc739edf1f8c6",
            "0x000000000000000000000000002b23d9931faaea543899461a7babd571a22b5b",
            "0x68d256d68c89b50557d978496c6e88704295f277586b908743ada182c2eeb8ae"
          ],
          "data": "0x00000000000000000000000000000000000000000000000000000000691ef65600000000000000000000000000000000000000000000000000000000691ef9da",
          "blockHash": "0x9ab23f9882165a36b31e96472984e004547051767ac8d51b1c3e9ac2c8408a01",
          "blockNumber": "0x2052302",
          "blockTimestamp": "0x691da4e4",
          "transactionHash": "0xdbd4db1086b18bfeb355b55647bfe0a66afc7bf0b8cf4606402441d206516a8f",
          "transactionIndex": "0x1b",
          "logIndex": "0xf7",
          "removed": false
        }
      ],
      "logsBloom": "0x00000000000000000000000000000000040000000000000000000000000000000000000000000000000000000000000000000000000000000000000014000000000200000000000000000000000000000000000000000000000000000000000200000000000000000000000000000000000000000000000004000000000000000000000000100000000004000000000000000000000000000000000000000000000000000000080000000000000000000000000000020010000000000000000000000000000000000000000000000000000000000000000000000000000000000000000000000000000000080000000000000000000000000000000000000000",
      "type": "0x2",
      "transactionHash": "0xdbd4db1086b18bfeb355b55647bfe0a66afc7bf0b8cf4606402441d206516a8f",
      "transactionIndex": "0x1b",
      "blockHash": "0x9ab23f9882165a36b31e96472984e004547051767ac8d51b1c3e9ac2c8408a01",
      "blockNumber": "0x2052302",
      "gasUsed": "0x3ee60",
      "effectiveGasPrice": "0xf428a",
      "from": "0xc5b2130f38eac51a1b93723509237572963322e9",
      "to": "0x00f1600c1fb79a28efb64180b064958387e24a15",
      "contractAddress": null,
      "l1BaseFeeScalar": "0x44d",
      "l1BlobBaseFee": "0x1",
      "l1BlobBaseFeeScalar": "0xa118b",
      "l1Fee": "0x5c",
      "l1GasPrice": "0xf",
      "l1GasUsed": "0x640"
    },
    {
      "status": "0x1",
      "cumulativeGasUsed": "0xe80417",
      "logs": [
        {
          "address": "0x00f1600c1fb79a28efb64180b064958387e24a15",
          "topics": [
            "0x375b93db8e087a80beb91d1a191dd247767bb9df982963a9868fc739edf1f8c6",
            "0x0000000000000000000000009578d080baaeab2634c38e3cc65f2f1800eaf0d8",
            "0x784eaf060382bdae24e29c38cd4ff20ee6c186a12dd048a26efddd62fb6aeeb2"
          ],
          "data": "0x00000000000000000000000000000000000000000000000000000000691ef65600000000000000000000000000000000000000000000000000000000691ef9da",
          "blockHash": "0x9ab23f9882165a36b31e96472984e004547051767ac8d51b1c3e9ac2c8408a01",
          "blockNumber": "0x2052302",
          "blockTimestamp": "0x691da4e4",
          "transactionHash": "0xd69dec8d7c757c89035057f79dcf2e11c179d0c4defb1499c567a48aa4771703",
          "transactionIndex": "0x1c",
          "logIndex": "0xf8",
          "removed": false
        }
      ],
      "logsBloom": "0x00000000000000000000000000000000040000000000000000000040000000000000000000000000000000000000000000000000000000000000000014000000000000000000000000000000000000000000000000000000000000000000000000000000000000000200000000000000000000000000000000000000000000000000000000000000008004000000000000000000000000000000000000000000001000000000080000000000002000000000000000000010000000000000000000000000000000000000000000000000000000000000000000020000000000000000000000000000000000000000000000000000000000000000000000000000",
      "type": "0x2",
      "transactionHash": "0xd69dec8d7c757c89035057f79dcf2e11c179d0c4defb1499c567a48aa4771703",
      "transactionIndex": "0x1c",
      "blockHash": "0x9ab23f9882165a36b31e96472984e004547051767ac8d51b1c3e9ac2c8408a01",
      "blockNumber": "0x2052302",
      "gasUsed": "0x3ee60",
      "effectiveGasPrice": "0xf428a",
      "from": "0xc5b2130f38eac51a1b93723509237572963322e9",
      "to": "0x00f1600c1fb79a28efb64180b064958387e24a15",
      "contractAddress": null,
      "l1BaseFeeScalar": "0x44d",
      "l1BlobBaseFee": "0x1",
      "l1BlobBaseFeeScalar": "0xa118b",
      "l1Fee": "0x5c",
      "l1GasPrice": "0xf",
      "l1GasUsed": "0x640"
    },
    {
      "status": "0x1",
      "cumulativeGasUsed": "0xebf277",
      "logs": [
        {
          "address": "0x00f1600c1fb79a28efb64180b064958387e24a15",
          "topics": [
            "0x375b93db8e087a80beb91d1a191dd247767bb9df982963a9868fc739edf1f8c6",
            "0x0000000000000000000000009aa426acd3cf7b322c2b28fa6413465387d3e63c",
            "0xebabd4426109d8c86cc918429be0a1a2f6ed2ac33f90b55b4e90f0ca3025b16d"
          ],
          "data": "0x00000000000000000000000000000000000000000000000000000000691ef65600000000000000000000000000000000000000000000000000000000691ef9da",
          "blockHash": "0x9ab23f9882165a36b31e96472984e004547051767ac8d51b1c3e9ac2c8408a01",
          "blockNumber": "0x2052302",
          "blockTimestamp": "0x691da4e4",
          "transactionHash": "0xb2fe53c173a4779ecb21f3f7408879494e49053730199ac4623e66a231bb0c9f",
          "transactionIndex": "0x1d",
          "logIndex": "0xf9",
          "removed": false
        }
      ],
      "logsBloom": "0x00000000000000000000000000000000040000000000000000000000000000000000000000000000000000000000000000000000040000000000000014000000000000000000000000000000080000000000000000000020000800000000000000000000000000000000000000000000000000000000000000000000080000000000000000000000000004000000000000000000200000000000000000000000000000000000080000000000000000000000000000000010000000000000000000000000000000000000000000000000000000000000000000000000000000000000000000000000000000000000000000000000000000000000000000000000",
      "type": "0x2",
      "transactionHash": "0xb2fe53c173a4779ecb21f3f7408879494e49053730199ac4623e66a231bb0c9f",
      "transactionIndex": "0x1d",
      "blockHash": "0x9ab23f9882165a36b31e96472984e004547051767ac8d51b1c3e9ac2c8408a01",
      "blockNumber": "0x2052302",
      "gasUsed": "0x3ee60",
      "effectiveGasPrice": "0xf428a",
      "from": "0xc5b2130f38eac51a1b93723509237572963322e9",
      "to": "0x00f1600c1fb79a28efb64180b064958387e24a15",
      "contractAddress": null,
      "l1BaseFeeScalar": "0x44d",
      "l1BlobBaseFee": "0x1",
      "l1BlobBaseFeeScalar": "0xa118b",
      "l1Fee": "0x5c",
      "l1GasPrice": "0xf",
      "l1GasUsed": "0x640"
    },
    {
      "status": "0x1",
      "cumulativeGasUsed": "0xefe0d7",
      "logs": [
        {
          "address": "0x00f1600c1fb79a28efb64180b064958387e24a15",
          "topics": [
            "0x375b93db8e087a80beb91d1a191dd247767bb9df982963a9868fc739edf1f8c6",
            "0x0000000000000000000000005ea7ae799fcf6a6096e9721272ba82fd19fdeaf1",
            "0xdc8b68373fb0407033017dcf8c3e7e3e1f800615fe72e2ca13cb9e9def26f70a"
          ],
          "data": "0x00000000000000000000000000000000000000000000000000000000691ef65600000000000000000000000000000000000000000000000000000000691ef9da",
          "blockHash": "0x9ab23f9882165a36b31e96472984e004547051767ac8d51b1c3e9ac2c8408a01",
          "blockNumber": "0x2052302",
          "blockTimestamp": "0x691da4e4",
          "transactionHash": "0xf04fea8fc27306d207b2606ea8e59a16deed3628ab4e391cd48598348c87287d",
          "transactionIndex": "0x1e",
          "logIndex": "0xfa",
          "removed": false
        }
      ],
      "logsBloom": "0x00000000000000100000000000000000040000000000000000000000000000000000000000000000000000000000000000000000000000000000000014000000000000000000000000000000000000000000000000000000000000100000000000000000000000000000000000000000000000000000000000000100000000000000000000000000000004000000000000000000000000000000000002000000000000000000080000000000000000000000000000000010000000000002000000000000000000000000000000000000000200000000000000000000000000000000000000000000000000000000000000000000000000000000000000000000",
      "type": "0x2",
      "transactionHash": "0xf04fea8fc27306d207b2606ea8e59a16deed3628ab4e391cd48598348c87287d",
      "transactionIndex": "0x1e",
      "blockHash": "0x9ab23f9882165a36b31e96472984e004547051767ac8d51b1c3e9ac2c8408a01",
      "blockNumber": "0x2052302",
      "gasUsed": "0x3ee60",
      "effectiveGasPrice": "0xf428a",
      "from": "0xc5b2130f38eac51a1b93723509237572963322e9",
      "to": "0x00f1600c1fb79a28efb64180b064958387e24a15",
      "contractAddress": null,
      "l1BaseFeeScalar": "0x44d",
      "l1BlobBaseFee": "0x1",
      "l1BlobBaseFeeScalar": "0xa118b",
      "l1Fee": "0x5c",
      "l1GasPrice": "0xf",
      "l1GasUsed": "0x640"
    },
    {
      "status": "0x1",
      "cumulativeGasUsed": "0xf3cf37",
      "logs": [
        {
          "address": "0x00f1600c1fb79a28efb64180b064958387e24a15",
          "topics": [
            "0x375b93db8e087a80beb91d1a191dd247767bb9df982963a9868fc739edf1f8c6",
            "0x0000000000000000000000006069f22c4a2dda35a774b594563fed825e932b65",
            "0xb461afe547fb6534a861bbb879a207a0b88e9638bbc31ac79c1cdf479579df6a"
          ],
          "data": "0x00000000000000000000000000000000000000000000000000000000691ef65600000000000000000000000000000000000000000000000000000000691ef9da",
          "blockHash": "0x9ab23f9882165a36b31e96472984e004547051767ac8d51b1c3e9ac2c8408a01",
          "blockNumber": "0x2052302",
          "blockTimestamp": "0x691da4e4",
          "transactionHash": "0xe44288d508b78f4c2dbb56fe227a04bdd8f945126e3e5178b31c76be1cb284c2",
          "transactionIndex": "0x1f",
          "logIndex": "0xfb",
          "removed": false
        }
      ],
      "logsBloom": "0x00000000000000000000000000000000040000000000000000000000000000000000000000000000040000000000000020000000000000000000000014000000000000000000000000000000000000000000000000000000000100000000000000000000000000000000000000000000000000000000000000000000000000000000000000000000000004000000000000000000000000000000000000000000000000000002080000000000000000000000000000000010000000000000000000000000000000000000000000000000000000000000000000000000000000000010010000000000000000000000000000000000000000000000000000000000",
      "type": "0x2",
      "transactionHash": "0xe44288d508b78f4c2dbb56fe227a04bdd8f945126e3e5178b31c76be1cb284c2",
      "transactionIndex": "0x1f",
      "blockHash": "0x9ab23f9882165a36b31e96472984e004547051767ac8d51b1c3e9ac2c8408a01",
      "blockNumber": "0x2052302",
      "gasUsed": "0x3ee60",
      "effectiveGasPrice": "0xf428a",
      "from": "0xc5b2130f38eac51a1b93723509237572963322e9",
      "to": "0x00f1600c1fb79a28efb64180b064958387e24a15",
      "contractAddress": null,
      "l1BaseFeeScalar": "0x44d",
      "l1BlobBaseFee": "0x1",
      "l1BlobBaseFeeScalar": "0xa118b",
      "l1Fee": "0x5c",
      "l1GasPrice": "0xf",
      "l1GasUsed": "0x640"
    },
    {
      "status": "0x1",
      "cumulativeGasUsed": "0xf8bf82",
      "logs": [
        {
          "address": "0x00f1600c1fb79a28efb64180b064958387e24a15",
          "topics": [
            "0x375b93db8e087a80beb91d1a191dd247767bb9df982963a9868fc739edf1f8c6",
            "0x000000000000000000000000b7b8d8db367e9fd6e450e5acb7c659e21d0c165f",
            "0x1c326c7307c6b880a7a0dfc1e03e4155d5e080c4f7beec7002ee75470877a411"
          ],
          "data": "0x00000000000000000000000000000000000000000000000000000000691ef65600000000000000000000000000000000000000000000000000000000691ef9da",
          "blockHash": "0x2a3be0a79cf012ae136dd8b449f4c17eb0dccb7497047fe62c931c0f2b518bd8",
          "blockNumber": "0x2052302",
          "blockTimestamp": "0x691da4e4",
          "transactionHash": "0x963e00c1e08eee136083ecc3ac76312ebc888f609d8f9ef6282824e3358ec348",
          "transactionIndex": "0x21",
          "logIndex": "0xfd",
          "removed": false
        }
      ],
      "logsBloom": "0x00000000000000000000000000000010040000000000000000000000000000000000000000000000000000000000000000000000002000000000000014000000000000000000000000000000000000000000000000000000000000000000000004000000000000000000000000000000000000000000000000000000000000000000000000000000000004000000000000000000000000000000000000000000000000000000080000000000400000000000000000000010000000000000000000000000000000000000000000000000002000000000000000000000000000000000000000000000000000000000100000000000000000000000000000000000",
      "type": "0x2",
      "transactionHash": "0x963e00c1e08eee136083ecc3ac76312ebc888f609d8f9ef6282824e3358ec348",
      "transactionIndex": "0x21",
      "blockHash": "0x2a3be0a79cf012ae136dd8b449f4c17eb0dccb7497047fe62c931c0f2b518bd8",
      "blockNumber": "0x2052302",
      "gasUsed": "0x3ee60",
      "effectiveGasPrice": "0xf428a",
      "from": "0xc5b2130f38eac51a1b93723509237572963322e9",
      "to": "0x00f1600c1fb79a28efb64180b064958387e24a15",
      "contractAddress": null,
      "l1BaseFeeScalar": "0x44d",
      "l1BlobBaseFee": "0x1",
      "l1BlobBaseFeeScalar": "0xa118b",
      "l1Fee": "0x7b",
      "l1GasPrice": "0xf",
      "l1GasUsed": "0x640"
    },
    {
      "status": "0x1",
      "cumulativeGasUsed": "0xfcade2",
      "logs": [
        {
          "address": "0x00f1600c1fb79a28efb64180b064958387e24a15",
          "topics": [
            "0x375b93db8e087a80beb91d1a191dd247767bb9df982963a9868fc739edf1f8c6",
            "0x000000000000000000000000aa5f7ff0234e083b9faea2deb683ac45ed556819",
            "0x4b00e5e8446c1fa0bdd8e817186796a13a24580b9c2efb742b7e37e07c2435be"
          ],
          "data": "0x00000000000000000000000000000000000000000000000000000000691ef65600000000000000000000000000000000000000000000000000000000691ef9da",
          "blockHash": "0x2a3be0a79cf012ae136dd8b449f4c17eb0dccb7497047fe62c931c0f2b518bd8",
          "blockNumber": "0x2052302",
          "blockTimestamp": "0x691da4e4",
          "transactionHash": "0x3b2ebbb94e04ebd5e1dd37584ac33d6e9d9cd2cd0f90bcd7b5c3fc2226b81db6",
          "transactionIndex": "0x22",
          "logIndex": "0xfe",
          "removed": false
        }
      ],
      "logsBloom": "0x00000000002000000000000000000000040000000000000000000000000000000000000000000000000000000000000200000000000800000000000014000000000000000000000000000000000000000000000000200000000000000000000000000000000000000000000000000000000000000000000000000000000000000000000000000000000804000000000000000000000000000000000000000000000000000000080000000000000800000000000000000010000000000000000000000000000000000000000000000000000000000000000000000000000000000000000000000000000000000000000000000000000000000000000000000000",
      "type": "0x2",
      "transactionHash": "0x3b2ebbb94e04ebd5e1dd37584ac33d6e9d9cd2cd0f90bcd7b5c3fc2226b81db6",
      "transactionIndex": "0x22",
      "blockHash": "0x2a3be0a79cf012ae136dd8b449f4c17eb0dccb7497047fe62c931c0f2b518bd8",
      "blockNumber": "0x2052302",
      "gasUsed": "0x3ee60",
      "effectiveGasPrice": "0xf428a",
      "from": "0xc5b2130f38eac51a1b93723509237572963322e9",
      "to": "0x00f1600c1fb79a28efb64180b064958387e24a15",
      "contractAddress": null,
      "l1BaseFeeScalar": "0x44d",
      "l1BlobBaseFee": "0x1",
      "l1BlobBaseFeeScalar": "0xa118b",
      "l1Fee": "0x7b",
      "l1GasPrice": "0xf",
      "l1GasUsed": "0x640"
    },
    {
      "status": "0x1",
      "cumulativeGasUsed": "0x1009c42",
      "logs": [
        {
          "address": "0x00f1600c1fb79a28efb64180b064958387e24a15",
          "topics": [
            "0x375b93db8e087a80beb91d1a191dd247767bb9df982963a9868fc739edf1f8c6",
            "0x000000000000000000000000ed23ce17a4999939c91d26d20cb50ff4801a4645",
            "0xe72c045a2556bbd4b9423e8b1d7f16cbe778c5bbeb7ffbd347d166c30d45f5cb"
          ],
          "data": "0x00000000000000000000000000000000000000000000000000000000691ef65600000000000000000000000000000000000000000000000000000000691ef9da",
          "blockHash": "0x2a3be0a79cf012ae136dd8b449f4c17eb0dccb7497047fe62c931c0f2b518bd8",
          "blockNumber": "0x2052302",
          "blockTimestamp": "0x691da4e4",
          "transactionHash": "0x0f09ca061913379f4a66a0b3214ac75ccfef0ea95c7176f1df781ea57f6e19d3",
          "transactionIndex": "0x23",
          "logIndex": "0xff",
          "removed": false
        }
      ],
      "logsBloom": "0x00000000000000004000000000000000040000000000000000000000000000000000000200000000000000000000000000000800000000000000000014000000000000000000000000000000000000000100000000000000000000000000000000000000000000000000000000000000000000000000000000000000000000000000000000000000000004000000000000000000000000000000000000000000000000000000080000000000000000000000000000000010000001000000000000000000000000000000000000000000000000000000000000000000000000000000000000000000000000000000000000000000000001000000000000000000",
      "type": "0x2",
      "transactionHash": "0x0f09ca061913379f4a66a0b3214ac75ccfef0ea95c7176f1df781ea57f6e19d3",
      "transactionIndex": "0x23",
      "blockHash": "0x2a3be0a79cf012ae136dd8b449f4c17eb0dccb7497047fe62c931c0f2b518bd8",
      "blockNumber": "0x2052302",
      "gasUsed": "0x3ee60",
      "effectiveGasPrice": "0xf428a",
      "from": "0xc5b2130f38eac51a1b93723509237572963322e9",
      "to": "0x00f1600c1fb79a28efb64180b064958387e24a15",
      "contractAddress": null,
      "l1BaseFeeScalar": "0x44d",
      "l1BlobBaseFee": "0x1",
      "l1BlobBaseFeeScalar": "0xa118b",
      "l1Fee": "0x7b",
      "l1GasPrice": "0xf",
      "l1GasUsed": "0x640"
    }
  ],
  "libraries": [],
  "pending": [],
  "returns": {},
  "timestamp": 1763550437352,
  "chain": 84532,
  "commit": "dcb7368"
}