{
  "transactions": [
    {
      "hash": "0xccadacafb2456d1997c18666b2548fe0de25f3056ab09a27a7fa5a02dce1fe51",
      "transactionType": "CALL",
      "contractName": null,
      "contractAddress": "0x93fa598a94896d78d44a14c2d3433b15f1d55e45",
      "function": "createMarket(bytes32,uint64,uint64)",
      "arguments": [
        "0xa657abfa6fd5c3d1baa39666c9aca58645641a75fedbc96d03ab50fbae0c91af",
        "1763637104",
        "1763638004"
      ],
      "transaction": {
        "from": "0xc5b2130f38eac51a1b93723509237572963322e9",
        "to": "0x93fa598a94896d78d44a14c2d3433b15f1d55e45",
        "gas": "0x56e0e",
        "value": "0x0",
        "input": "0xaab38beea657abfa6fd5c3d1baa39666c9aca58645641a75fedbc96d03ab50fbae0c91af00000000000000000000000000000000000000000000000000000000691ef77000000000000000000000000000000000000000000000000000000000691efaf4",
        "nonce": "0x5d",
        "chainId": "0x14a34"
      },
      "additionalContracts": [
        {
          "transactionType": "CREATE",
          "contractName": null,
          "address": "0xd2f756ae33cb9624af322b72cdefbcafceca3641",
          "initCode": "0x3d602d80600a3d3981f3363d3d373d3d3d363d73537f023a5192ea4c9f667c7030217cf38e6984005af43d82803e903d91602b57fd5bf3"
        }
      ],
      "isFixedGasLimit": false
    },
    {
      "hash": "0xd12acb75b49ecacee6cddbaec5682e3fa2c433e1ffca3b76f3b43cc5f838e9df",
      "transactionType": "CALL",
      "contractName": null,
      "contractAddress": "0x93fa598a94896d78d44a14c2d3433b15f1d55e45",
      "function": "createMarket(bytes32,uint64,uint64)",
      "arguments": [
        "0xd924bdab0efb38cbc4ffde3e07584f85007e2a087e5e01ac569b36e4520f8cce",
        "1763637104",
        "1763638004"
      ],
      "transaction": {
        "from": "0xc5b2130f38eac51a1b93723509237572963322e9",
        "to": "0x93fa598a94896d78d44a14c2d3433b15f1d55e45",
        "gas": "0x56dfd",
        "value": "0x0",
        "input": "0xaab38beed924bdab0efb38cbc4ffde3e07584f85007e2a087e5e01ac569b36e4520f8cce00000000000000000000000000000000000000000000000000000000691ef77000000000000000000000000000000000000000000000000000000000691efaf4",
        "nonce": "0x5e",
        "chainId": "0x14a34"
      },
      "additionalContracts": [
        {
          "transactionType": "CREATE",
          "contractName": null,
          "address": "0x04f39db6acb7a169dc6888fd3454b32adc8ffdde",
          "initCode": "0x3d602d80600a3d3981f3363d3d373d3d3d363d73537f023a5192ea4c9f667c7030217cf38e6984005af43d82803e903d91602b57fd5bf3"
        }
      ],
      "isFixedGasLimit": false
    },
    {
      "hash": "0xbc58395d6a795eac3213ff4c651ca9f990a5b8f168cb38f3a5a0520a29050968",
      "transactionType": "CALL",
      "contractName": null,
      "contractAddress": "0x93fa598a94896d78d44a14c2d3433b15f1d55e45",
      "function": "createMarket(bytes32,uint64,uint64)",
      "arguments": [
        "0xa8b6ee68ee2bef2b62e57a844c040b1a9fabe3c6e37f6913fb7588f1c35dd814",
        "1763637104",
        "1763638004"
      ],
      "transaction": {
        "from": "0xc5b2130f38eac51a1b93723509237572963322e9",
        "to": "0x93fa598a94896d78d44a14c2d3433b15f1d55e45",
        "gas": "0x56e0e",
        "value": "0x0",
        "input": "0xaab38beea8b6ee68ee2bef2b62e57a844c040b1a9fabe3c6e37f6913fb7588f1c35dd81400000000000000000000000000000000000000000000000000000000691ef77000000000000000000000000000000000000000000000000000000000691efaf4",
        "nonce": "0x5f",
        "chainId": "0x14a34"
      },
      "additionalContracts": [
        {
          "transactionType": "CREATE",
          "contractName": null,
          "address": "0xb23bde3b57cfaf0b4fd802fc1160442a4e6cf4bc",
          "initCode": "0x3d602d80600a3d3981f3363d3d373d3d3d363d73537f023a5192ea4c9f667c7030217cf38e6984005af43d82803e903d91602b57fd5bf3"
        }
      ],
      "isFixedGasLimit": false
    },
    {
      "hash": "0x3c56cadc35fc292447ddbae4b0a114c7c1aa84cc99c09b9f902d275b625308ce",
      "transactionType": "CALL",
      "contractName": null,
      "contractAddress": "0x93fa598a94896d78d44a14c2d3433b15f1d55e45",
      "function": "createMarket(bytes32,uint64,uint64)",
      "arguments": [
        "0x218bc3a80d16ae1128128fcf5b92c7bbb956b8947dc7dfa5a0834c1bc72d44e0",
        "1763637104",
        "1763638004"
      ],
      "transaction": {
        "from": "0xc5b2130f38eac51a1b93723509237572963322e9",
        "to": "0x93fa598a94896d78d44a14c2d3433b15f1d55e45",
        "gas": "0x56e0e",
        "value": "0x0",
        "input": "0xaab38bee218bc3a80d16ae1128128fcf5b92c7bbb956b8947dc7dfa5a0834c1bc72d44e000000000000000000000000000000000000000000000000000000000691ef77000000000000000000000000000000000000000000000000000000000691efaf4",
        "nonce": "0x60",
        "chainId": "0x14a34"
      },
      "additionalContracts": [
        {
          "transactionType": "CREATE",
          "contractName": null,
          "address": "0x9c9d181c36fdcd5c30198e565aecd5785b96e2bb",
          "initCode": "0x3d602d80600a3d3981f3363d3d373d3d3d363d73537f023a5192ea4c9f667c7030217cf38e6984005af43d82803e903d91602b57fd5bf3"
        }
      ],
      "isFixedGasLimit": false
    },
    {
      "hash": "0xaf7d95d3be8e6034a6d20fd094caa66cd5bd869d3081342ef27ad233b974ba49",
      "transactionType": "CALL",
      "contractName": null,
      "contractAddress": "0x93fa598a94896d78d44a14c2d3433b15f1d55e45",
      "function": "createMarket(bytes32,uint64,uint64)",
      "arguments": [
        "0xa3c012ab47c849ca743356982f314e1f81be2bd4de22e6c8518de3f378b9c1be",
        "1763637104",
        "1763638004"
      ],
      "transaction": {
        "from": "0xc5b2130f38eac51a1b93723509237572963322e9",
        "to": "0x93fa598a94896d78d44a14c2d3433b15f1d55e45",
        "gas": "0x56e0e",
        "value": "0x0",
        "input": "0xaab38beea3c012ab47c849ca743356982f314e1f81be2bd4de22e6c8518de3f378b9c1be00000000000000000000000000000000000000000000000000000000691ef77000000000000000000000000000000000000000000000000000000000691efaf4",
        "nonce": "0x61",
        "chainId": "0x14a34"
      },
      "additionalContracts": [
        {
          "transactionType": "CREATE",
          "contractName": null,
          "address": "0xdf130898fe119d6086bf7e47f94476c6ca19dc93",
          "initCode": "0x3d602d80600a3d3981f3363d3d373d3d3d363d73537f023a5192ea4c9f667c7030217cf38e6984005af43d82803e903d91602b57fd5bf3"
        }
      ],
      "isFixedGasLimit": false
    },
    {
      "hash": "0x236e47816a36db1dabe9c1aefd8b956cd1836b41643f0ded782668d1a32e5217",
      "transactionType": "CALL",
      "contractName": null,
      "contractAddress": "0x93fa598a94896d78d44a14c2d3433b15f1d55e45",
      "function": "createMarket(bytes32,uint64,uint64)",
      "arguments": [
        "0x917737875fdb2f53029c1a83c74033e5432e84530f46c3c15128d07dca8aaec4",
        "1763637104",
        "1763638004"
      ],
      "transaction": {
        "from": "0xc5b2130f38eac51a1b93723509237572963322e9",
        "to": "0x93fa598a94896d78d44a14c2d3433b15f1d55e45",
        "gas": "0x56e0e",
        "value": "0x0",
        "input": "0xaab38bee917737875fdb2f53029c1a83c74033e5432e84530f46c3c15128d07dca8aaec400000000000000000000000000000000000000000000000000000000691ef77000000000000000000000000000000000000000000000000000000000691efaf4",
        "nonce": "0x62",
        "chainId": "0x14a34"
      },
      "additionalContracts": [
        {
          "transactionType": "CREATE",
          "contractName": null,
          "address": "0x1bd508df0f425a89c67c60badd7c7727873205d4",
          "initCode": "0x3d602d80600a3d3981f3363d3d373d3d3d363d73537f023a5192ea4c9f667c7030217cf38e6984005af43d82803e903d91602b57fd5bf3"
        }
      ],
      "isFixedGasLimit": false
    },
    {
      "hash": "0x16a3b86392194600f91c379c8cfa1d8c5eeea148d0365e1ee267f27ca9ccd79e",
      "transactionType": "CALL",
      "contractName": null,
      "contractAddress": "0x93fa598a94896d78d44a14c2d3433b15f1d55e45",
      "function": "createMarket(bytes32,uint64,uint64)",
      "arguments": [
        "0xc08e66bdb2f95d00e572cfb33e94ac191dcfb5b23950feb0eb3aadbabedbfde9",
        "1763637104",
        "1763638004"
      ],
      "transaction": {
        "from": "0xc5b2130f38eac51a1b93723509237572963322e9",
        "to": "0x93fa598a94896d78d44a14c2d3433b15f1d55e45",
        "gas": "0x56dfd",
        "value": "0x0",
        "input": "0xaab38beec08e66bdb2f95d00e572cfb33e94ac191dcfb5b23950feb0eb3aadbabedbfde900000000000000000000000000000000000000000000000000000000691ef77000000000000000000000000000000000000000000000000000000000691efaf4",
        "nonce": "0x63",
        "chainId": "0x14a34"
      },
      "additionalContracts": [
        {
          "transactionType": "CREATE",
          "contractName": null,
          "address": "0xf6d707d18528950ee6ef5e9c9170cbb72d7e178f",
          "initCode": "0x3d602d80600a3d3981f3363d3d373d3d3d363d73537f023a5192ea4c9f667c7030217cf38e6984005af43d82803e903d91602b57fd5bf3"
        }
      ],
      "isFixedGasLimit": false
    },
    {
      "hash": "0x2a3f6a0f7c7eb9c98ec66e49dc4714d9e7db0e30692c8594864ab1986e4a99b7",
      "transactionType": "CALL",
      "contractName": null,
      "contractAddress": "0x93fa598a94896d78d44a14c2d3433b15f1d55e45",
      "function": "createMarket(bytes32,uint64,uint64)",
      "arguments": [
        "0x534626ba88ccade68fb89f873f803551ca2e2890e71318b7f67c80d29dc9100f",
        "1763637104",
        "1763638004"
      ],
      "transaction": {
        "from": "0xc5b2130f38eac51a1b93723509237572963322e9",
        "to": "0x93fa598a94896d78d44a14c2d3433b15f1d55e45",
        "gas": "0x56e0e",
        "value": "0x0",
        "input": "0xaab38bee534626ba88ccade68fb89f873f803551ca2e2890e71318b7f67c80d29dc9100f00000000000000000000000000000000000000000000000000000000691ef77000000000000000000000000000000000000000000000000000000000691efaf4",
        "nonce": "0x64",
        "chainId": "0x14a34"
      },
      "additionalContracts": [
        {
          "transactionType": "CREATE",
          "contractName": null,
          "address": "0x335fe5e6969cf4bcdff7f6c45a5c066b067ac5e0",
          "initCode": "0x3d602d80600a3d3981f3363d3d373d3d3d363d73537f023a5192ea4c9f667c7030217cf38e6984005af43d82803e903d91602b57fd5bf3"
        }
      ],
      "isFixedGasLimit": false
    },
    {
      "hash": "0x36b472200c7fd5f0aab75fb5c29fca558da7678a891dddbda859d53ff048b269",
      "transactionType": "CALL",
      "contractName": null,
      "contractAddress": "0x93fa598a94896d78d44a14c2d3433b15f1d55e45",
      "function": "createMarket(bytes32,uint64,uint64)",
      "arguments": [
        "0xff3c23221484561061604c139ca9407fa1b5d09c95f5917fbfe104fe44cfa93d",
        "1763637104",
        "1763638004"
      ],
      "transaction": {
        "from": "0xc5b2130f38eac51a1b93723509237572963322e9",
        "to": "0x93fa598a94896d78d44a14c2d3433b15f1d55e45",
        "gas": "0x56e0e",
        "value": "0x0",
        "input": "0xaab38beeff3c23221484561061604c139ca9407fa1b5d09c95f5917fbfe104fe44cfa93d00000000000000000000000000000000000000000000000000000000691ef77000000000000000000000000000000000000000000000000000000000691efaf4",
        "nonce": "0x65",
        "chainId": "0x14a34"
      },
      "additionalContracts": [
        {
          "transactionType": "CREATE",
          "contractName": null,
          "address": "0xca94ae1cff3539207421384d9709f6d08cf22e53",
          "initCode": "0x3d602d80600a3d3981f3363d3d373d3d3d363d73537f023a5192ea4c9f667c7030217cf38e6984005af43d82803e903d91602b57fd5bf3"
        }
      ],
      "isFixedGasLimit": false
    },
    {
      "hash": "0x6de9ca37e20e988aa6ac8fec4c6fbfce56830ff6552afefb32b2c4ce790913bd",
      "transactionType": "CALL",
      "contractName": null,
      "contractAddress": "0x93fa598a94896d78d44a14c2d3433b15f1d55e45",
      "function": "createMarket(bytes32,uint64,uint64)",
      "arguments": [
        "0xc38011821b88b784cce9921235a47f77d84f5a535977c02a63a78c9dcda9fc4e",
        "1763637104",
        "1763638004"
      ],
      "transaction": {
        "from": "0xc5b2130f38eac51a1b93723509237572963322e9",
        "to": "0x93fa598a94896d78d44a14c2d3433b15f1d55e45",
        "gas": "0x56e0e",
        "value": "0x0",
        "input": "0xaab38beec38011821b88b784cce9921235a47f77d84f5a535977c02a63a78c9dcda9fc4e00000000000000000000000000000000000000000000000000000000691ef77000000000000000000000000000000000000000000000000000000000691efaf4",
        "nonce": "0x66",
        "chainId": "0x14a34"
      },
      "additionalContracts": [
        {
          "transactionType": "CREATE",
          "contractName": null,
          "address": "0x32efffe40de010b2807c25883b575fa328214cf9",
          "initCode": "0x3d602d80600a3d3981f3363d3d373d3d3d363d73537f023a5192ea4c9f667c7030217cf38e6984005af43d82803e903d91602b57fd5bf3"
        }
      ],
      "isFixedGasLimit": false
    }
  ],
  "receipts": [
    {
      "status": "0x1",
      "cumulativeGasUsed": "0x55a0de",
      "logs": [
        {
          "address": "0x93fa598a94896d78d44a14c2d3433b15f1d55e45",
          "topics": [
            "0x375b93db8e087a80beb91d1a191dd247767bb9df982963a9868fc739edf1f8c6",
            "0x000000000000000000000000d2f756ae33cb9624af322b72cdefbcafceca3641",
            "0xbfd7f8ba0020b43a2722c69b76feb7a8f46cea603844354876c038b5129c757c"
          ],
          "data": "0x00000000000000000000000000000000000000000000000000000000691ef77000000000000000000000000000000000000000000000000000000000691efaf4",
          "blockHash": "0xebe12c3a048dedeff444acbd83a1988335758002792c3ddfcceb1c182390dc27",
          "blockNumber": "0x205238f",
          "blockTimestamp": "0x691da5fe",
          "transactionHash": "0xccadacafb2456d1997c18666b2548fe0de25f3056ab09a27a7fa5a02dce1fe51",
          "transactionIndex": "0xa",
          "logIndex": "0xa",
          "removed": false
        }
      ],
      "logsBloom": "0x00000020000000000000000000000080000000000000000000000000000000000000000000000000000000000000000000000000000000000000000014000000000000000000000000000000000000000000000000000000000000000000000000000000000000000000000000000000200000000000000000000000000000000000000000000008000000000000000000000000000000000000000000000000000000000000080000000009000000200000000000000000000000000000000000000000040000000000000000000000000000000000000000000000000000000000000000000000000000000000000000000000000004000000000000000000",
      "type": "0x2",
      "transactionHash": "0xccadacafb2456d1997c18666b2548fe0de25f3056ab09a27a7fa5a02dce1fe51",
      "transactionIndex": "0xa",
      "blockHash": "0xebe12c3a048dedeff444acbd83a1988335758002792c3ddfcceb1c182390dc27",
      "blockNumber": "0x205238f",
      "gasUsed": "0x3ee60",
      "effectiveGasPrice": "0xf4290",
      "from": "0xc5b2130f38eac51a1b93723509237572963322e9",
      "to": "0x93fa598a94896d78d44a14c2d3433b15f1d55e45",
      "contractAddress": null,
      "l1BaseFeeScalar": "0x44d",
      "l1BlobBaseFee": "0x1",
      "l1BlobBaseFeeScalar": "0xa118b",
      "l1Fee": "0xd53",
      "l1GasPrice": "0xf",
      "l1GasUsed": "0x640"
    },
    {
      "status": "0x1",
      "cumulativeGasUsed": "0x598f32",
      "logs": [
        {
          "address": "0x93fa598a94896d78d44a14c2d3433b15f1d55e45",
          "topics": [
            "0x375b93db8e087a80beb91d1a191dd247767bb9df982963a9868fc739edf1f8c6",
            "0x00000000000000000000000004f39db6acb7a169dc6888fd3454b32adc8ffdde",
            "0x4213b2177c317fcb95674262ab5e488fcaa404914f41d34c109415cbeecdba09"
          ],
          "data": "0x00000000000000000000000000000000000000000000000000000000691ef77000000000000000000000000000000000000000000000000000000000691efaf4",
          "blockHash": "0xebe12c3a048dedeff444acbd83a1988335758002792c3ddfcceb1c182390dc27",
          "blockNumber": "0x205238f",
          "blockTimestamp": "0x691da5fe",
          "transactionHash": "0xd12acb75b49ecacee6cddbaec5682e3fa2c433e1ffca3b76f3b43cc5f838e9df",
          "transactionIndex": "0xb",
          "logIndex": "0xb",
          "removed": false
        }
      ],
      "logsBloom": "0x00000020000000000000000000000000000000000000000000000000000000000000000000000000000000000000000000000000000000000400000014000000000000000000000000000000000000000020000000000000000000000000000000000000000000000000000000000000000000000000000000010000000000000000000002000008000000000000000000002000000000000000000000000000000000000000080000000001000000000000000000000000000000000000000000000000000000000000000000000000000000000000000000000000000000000000000000000000000000000000000000010000000000000000000000000000",
      "type": "0x2",
      "transactionHash": "0xd12acb75b49ecacee6cddbaec5682e3fa2c433e1ffca3b76f3b43cc5f838e9df",
      "transactionIndex": "0xb",
      "blockHash": "0xebe12c3a048dedeff444acbd83a1988335758002792c3ddfcceb1c182390dc27",
      "blockNumber": "0x205238f",
      "gasUsed": "0x3ee54",
      "effectiveGasPrice": "0xf4290",
      "from": "0xc5b2130f38eac51a1b93723509237572963322e9",
      "to": "0x93fa598a94896d78d44a14c2d3433b15f1d55e45",
      "contractAddress": null,
      "l1BaseFeeScalar": "0x44d",
      "l1BlobBaseFee": "0x1",
      "l1BlobBaseFeeScalar": "0xa118b",
      "l1Fee": "0xd53",
      "l1GasPrice": "0xf",
      "l1GasUsed": "0x640"
    },
    {
      "status": "0x1",
      "cumulativeGasUsed": "0x5d7d92",
      "logs": [
        {
          "address": "0x93fa598a94896d78d44a14c2d3433b15f1d55e45",
          "topics": [
            "0x375b93db8e087a80beb91d1a191dd247767bb9df982963a9868fc739edf1f8c6",
            "0x000000000000000000000000b23bde3b57cfaf0b4fd802fc1160442a4e6cf4bc",
            "0xce6f836e7f7cd5b6c8e49e70dc45926b20b66f26507ae900797182ca14357872"
          ],
          "data": "0x00000000000000000000000000000000000000000000000000000000691ef77000000000000000000000000000000000000000000000000000000000691efaf4",
          "blockHash": "0xebe12c3a048dedeff444acbd83a1988335758002792c3ddfcceb1c182390dc27",
          "blockNumber": "0x205238f",
          "blockTimestamp": "0x691da5fe",
          "transactionHash": "0xbc58395d6a795eac3213ff4c651ca9f990a5b8f168cb38f3a5a0520a29050968",
          "transactionIndex": "0xc",
          "logIndex": "0xc",
          "removed": false
        }
      ],
      "logsBloom": "0x00000020000000000000000000000000100000000000000000000000000000000000000080000000000000000000000000000000000000000000000014000000000000000000000000000010000000000000000000040000000000000000000000000000000000000000000000000000000000000000000000000000000000000000000000000008000000000000000000000000000000000000000000000000000000000000080000000001000000000000000000000000000000000000000000000000000000000000000010000000000000002000000000000000000000000000000000000000000000000000000000000000000000000000000000000000",
      "type": "0x2",
      "transactionHash": "0xbc58395d6a795eac3213ff4c651ca9f990a5b8f168cb38f3a5a0520a29050968",
      "transactionIndex": "0xc",
      "blockHash": "0xebe12c3a048dedeff444acbd83a1988335758002792c3ddfcceb1c182390dc27",
      "blockNumber": "0x205238f",
      "gasUsed": "0x3ee60",
      "effectiveGasPrice": "0xf4290",
      "from": "0xc5b2130f38eac51a1b93723509237572963322e9",
      "to": "0x93fa598a94896d78d44a14c2d3433b15f1d55e45",
      "contractAddress": null,
      "l1BaseFeeScalar": "0x44d",
      "l1BlobBaseFee": "0x1",
      "l1BlobBaseFeeScalar": "0xa118b",
      "l1Fee": "0xd53",
      "l1GasPrice": "0xf",
      "l1GasUsed": "0x640"
    },
    {
      "status": "0x1",
      "cumulativeGasUsed": "0x616bf2",
      "logs": [
        {
          "address": "0x93fa598a94896d78d44a14c2d3433b15f1d55e45",
          "topics": [
            "0x375b93db8e087a80beb91d1a191dd247767bb9df982963a9868fc739edf1f8c6",
            "0x0000000000000000000000009c9d181c36fdcd5c30198e565aecd5785b96e2bb",
            "0x6c55490e9805778fcd546e2325b93f09c8120be9898ab74240c3c6e44ee22fae"
          ],
          "data": "0x00000000000000000000000000000000000000000000000000000000691ef77000000000000000000000000000000000000000000000000000000000691efaf4",
          "blockHash": "0xebe12c3a048dedeff444acbd83a1988335758002792c3ddfcceb1c182390dc27",
          "blockNumber": "0x205238f",
          "blockTimestamp": "0x691da5fe",
          "transactionHash": "0x3c56cadc35fc292447ddbae4b0a114c7c1aa84cc99c09b9f902d275b625308ce",
          "transactionIndex": "0xd",
          "logIndex": "0xd",
          "removed": false
        }
      ],
      "logsBloom": "0x00000020000000000000000000000000000000020000000000000000000000000000000000000000000000000000010000000000000000000000000014000000000000000000000000000000000000000000000000000000000000000000000000000000000000000000000000000000000000000000000000000000000000002000000000000008000000000000000000000000000000000000000000000000000000000000080000000001000000000000000000000000000000000000000000000000000000000001000000000000000000000000000000000000000000000000004000000000000000002000000000000000000000000000000000000000",
      "type": "0x2",
      "transactionHash": "0x3c56cadc35fc292447ddbae4b0a114c7c1aa84cc99c09b9f902d275b625308ce",
      "transactionIndex": "0xd",
      "blockHash": "0xebe12c3a048dedeff444acbd83a1988335758002792c3ddfcceb1c182390dc27",
      "blockNumber": "0x205238f",
      "gasUsed": "0x3ee60",
      "effectiveGasPrice": "0xf4290",
      "from": "0xc5b2130f38eac51a1b93723509237572963322e9",
      "to": "0x93fa598a94896d78d44a14c2d3433b15f1d55e45",
      "contractAddress": null,
      "l1BaseFeeScalar": "0x44d",
      "l1BlobBaseFee": "0x1",
      "l1BlobBaseFeeScalar": "0xa118b",
      "l1Fee": "0xd53",
      "l1GasPrice": "0xf",
      "l1GasUsed": "0x640"
    },
    {
      "status": "0x1",
      "cumulativeGasUsed": "0x655a52",
      "logs": [
        {
          "address": "0x93fa598a94896d78d44a14c2d3433b15f1d55e45",
          "topics": [
            "0x375b93db8e087a80beb91d1a191dd247767bb9df982963a9868fc739edf1f8c6",
            "0x000000000000000000000000df130898fe119d6086bf7e47f94476c6ca19dc93",
            "0xb4c973e77844e8af67c3fac6120096ec2ae8b68e6d1be8a5112ecb5a1feb530c"
          ],
          "data": "0x00000000000000000000000000000000000000000000000000000000691ef77000000000000000000000000000000000000000000000000000000000691efaf4",
          "blockHash": "0xebe12c3a048dedeff444acbd83a1988335758002792c3ddfcceb1c182390dc27",
          "blockNumber": "0x205238f",
          "blockTimestamp": "0x691da5fe",
          "transactionHash": "0xaf7d95d3be8e6034a6d20fd094caa66cd5bd869d3081342ef27ad233b974ba49",
          "transactionIndex": "0xe",
          "logIndex": "0xe",
          "removed": false
        }
      ],
      "logsBloom": "0x00000020080000000000000000000000000000000000000000000000000000000000000000000000000000000000000000000000000000000000000014000000000000000000000000000000000000000000000000010000000000000000080800000000000000000000000000000000000000000000000000000000000000000000000000000008000000000000000000000000000000000020000000000000000000000000080000000001000000000000000000000000000000000000000000000000000000000000000000000000000000000000000000000000000000000000000000000000000000000000000000000000000000000000200000000000",
      "type": "0x2",
      "transactionHash": "0xaf7d95d3be8e6034a6d20fd094caa66cd5bd869d3081342ef27ad233b974ba49",
      "transactionIndex": "0xe",
      "blockHash": "0xebe12c3a048dedeff444acbd83a1988335758002792c3ddfcceb1c182390dc27",
      "blockNumber": "0x205238f",
      "gasUsed": "0x3ee60",
      "effectiveGasPrice": "0xf4290",
      "from": "0xc5b2130f38eac51a1b93723509237572963322e9",
      "to": "0x93fa598a94896d78d44a14c2d3433b15f1d55e45",
      "contractAddress": null,
      "l1BaseFeeScalar": "0x44d",
      "l1BlobBaseFee": "0x1",
      "l1BlobBaseFeeScalar": "0xa118b",
      "l1Fee": "0xd53",
      "l1GasPrice": "0xf",
      "l1GasUsed": "0x640"
    },
    {
      "status": "0x1",
      "cumulativeGasUsed": "0x6948b2",
      "logs": [
        {
          "address": "0x93fa598a94896d78d44a14c2d3433b15f1d55e45",
          "topics": [
            "0x375b93db8e087a80beb91d1a191dd247767bb9df982963a9868fc739edf1f8c6",
            "0x0000000000000000000000001bd508df0f425a89c67c60badd7c7727873205d4",
            "0x61a172611b6c3c7da8091fcda1d2504b700eb4cd33e5d060d03c406db472ea40"
          ],
          "data": "0x00000000000000000000000000000000000000000000000000000000691ef77000000000000000000000000000000000000000000000000000000000691efaf4",
          "blockHash": "0xebe12c3a048dedeff444acbd83a1988335758002792c3ddfcceb1c182390dc27",
          "blockNumber": "0x205238f",
          "blockTimestamp": "0x691da5fe",
          "transactionHash": "0x236e47816a36db1dabe9c1aefd8b956cd1836b41643f0ded782668d1a32e5217",
          "transactionIndex": "0xf",
          "logIndex": "0xf",
          "removed": false
        }
      ],
      "logsBloom": "0x00000020000000000000000000000000000000000000000000000000000000000000000000000000000000000000000000000000000000000000000014000000000000000000008000000000000000000000000000000000000000000008000000000800000004000000000000000000000000000000000020000000000000000000000000000008000000000000000000000000000000000000000000000200000000000000080000000001000000000000000000000000000000000000000000000000000000000000000000000000000000000000000000000000000000000000000000000000000000000000000000000000000000000000000000000000",
      "type": "0x2",
      "transactionHash": "0x236e47816a36db1dabe9c1aefd8b956cd1836b41643f0ded782668d1a32e5217",
      "transactionIndex": "0xf",
      "blockHash": "0xebe12c3a048dedeff444acbd83a1988335758002792c3ddfcceb1c182390dc27",
      "blockNumber": "0x205238f",
      "gasUsed": "0x3ee60",
      "effectiveGasPrice": "0xf4290",
      "from": "0xc5b2130f38eac51a1b93723509237572963322e9",
      "to": "0x93fa598a94896d78d44a14c2d3433b15f1d55e45",
      "contractAddress": null,
      "l1BaseFeeScalar": "0x44d",
      "l1BlobBaseFee": "0x1",
      "l1BlobBaseFeeScalar": "0xa118b",
      "l1Fee": "0xd53",
      "l1GasPrice": "0xf",
      "l1GasUsed": "0x640"
    },
    {
      "status": "0x1",
      "cumulativeGasUsed": "0x6d3706",
      "logs": [
        {
          "address": "0x93fa598a94896d78d44a14c2d3433b15f1d55e45",
          "topics": [
            "0x375b93db8e087a80beb91d1a191dd247767bb9df982963a9868fc739edf1f8c6",
            "0x000000000000000000000000f6d707d18528950ee6ef5e9c9170cbb72d7e178f",
            "0xd59355a19b9bd7cd9e656e410276ba50e75182c307bd1c105f2dbb1c536139e9"
          ],
          "data": "0x00000000000000000000000000000000000000000000000000000000691ef77000000000000000000000000000000000000000000000000000000000691efaf4",
          "blockHash": "0xebe12c3a048dedeff444acbd83a1988335758002792c3ddfcceb1c182390dc27",
          "blockNumber": "0x205238f",
          "blockTimestamp": "0x691da5fe",
          "transactionHash": "0x16a3b86392194600f91c379c8cfa1d8c5eeea148d0365e1ee267f27ca9ccd79e",
          "transactionIndex": "0x10",
          "logIndex": "0x10",
          "removed": false
        }
      ],
      "logsBloom": "0x00000020000000000000000000000000000000000000000000000000000000000000000002000000000000000040000000000000000000000000008014000000000000000000000000000000000000000010010000000000000000000000000000000000000000000000000000000000000000000000000000000000000000000000000800000008000000000000000000000000000000000000000000000000000000000000080000000001000000000000000000000000000000000000000000000000000000000000000000000000000000000000000000000000000000000000000000000000000000000000000000000000000000000000000000000000",
      "type": "0x2",
      "transactionHash": "0x16a3b86392194600f91c379c8cfa1d8c5eeea148d0365e1ee267f27ca9ccd79e",
      "transactionIndex": "0x10",
      "blockHash": "0xebe12c3a048dedeff444acbd83a1988335758002792c3ddfcceb1c182390dc27",
      "blockNumber": "0x205238f",
      "gasUsed": "0x3ee54",
      "effectiveGasPrice": "0xf4290",
      "from": "0xc5b2130f38eac51a1b93723509237572963322e9",
      "to": "0x93fa598a94896d78d44a14c2d3433b15f1d55e45",
      "contractAddress": null,
      "l1BaseFeeScalar": "0x44d",
      "l1BlobBaseFee": "0x1",
      "l1BlobBaseFeeScalar": "0xa118b",
      "l1Fee": "0xd53",
      "l1GasPrice": "0xf",
      "l1GasUsed": "0x640"
    },
    {
      "status": "0x1",
      "cumulativeGasUsed": "0x712566",
      "logs": [
        {
          "address": "0x93fa598a94896d78d44a14c2d3433b15f1d55e45",
          "topics": [
            "0x375b93db8e087a80beb91d1a191dd247767bb9df982963a9868fc739edf1f8c6",
            "0x000000000000000000000000335fe5e6969cf4bcdff7f6c45a5c066b067ac5e0",
            "0xe707dc17f9e9097183be781891e8896892f659888b5e914baf71187d34d22a9f"
          ],
          "data": "0x00000000000000000000000000000000000000000000000000000000691ef77000000000000000000000000000000000000000000000000000000000691efaf4",
          "blockHash": "0xebe12c3a048dedeff444acbd83a1988335758002792c3ddfcceb1c182390dc27",
          "blockNumber": "0x205238f",
          "blockTimestamp": "0x691da5fe",
          "transactionHash": "0x2a3f6a0f7c7eb9c98ec66e49dc4714d9e7db0e30692c8594864ab1986e4a99b7",
          "transactionIndex": "0x11",
          "logIndex": "0x11",
          "removed": false
        }
      ],
      "logsBloom": "0x00000020000000000000000000000000000000000000000000000000000000000000000000000000000000000000000000000000000000000000000014000000000000000000000004000000000000000000000000000000001000000000000000000000000000000000000000000000000000000000000000000000000000000000000000000008000000040000000000000000000000200000000000000000000000000000080000000001000000000000000000000000000000000000000000000000000000000800000000000000000000000000000000000004000000000000000000000000000000000000000000000000000000000000000000000000",
      "type": "0x2",
      "transactionHash": "0x2a3f6a0f7c7eb9c98ec66e49dc4714d9e7db0e30692c8594864ab1986e4a99b7",
      "transactionIndex": "0x11",
      "blockHash": "0xebe12c3a048dedeff444acbd83a1988335758002792c3ddfcceb1c182390dc27",
      "blockNumber": "0x205238f",
      "gasUsed": "0x3ee60",
      "effectiveGasPrice": "0xf4290",
      "from": "0xc5b2130f38eac51a1b93723509237572963322e9",
      "to": "0x93fa598a94896d78d44a14c2d3433b15f1d55e45",
      "contractAddress": null,
      "l1BaseFeeScalar": "0x44d",
      "l1BlobBaseFee": "0x1",
      "l1BlobBaseFeeScalar": "0xa118b",
      "l1Fee": "0xd53",
      "l1GasPrice": "0xf",
      "l1GasUsed": "0x640"
    },
    {
      "status": "0x1",
      "cumulativeGasUsed": "0x7513c6",
      "logs": [
        {
          "address": "0x93fa598a94896d78d44a14c2d3433b15f1d55e45",
          "topics": [
            "0x375b93db8e087a80beb91d1a191dd247767bb9df982963a9868fc739edf1f8c6",
            "0x000000000000000000000000ca94ae1cff3539207421384d9709f6d08cf22e53",
            "0xd929600295ca32fe1967bd8d0320be8d8ad721b238b008e37a2313440caa3e22"
          ],
          "data": "0x00000000000000000000000000000000000000000000000000000000691ef77000000000000000000000000000000000000000000000000000000000691efaf4",
          "blockHash": "0xebe12c3a048dedeff444acbd83a1988335758002792c3ddfcceb1c182390dc27",
          "blockNumber": "0x205238f",
          "blockTimestamp": "0x691da5fe",
          "transactionHash": "0x36b472200c7fd5f0aab75fb5c29fca558da7678a891dddbda859d53ff048b269",
          "transactionIndex": "0x12",
          "logIndex": "0x12",
          "removed": false
        }
      ],
      "logsBloom": "0x00000020000000000000000000000000000000000000000000000000000000000000000000000000000000000000000000000000000000000000000014000000000000000000000000000000000000000000000010000000000000000000000000000000000000000000000000000000000000000000000000000000000000000000000002000008004000000000000000000000020000000000000000000000000000000000080000000001000000000000000000000000000000000000000800000000000000000000000000000000000000000000000000000000000000000800000000000000000000000000000000000000000000000000000000000000",
      "type": "0x2",
      "transactionHash": "0x36b472200c7fd5f0aab75fb5c29fca558da7678a891dddbda859d53ff048b269",
      "transactionIndex": "0x12",
      "blockHash": "0xebe12c3a048dedeff444acbd83a1988335758002792c3ddfcceb1c182390dc27",
      "blockNumber": "0x205238f",
      "gasUsed": "0x3ee60",
      "effectiveGasPrice": "0xf4290",
      "from": "0xc5b2130f38eac51a1b93723509237572963322e9",
      "to": "0x93fa598a94896d78d44a14c2d3433b15f1d55e45",
      "contractAddress": null,
      "l1BaseFeeScalar": "0x44d",
      "l1BlobBaseFee": "0x1",
      "l1BlobBaseFeeScalar": "0xa118b",
      "l1Fee": "0xd53",
      "l1GasPrice": "0xf",
      "l1GasUsed": "0x640"
    },
    {
      "status": "0x1",
      "cumulativeGasUsed": "0x790226",
      "logs": [
        {
          "address": "0x93fa598a94896d78d44a14c2d3433b15f1d55e45",
          "topics": [
            "0x375b93db8e087a80beb91d1a191dd247767bb9df982963a9868fc739edf1f8c6",
            "0x00000000000000000000000032efffe40de010b2807c25883b575fa328214cf9",
            "0xd6ace6eac40f1736f1a5738991862ed0f9a818b16f20fa3e1bc33479cea64029"
          ],
          "data": "0x00000000000000000000000000000000000000000000000000000000691ef77000000000000000000000000000000000000000000000000000000000691efaf4",
          "blockHash": "0xebe12c3a048dedeff444acbd83a1988335758002792c3ddfcceb1c182390dc27",
          "blockNumber": "0x205238f",
          "blockTimestamp": "0x691da5fe",
          "transactionHash": "0x6de9ca37e20e988aa6ac8fec4c6fbfce56830ff6552afefb32b2c4ce790913bd",
          "transactionIndex": "0x13",
          "logIndex": "0x13",
          "removed": false
        }
      ],
      "logsBloom": "0x00000020000000000000000000000000000000000000000000000000000000000000000000000000000004000000000000000000000000000000000014000000000000000000000000000000000000000000000000000000000000000000000000008000000000000000000000000010000000000000000000000000000000000800000000000008000000000000000000000000000000000000000000000000000000000000080000000001000000000000000000000000000000080000000000000000000000000000000000000000000000000000000000000200000000000000000000000000000000000000000000000000000000000000000000000000",
      "type": "0x2",
      "transactionHash": "0x6de9ca37e20e988aa6ac8fec4c6fbfce56830ff6552afefb32b2c4ce790913bd",
      "transactionIndex": "0x13",
      "blockHash": "0xebe12c3a048dedeff444acbd83a1988335758002792c3ddfcceb1c182390dc27",
      "blockNumber": "0x205238f",
      "gasUsed": "0x3ee60",
      "effectiveGasPrice": "0xf4290",
      "from": "0xc5b2130f38eac51a1b93723509237572963322e9",
      "to": "0x93fa598a94896d78d44a14c2d3433b15f1d55e45",
      "contractAddress": null,
      "l1BaseFeeScalar": "0x44d",
      "l1BlobBaseFee": "0x1",
      "l1BlobBaseFeeScalar": "0xa118b",
      "l1Fee": "0xd53",
      "l1GasPrice": "0xf",
      "l1GasUsed": "0x640"
    }
  ],
  "libraries": [],
  "pending": [],
  "returns": {},
  "timestamp": 1763550717960,
  "chain": 84532,
  "commit": "dcb7368"
}