{
  "transactions": [
    {
      "hash": "0x8edc15ec56e2aa8f92a47de1db448ddb81fe4cfe1d42323bec26eb71c070fdd0",
      "transactionType": "CALL",
      "contractName": null,
      "contractAddress": "0x4001a3e460308f96bc92c9f0058ac73c787dffe2",
      "function": "createMarket(bytes32,uint64,uint64)",
      "arguments": [
        "0x8ecdf69a61a6314532219c577097f89ac5e940121f484c14f9b6e03d52d565b8",
        "1763637376",
        "1763638276"
      ],
      "transaction": {
        "from": "0xc5b2130f38eac51a1b93723509237572963322e9",
        "to": "0x4001a3e460308f96bc92c9f0058ac73c787dffe2",
        "gas": "0x56e0e",
        "value": "0x0",
        "input": "0xaab38bee8ecdf69a61a6314532219c577097f89ac5e940121f484c14f9b6e03d52d565b800000000000000000000000000000000000000000000000000000000691ef88000000000000000000000000000000000000000000000000000000000691efc04",
        "nonce": "0x6b",
        "chainId": "0x14a34"
      },
      "additionalContracts": [
        {
          "transactionType": "CREATE",
          "contractName": null,
          "address": "0x36d66b5b33d149b49bffc328399ec1ef3f527c81",
          "initCode": "0x3d602d80600a3d3981f3363d3d373d3d3d363d7317202f473229c2db7765fb74cc41a70673ca71f15af43d82803e903d91602b57fd5bf3"
        }
      ],
      "isFixedGasLimit": false
    },
    {
      "hash": "0x0413901b163153fc995ee9a4f47c60125ce1b69340e798c955ebb2171ec8543f",
      "transactionType": "CALL",
      "contractName": null,
      "contractAddress": "0x4001a3e460308f96bc92c9f0058ac73c787dffe2",
      "function": "createMarket(bytes32,uint64,uint64)",
      "arguments": [
        "0x36d584d33af41e8aa3171a06286f6e6f5142ba2cbd09d9bb49c026667c43c419",
        "1763637376",
        "1763638276"
      ],
      "transaction": {
        "from": "0xc5b2130f38eac51a1b93723509237572963322e9",
        "to": "0x4001a3e460308f96bc92c9f0058ac73c787dffe2",
        "gas": "0x56e0e",
        "value": "0x0",
        "input": "0xaab38bee36d584d33af41e8aa3171a06286f6e6f5142ba2cbd09d9bb49c026667c43c41900000000000000000000000000000000000000000000000000000000691ef88000000000000000000000000000000000000000000000000000000000691efc04",
        "nonce": "0x6c",
        "chainId": "0x14a34"
      },
      "additionalContracts": [
        {
          "transactionType": "CREATE",
          "contractName": null,
          "address": "0x50049b2b6e6b6baaf0764a93cc49a81b50bb2a2b",
          "initCode": "0x3d602d80600a3d3981f3363d3d373d3d3d363d7317202f473229c2db7765fb74cc41a70673ca71f15af43d82803e903d91602b57fd5bf3"
        }
      ],
      "isFixedGasLimit": false
    },
    {
      "hash": "0x8dfd23786c724d105d6d5cd501d1de86b0898e663a14f695e5c9837111c2a00e",
      "transactionType": "CALL",
      "contractName": null,
      "contractAddress": "0x4001a3e460308f96bc92c9f0058ac73c787dffe2",
      "function": "createMarket(bytes32,uint64,uint64)",
      "arguments": [
        "0xd0a469f183955addacfb404e780b913eb9da37be6e97329df41d4d1e7fb54efa",
        "1763637376",
        "1763638276"
      ],
      "transaction": {
        "from": "0xc5b2130f38eac51a1b93723509237572963322e9",
        "to": "0x4001a3e460308f96bc92c9f0058ac73c787dffe2",
        "gas": "0x56e0e",
        "value": "0x0",
        "input": "0xaab38beed0a469f183955addacfb404e780b913eb9da37be6e97329df41d4d1e7fb54efa00000000000000000000000000000000000000000000000000000000691ef88000000000000000000000000000000000000000000000000000000000691efc04",
        "nonce": "0x6d",
        "chainId": "0x14a34"
      },
      "additionalContracts": [
        {
          "transactionType": "CREATE",
          "contractName": null,
          "address": "0x2e81c815582e65dfd4a3da5186548ce349caf89b",
          "initCode": "0x3d602d80600a3d3981f3363d3d373d3d3d363d7317202f473229c2db7765fb74cc41a70673ca71f15af43d82803e903d91602b57fd5bf3"
        }
      ],
      "isFixedGasLimit": false
    },
    {
      "hash": "0x709eac12dc295cfc70824f1e51aec14e3c6a9d191ec415bd345aecc272295a16",
      "transactionType": "CALL",
      "contractName": null,
      "contractAddress": "0x4001a3e460308f96bc92c9f0058ac73c787dffe2",
      "function": "createMarket(bytes32,uint64,uint64)",
      "arguments": [
        "0x753eb47a293fe668b32146340e1fdcb642fa94f6094714d16979af07dad6d56e",
        "1763637376",
        "1763638276"
      ],
      "transaction": {
        "from": "0xc5b2130f38eac51a1b93723509237572963322e9",
        "to": "0x4001a3e460308f96bc92c9f0058ac73c787dffe2",
        "gas": "0x56e0e",
        "value": "0x0",
        "input": "0xaab38bee753eb47a293fe668b32146340e1fdcb642fa94f6094714d16979af07dad6d56e00000000000000000000000000000000000000000000000000000000691ef88000000000000000000000000000000000000000000000000000000000691efc04",
        "nonce": "0x6e",
        "chainId": "0x14a34"
      },
      "additionalContracts": [
        {
          "transactionType": "CREATE",
          "contractName": null,
          "address": "0x9571b79721eaf7c78916a02af31ebe29258af8f6",
          "initCode": "0x3d602d80600a3d3981f3363d3d373d3d3d363d7317202f473229c2db7765fb74cc41a70673ca71f15af43d82803e903d91602b57fd5bf3"
        }
      ],
      "isFixedGasLimit": false
    },
    {
      "hash": "0x8d6e2e839d0b79315b5369f887116796bfdf869f6892f5729e72ee9e21904662",
      "transactionType": "CALL",
      "contractName": null,
      "contractAddress": "0x4001a3e460308f96bc92c9f0058ac73c787dffe2",
      "function": "createMarket(bytes32,uint64,uint64)",
      "arguments": [
        "0x9bd533e5611d43fccee9e6e0a5fdd54de17311a2290579dab7d55b7c8e107a2f",
        "1763637376",
        "1763638276"
      ],
      "transaction": {
        "from": "0xc5b2130f38eac51a1b93723509237572963322e9",
        "to": "0x4001a3e460308f96bc92c9f0058ac73c787dffe2",
        "gas": "0x56e0e",
        "value": "0x0",
        "input": "0xaab38bee9bd533e5611d43fccee9e6e0a5fdd54de17311a2290579dab7d55b7c8e107a2f00000000000000000000000000000000000000000000000000000000691ef88000000000000000000000000000000000000000000000000000000000691efc04",
        "nonce": "0x6f",
        "chainId": "0x14a34"
      },
      "additionalContracts": [
        {
          "transactionType": "CREATE",
          "contractName": null,
          "address": "0xf580e39b8c96f33c575ec638adbcabf252c319c2",
          "initCode": "0x3d602d80600a3d3981f3363d3d373d3d3d363d7317202f473229c2db7765fb74cc41a70673ca71f15af43d82803e903d91602b57fd5bf3"
        }
      ],
      "isFixedGasLimit": false
    },
    {
      "hash": "0x9f7354cb87eadaaeb210c1a3c9dcec977aadfdcd58e8365dbb36caed3ccb7a38",
      "transactionType": "CALL",
      "contractName": null,
      "contractAddress": "0x4001a3e460308f96bc92c9f0058ac73c787dffe2",
      "function": "createMarket(bytes32,uint64,uint64)",
      "arguments": [
        "0x1ca651ea7f38fd8cd7bcf2493553d234561150818835aa2df871ab26d2200c49",
        "1763637376",
        "1763638276"
      ],
      "transaction": {
        "from": "0xc5b2130f38eac51a1b93723509237572963322e9",
        "to": "0x4001a3e460308f96bc92c9f0058ac73c787dffe2",
        "gas": "0x56e0e",
        "value": "0x0",
        "input": "0xaab38bee1ca651ea7f38fd8cd7bcf2493553d234561150818835aa2df871ab26d2200c4900000000000000000000000000000000000000000000000000000000691ef88000000000000000000000000000000000000000000000000000000000691efc04",
        "nonce": "0x70",
        "chainId": "0x14a34"
      },
      "additionalContracts": [
        {
          "transactionType": "CREATE",
          "contractName": null,
          "address": "0x2bb8797a33a6bb90145237f57764c474955e7ce0",
          "initCode": "0x3d602d80600a3d3981f3363d3d373d3d3d363d7317202f473229c2db7765fb74cc41a70673ca71f15af43d82803e903d91602b57fd5bf3"
        }
      ],
      "isFixedGasLimit": false
    },
    {
      "hash": "0xe66e6ede31783f54558a88573b0cd520a56a9a6581ae563efe5f64bd201c34bc",
      "transactionType": "CALL",
      "contractName": null,
      "contractAddress": "0x4001a3e460308f96bc92c9f0058ac73c787dffe2",
      "function": "createMarket(bytes32,uint64,uint64)",
      "arguments": [
        "0x7cf6c4ede1d1666a3be07e7be9484abe7c29d0cab1fff075e1e49665f6538093",
        "1763637376",
        "1763638276"
      ],
      "transaction": {
        "from": "0xc5b2130f38eac51a1b93723509237572963322e9",
        "to": "0x4001a3e460308f96bc92c9f0058ac73c787dffe2",
        "gas": "0x56e0e",
        "value": "0x0",
        "input": "0xaab38bee7cf6c4ede1d1666a3be07e7be9484abe7c29d0cab1fff075e1e49665f653809300000000000000000000000000000000000000000000000000000000691ef88000000000000000000000000000000000000000000000000000000000691efc04",
        "nonce": "0x71",
        "chainId": "0x14a34"
      },
      "additionalContracts": [
        {
          "transactionType": "CREATE",
          "contractName": null,
          "address": "0x1df805c39f542fe952db399a3d1544e99bf41dab",
          "initCode": "0x3d602d80600a3d3981f3363d3d373d3d3d363d7317202f473229c2db7765fb74cc41a70673ca71f15af43d82803e903d91602b57fd5bf3"
        }
      ],
      "isFixedGasLimit": false
    },
    {
      "hash": "0x4b35e992f2c17158edd0c1b7bef2f9558092924e814587472e1585c50a60b6a5",
      "transactionType": "CALL",
      "contractName": null,
      "contractAddress": "0x4001a3e460308f96bc92c9f0058ac73c787dffe2",
      "function": "createMarket(bytes32,uint64,uint64)",
      "arguments": [
        "0x5870b5fc61e25cba69a2d71286ba904cc403bd8e2ff925997d995b4fd4920b03",
        "1763637376",
        "1763638276"
      ],
      "transaction": {
        "from": "0xc5b2130f38eac51a1b93723509237572963322e9",
        "to": "0x4001a3e460308f96bc92c9f0058ac73c787dffe2",
        "gas": "0x56e0e",
        "value": "0x0",
        "input": "0xaab38bee5870b5fc61e25cba69a2d71286ba904cc403bd8e2ff925997d995b4fd4920b0300000000000000000000000000000000000000000000000000000000691ef88000000000000000000000000000000000000000000000000000000000691efc04",
        "nonce": "0x72",
        "chainId": "0x14a34"
      },
      "additionalContracts": [
        {
          "transactionType": "CREATE",
          "contractName": null,
          "address": "0x433fcc20abb491be6234ab4ad91b7b9bf0b07888",
          "initCode": "0x3d602d80600a3d3981f3363d3d373d3d3d363d7317202f473229c2db7765fb74cc41a70673ca71f15af43d82803e903d91602b57fd5bf3"
        }
      ],
      "isFixedGasLimit": false
    },
    {
      "hash": "0x93a0d58206abcd50214b6ae41f94a0f14fd02becee6ab28995fd7e33522427eb",
      "transactionType": "CALL",
      "contractName": null,
      "contractAddress": "0x4001a3e460308f96bc92c9f0058ac73c787dffe2",
      "function": "createMarket(bytes32,uint64,uint64)",
      "arguments": [
        "0xc7a4fcff7a387be545873a663629d5406acbc1bea80d103348a42abf51a06c6b",
        "1763637376",
        "1763638276"
      ],
      "transaction": {
        "from": "0xc5b2130f38eac51a1b93723509237572963322e9",
        "to": "0x4001a3e460308f96bc92c9f0058ac73c787dffe2",
        "gas": "0x56e0e",
        "value": "0x0",
        "input": "0xaab38beec7a4fcff7a387be545873a663629d5406acbc1bea80d103348a42abf51a06c6b00000000000000000000000000000000000000000000000000000000691ef88000000000000000000000000000000000000000000000000000000000691efc04",
        "nonce": "0x73",
        "chainId": "0x14a34"
      },
      "additionalContracts": [
        {
          "transactionType": "CREATE",
          "contractName": null,
          "address": "0x5d9dd1577b216e554d7839551f5c306f5ab4e0de",
          "initCode": "0x3d602d80600a3d3981f3363d3d373d3d3d363d7317202f473229c2db7765fb74cc41a70673ca71f15af43d82803e903d91602b57fd5bf3"
        }
      ],
      "isFixedGasLimit": false
    },
    {
      "hash": "0x5e7eee0f7ac8b5b97f4b24f91e137e68e8970a91800792ac1691aac157312219",
      "transactionType": "CALL",
      "contractName": null,
      "contractAddress": "0x4001a3e460308f96bc92c9f0058ac73c787dffe2",
      "function": "createMarket(bytes32,uint64,uint64)",
      "arguments": [
        "0x8636fec142d04d9ed143ea48feb07cac67fa1a4bed445a1e485deb2ee6b9e04f",
        "1763637376",
        "1763638276"
      ],
      "transaction": {
        "from": "0xc5b2130f38eac51a1b93723509237572963322e9",
        "to": "0x4001a3e460308f96bc92c9f0058ac73c787dffe2",
        "gas": "0x56e0e",
        "value": "0x0",
        "input": "0xaab38bee8636fec142d04d9ed143ea48feb07cac67fa1a4bed445a1e485deb2ee6b9e04f00000000000000000000000000000000000000000000000000000000691ef88000000000000000000000000000000000000000000000000000000000691efc04",
        "nonce": "0x74",
        "chainId": "0x14a34"
      },
      "additionalContracts": [
        {
          "transactionType": "CREATE",
          "contractName": null,
          "address": "0x676729704d8359ead28c83cf7a6e0676411d53ee",
          "initCode": "0x3d602d80600a3d3981f3363d3d373d3d3d363d7317202f473229c2db7765fb74cc41a70673ca71f15af43d82803e903d91602b57fd5bf3"
        }
      ],
      "isFixedGasLimit": false
    }
  ],
  "receipts": [
    {
      "status": "0x1",
      "cumulativeGasUsed": "0x4a27c",
      "logs": [
        {
          "address": "0x4001a3e460308f96bc92c9f0058ac73c787dffe2",
          "topics": [
            "0x375b93db8e087a80beb91d1a191dd247767bb9df982963a9868fc739edf1f8c6",
            "0x00000000000000000000000036d66b5b33d149b49bffc328399ec1ef3f527c81",
            "0xa36ed54b41135f7089f15d811e8589196af4f9bf2168bf8a0c58304babf085e2"
          ],
          "data": "0x00000000000000000000000000000000000000000000000000000000691ef88000000000000000000000000000000000000000000000000000000000691efc04",
          "blockHash": "0x2b4ccf7c39eb330efe4300242e5d5b748deed46b15469da763315fe9e658be8c",
          "blockNumber": "0x2052418",
          "blockTimestamp": "0x691da710",
          "transactionHash": "0x8edc15ec56e2aa8f92a47de1db448ddb81fe4cfe1d42323bec26eb71c070fdd0",
          "transactionIndex": "0x1",
          "logIndex": "0x0",
          "removed": false
        }
      ],
      "logsBloom": "0x00000000000000000000000000000000000002000000000000000000000000000000000000000000000000000000000000000000000000000000000014000000000000000000000000000000000000000000000000010000000000000000000000000000000000000000000000000000000000000000000000000000000000000000000000000000004000000000000000000000000000010000000000000000000000000000080000000000000000000000000000000000000000280000000000000000000000000000000000000000000080000000000000000000000000000000000000001000000000000000000000000000000000001000000000000000",
      "type": "0x2",
      "transactionHash": "0x8edc15ec56e2aa8f92a47de1db448ddb81fe4cfe1d42323bec26eb71c070fdd0",
      "transactionIndex": "0x1",
      "blockHash": "0x2b4ccf7c39eb330efe4300242e5d5b748deed46b15469da763315fe9e658be8c",
      "blockNumber": "0x2052418",
      "gasUsed": "0x3ee60",
      "effectiveGasPrice": "0xf42d3",
      "from": "0xc5b2130f38eac51a1b93723509237572963322e9",
      "to": "0x4001a3e460308f96bc92c9f0058ac73c787dffe2",
      "contractAddress": null,
      "l1BaseFeeScalar": "0x44d",
      "l1BlobBaseFee": "0x1",
      "l1BlobBaseFeeScalar": "0xa118b",
      "l1Fee": "0x61",
      "l1GasPrice": "0x12",
      "l1GasUsed": "0x640"
    },
    {
      "status": "0x1",
      "cumulativeGasUsed": "0x890dc",
      "logs": [
        {
          "address": "0x4001a3e460308f96bc92c9f0058ac73c787dffe2",
          "topics": [
            "0x375b93db8e087a80beb91d1a191dd247767bb9df982963a9868fc739edf1f8c6",
            "0x00000000000000000000000050049b2b6e6b6baaf0764a93cc49a81b50bb2a2b",
            "0xeb86daa5ae85c0fa28fc37eefeeba8bb8525c117e3d02f8b9c59445bfaa7448f"
          ],
          "data": "0x00000000000000000000000000000000000000000000000000000000691ef88000000000000000000000000000000000000000000000000000000000691efc04",
          "blockHash": "0x2b4ccf7c39eb330efe4300242e5d5b748deed46b15469da763315fe9e658be8c",
          "blockNumber": "0x2052418",
          "blockTimestamp": "0x691da710",
          "transactionHash": "0x0413901b163153fc995ee9a4f47c60125ce1b69340e798c955ebb2171ec8543f",
          "transactionIndex": "0x2",
          "logIndex": "0x1",
          "removed": false
        }
      ],
      "logsBloom": "0x00000000000000000000000000000000000002000000000000000000000000200000000000000000000000000000000000000000000000000008000014000000000000000000000000000000000000000000000000010000000000000000000000000000000000000000000000000000000000000000000000000000000000000000000000000000000080000000000000000000000000010000000000000000000000000000080000000000000000000000000010000000000000000000000000000000000000000000000000000000000000040000000000000000000000000000000000000000010000000000000000000000000000000000000000000000",
      "type": "0x2",
      "transactionHash": "0x0413901b163153fc995ee9a4f47c60125ce1b69340e798c955ebb2171ec8543f",
      "transactionIndex": "0x2",
      "blockHash": "0x2b4ccf7c39eb330efe4300242e5d5b748deed46b15469da763315fe9e658be8c",
      "blockNumber": "0x2052418",
      "gasUsed": "0x3ee60",
      "effectiveGasPrice": "0xf42d3",
      "from": "0xc5b2130f38eac51a1b93723509237572963322e9",
      "to": "0x4001a3e460308f96bc92c9f0058ac73c787dffe2",
      "contractAddress": null,
      "l1BaseFeeScalar": "0x44d",
      "l1BlobBaseFee": "0x1",
      "l1BlobBaseFeeScalar": "0xa118b",
      "l1Fee": "0x61",
      "l1GasPrice": "0x12",
      "l1GasUsed": "0x640"
    },
    {
      "status": "0x1",
      "cumulativeGasUsed": "0xc7f3c",
      "logs": [
        {
          "address": "0x4001a3e460308f96bc92c9f0058ac73c787dffe2",
          "topics": [
            "0x375b93db8e087a80beb91d1a191dd247767bb9df982963a9868fc739edf1f8c6",
            "0x0000000000000000000000002e81c815582e65dfd4a3da5186548ce349caf89b",
            "0x28ad3cde92b406c98152e83607daa4689b48484286e3ff38af6706253db083f9"
          ],
          "data": "0x00000000000000000000000000000000000000000000000000000000691ef88000000000000000000000000000000000000000000000000000000000691efc04",
          "blockHash": "0x2b4ccf7c39eb330efe4300242e5d5b748deed46b15469da763315fe9e658be8c",
          "blockNumber": "0x2052418",
          "blockTimestamp": "0x691da710",
          "transactionHash": "0x8dfd23786c724d105d6d5cd501d1de86b0898e663a14f695e5c9837111c2a00e",
          "transactionIndex": "0x3",
          "logIndex": "0x2",
          "removed": false
        }
      ],
      "logsBloom": "0x00000000000000000000000000000000000002000000000000000000000000000000000000000000000000000000000000000000000000000020000014000000000000000000000000000000000000010000000000010000000000000000000000000000000000000000000000000000000000000000000000000000000000000000000000000000008000000000000000000000000000010000000000000000000000000000080000000000000000000000000000000000000000000100000000000020000000000000000000000000000000020000000000000000000000000000000000000000000000000000000000000000000000000000000000000000",
      "type": "0x2",
      "transactionHash": "0x8dfd23786c724d105d6d5cd501d1de86b0898e663a14f695e5c9837111c2a00e",
      "transactionIndex": "0x3",
      "blockHash": "0x2b4ccf7c39eb330efe4300242e5d5b748deed46b15469da763315fe9e658be8c",
      "blockNumber": "0x2052418",
      "gasUsed": "0x3ee60",
      "effectiveGasPrice": "0xf42d3",
      "from": "0xc5b2130f38eac51a1b93723509237572963322e9",
      "to": "0x4001a3e460308f96bc92c9f0058ac73c787dffe2",
      "contractAddress": null,
      "l1BaseFeeScalar": "0x44d",
      "l1BlobBaseFee": "0x1",
      "l1BlobBaseFeeScalar": "0xa118b",
      "l1Fee": "0x61",
      "l1GasPrice": "0x12",
      "l1GasUsed": "0x640"
    },
    {
      "status": "0x1",
      "cumulativeGasUsed": "0x106d9c",
      "logs": [
        {
          "address": "0x4001a3e460308f96bc92c9f0058ac73c787dffe2",
          "topics": [
            "0x375b93db8e087a80beb91d1a191dd247767bb9df982963a9868fc739edf1f8c6",
            "0x0000000000000000000000009571b79721eaf7c78916a02af31ebe29258af8f6",
            "0x22423e2296487e62b76c3f8f47a3fc16ddc270d97d6e1745dac4438e29f40780"
          ],
          "data": "0x00000000000000000000000000000000000000000000000000000000691ef88000000000000000000000000000000000000000000000000000000000691efc04",
          "blockHash": "0x2b4ccf7c39eb330efe4300242e5d5b748deed46b15469da763315fe9e658be8c",
          "blockNumber": "0x2052418",
          "blockTimestamp": "0x691da710",
          "transactionHash": "0x709eac12dc295cfc70824f1e51aec14e3c6a9d191ec415bd345aecc272295a16",
          "transactionIndex": "0x4",
          "logIndex": "0x3",
          "removed": false
        }
      ],
      "logsBloom": "0x00000000000000000000000004000000000002000000001000000000000000000000000000000000000000000000000000000000010000000000000014000000000000000000000000000000000000000000000000010000000000000000000000000000000000000000000000000000000000000000000000000000000000000000000000000000000000000000000000000000000000010000000000000000000000000000080000100000000000000000000000800000000000000000000000000000000000000000000000000000000000000000000000000000000000400000000000000000000000000000000000000000000000000000000000000000",
      "type": "0x2",
      "transactionHash": "0x709eac12dc295cfc70824f1e51aec14e3c6a9d191ec415bd345aecc272295a16",
      "transactionIndex": "0x4",
      "blockHash": "0x2b4ccf7c39eb330efe4300242e5d5b748deed46b15469da763315fe9e658be8c",
      "blockNumber": "0x2052418",
      "gasUsed": "0x3ee60",
      "effectiveGasPrice": "0xf42d3",
      "from": "0xc5b2130f38eac51a1b93723509237572963322e9",
      "to": "0x4001a3e460308f96bc92c9f0058ac73c787dffe2",
      "contractAddress": null,
      "l1BaseFeeScalar": "0x44d",
      "l1BlobBaseFee": "0x1",
      "l1BlobBaseFeeScalar": "0xa118b",
      "l1Fee": "0x61",
      "l1GasPrice": "0x12",
      "l1GasUsed": "0x640"
    },
    {
      "status": "0x1",
      "cumulativeGasUsed": "0x145bfc",
      "logs": [
        {
          "address": "0x4001a3e460308f96bc92c9f0058ac73c787dffe2",
          "topics": [
            "0x375b93db8e087a80beb91d1a191dd247767bb9df982963a9868fc739edf1f8c6",
            "0x000000000000000000000000f580e39b8c96f33c575ec638adbcabf252c319c2",
            "0x3c46c0e91ef01d6aa5a36c2ea388672b4b0b8a5699184f2c2a148bec43af80db"
          ],
          "data": "0x00000000000000000000000000000000000000000000000000000000691ef88000000000000000000000000000000000000000000000000000000000691efc04",
          "blockHash": "0x2b4ccf7c39eb330efe4300242e5d5b748deed46b15469da763315fe9e658be8c",
          "blockNumber": "0x2052418",
          "blockTimestamp": "0x691da710",
          "transactionHash": "0x8d6e2e839d0b79315b5369f887116796bfdf869f6892f5729e72ee9e21904662",
          "transactionIndex": "0x5",
          "logIndex": "0x4",
          "removed": false
        }
      ],
      "logsBloom": "0x00000000000000000000000000000000000002000000000000000000000000000000000000000000000000000000000080000000000000000000000014000800000000000000000000000000000000000000000000010000000000000000000000000002000000000000000000000000000000000000000000000000000000000000000000000000000000000000000000000000000000010000000000000004000000000000080000000000000000000000000000000000000000000000000000000000000000000000000000000000000000000000000000000000000000000020000000000000000000000000000000000000000000000000000000020000",
      "type": "0x2",
      "transactionHash": "0x8d6e2e839d0b79315b5369f887116796bfdf869f6892f5729e72ee9e21904662",
      "transactionIndex": "0x5",
      "blockHash": "0x2b4ccf7c39eb330efe4300242e5d5b748deed46b15469da763315fe9e658be8c",
      "blockNumber": "0x2052418",
      "gasUsed": "0x3ee60",
      "effectiveGasPrice": "0xf42d3",
      "from": "0xc5b2130f38eac51a1b93723509237572963322e9",
      "to": "0x4001a3e460308f96bc92c9f0058ac73c787dffe2",
      "contractAddress": null,
      "l1BaseFeeScalar": "0x44d",
      "l1BlobBaseFee": "0x1",
      "l1BlobBaseFeeScalar": "0xa118b",
      "l1Fee": "0x61",
      "l1GasPrice": "0x12",
      "l1GasUsed": "0x640"
    },
    {
      "status": "0x1",
      "cumulativeGasUsed": "0x184a5c",
      "logs": [
        {
          "address": "0x4001a3e460308f96bc92c9f0058ac73c787dffe2",
          "topics": [
            "0x375b93db8e087a80beb91d1a191dd247767bb9df982963a9868fc739edf1f8c6",
            "0x0000000000000000000000002bb8797a33a6bb90145237f57764c474955e7ce0",
            "0x23bba8328037e838706af2e6d16cacf5164905fb969d3e1c768fab523d834272"
          ],
          "data": "0x00000000000000000000000000000000000000000000000000000000691ef88000000000000000000000000000000000000000000000000000000000691efc04",
          "blockHash": "0x2b4ccf7c39eb330efe4300242e5d5b748deed46b15469da763315fe9e658be8c",
          "blockNumber": "0x2052418",
          "blockTimestamp": "0x691da710",
          "transactionHash": "0x9f7354cb87eadaaeb210c1a3c9dcec977aadfdcd58e8365dbb36caed3ccb7a38",
          "transactionIndex": "0x6",
          "logIndex": "0x5",
          "removed": false
        }
      ],
      "logsBloom": "0x00000000000000000000000000000000000002000000000000000000000000000000000000000000000000000000000000000000000000000000000014000000000000000000000000000000000000000000000000010000000000000000000000000000000000000000000000000000000000000000000000000000000010000000000008000000000000000000000000000000000000010000000000000000000000000000080000000000000000000000000000000000000000000000000400002000000000000000000000100000000000000000000000000000000000000020000000000000000000000000000000000000000000000000000000000000",
      "type": "0x2",
      "transactionHash": "0x9f7354cb87eadaaeb210c1a3c9dcec977aadfdcd58e8365dbb36caed3ccb7a38",
      "transactionIndex": "0x6",
      "blockHash": "0x2b4ccf7c39eb330efe4300242e5d5b748deed46b15469da763315fe9e658be8c",
      "blockNumber": "0x2052418",
      "gasUsed": "0x3ee60",
      "effectiveGasPrice": "0xf42d3",
      "from": "0xc5b2130f38eac51a1b93723509237572963322e9",
      "to": "0x4001a3e460308f96bc92c9f0058ac73c787dffe2",
      "contractAddress": null,
      "l1BaseFeeScalar": "0x44d",
      "l1BlobBaseFee": "0x1",
      "l1BlobBaseFeeScalar": "0xa118b",
      "l1Fee": "0x61",
      "l1GasPrice": "0x12",
      "l1GasUsed": "0x640"
    },
    {
      "status": "0x1",
      "cumulativeGasUsed": "0x1c38bc",
      "logs": [
        {
          "address": "0x4001a3e460308f96bc92c9f0058ac73c787dffe2",
          "topics": [
            "0x375b93db8e087a80beb91d1a191dd247767bb9df982963a9868fc739edf1f8c6",
            "0x0000000000000000000000001df805c39f542fe952db399a3d1544e99bf41dab",
            "0xbcd0b45cd1c3aac483ccf4c42064162a7b9a50b344184d93e4309632c24a45f0"
          ],
          "data": "0x00000000000000000000000000000000000000000000000000000000691ef88000000000000000000000000000000000000000000000000000000000691efc04",
          "blockHash": "0x2b4ccf7c39eb330efe4300242e5d5b748deed46b15469da763315fe9e658be8c",
          "blockNumber": "0x2052418",
          "blockTimestamp": "0x691da710",
          "transactionHash": "0xe66e6ede31783f54558a88573b0cd520a56a9a6581ae563efe5f64bd201c34bc",
          "transactionIndex": "0x7",
          "logIndex": "0x6",
          "removed": false
        }
      ],
      "logsBloom": "0x00000000000000000000000000000000000002000000000000000000000000000000004000000000000000000000000000000000000000000000000014000000000000000000000000000000000000000000000000810000000000000000000000000000000000000000000000000000000000000000000000000000100000000000000000000000000000000000000000000000000000010000000000000008000000000000080000000000000000000000000000000000000000000000000000000000000000000000000000000000000000000000000000000000000000000000000000400000040000000000000000000000000000000000000000000000",
      "type": "0x2",
      "transactionHash": "0xe66e6ede31783f54558a88573b0cd520a56a9a6581ae563efe5f64bd201c34bc",
      "transactionIndex": "0x7",
      "blockHash": "0x2b4ccf7c39eb330efe4300242e5d5b748deed46b15469da763315fe9e658be8c",
      "blockNumber": "0x2052418",
      "gasUsed": "0x3ee60",
      "effectiveGasPrice": "0xf42d3",
      "from": "0xc5b2130f38eac51a1b93723509237572963322e9",
      "to": "0x4001a3e460308f96bc92c9f0058ac73c787dffe2",
      "contractAddress": null,
      "l1BaseFeeScalar": "0x44d",
      "l1BlobBaseFee": "0x1",
      "l1BlobBaseFeeScalar": "0xa118b",
      "l1Fee": "0x61",
      "l1GasPrice": "0x12",
      "l1GasUsed": "0x640"
    },
    {
      "status": "0x1",
      "cumulativeGasUsed": "0x20271c",
      "logs": [
        {
          "address": "0x4001a3e460308f96bc92c9f0058ac73c787dffe2",
          "topics": [
            "0x375b93db8e087a80beb91d1a191dd247767bb9df982963a9868fc739edf1f8c6",
            "0x000000000000000000000000433fcc20abb491be6234ab4ad91b7b9bf0b07888",
            "0x4853cd481c7f9346647d065966c5531f030873be156c9eea1037c58abc3b417e"
          ],
          "data": "0x00000000000000000000000000000000000000000000000000000000691ef88000000000000000000000000000000000000000000000000000000000691efc04",
          "blockHash": "0x2b4ccf7c39eb330efe4300242e5d5b748deed46b15469da763315fe9e658be8c",
          "blockNumber": "0x2052418",
          "blockTimestamp": "0x691da710",
          "transactionHash": "0x4b35e992f2c17158edd0c1b7bef2f9558092924e814587472e1585c50a60b6a5",
          "transactionIndex": "0x8",
          "logIndex": "0x7",
          "removed": false
        }
      ],
      "logsBloom": "0x00000000000000000000000000000000000002000000000000000000000000000000000000000000000000000000000000000000001000000000000014000000000000000000000000004000000000000000000000010000000000000000000000000000000000000000000800000000000000000000000000000000000000000000000000000000000000000000000000000000000000010000000000000000000000000000080000200000040000000000000000000001000000000000000000000000000000000000000000000000000000000000000000000000000000000000000000000000000000000000000000000000000000000000000000000000",
      "type": "0x2",
      "transactionHash": "0x4b35e992f2c17158edd0c1b7bef2f9558092924e814587472e1585c50a60b6a5",
      "transactionIndex": "0x8",
      "blockHash": "0x2b4ccf7c39eb330efe4300242e5d5b748deed46b15469da763315fe9e658be8c",
      "blockNumber": "0x2052418",
      "gasUsed": "0x3ee60",
      "effectiveGasPrice": "0xf42d3",
      "from": "0xc5b2130f38eac51a1b93723509237572963322e9",
      "to": "0x4001a3e460308f96bc92c9f0058ac73c787dffe2",
      "contractAddress": null,
      "l1BaseFeeScalar": "0x44d",
      "l1BlobBaseFee": "0x1",
      "l1BlobBaseFeeScalar": "0xa118b",
      "l1Fee": "0x61",
      "l1GasPrice": "0x12",
      "l1GasUsed": "0x640"
    },
    {
      "status": "0x1",
      "cumulativeGasUsed": "0x24157c",
      "logs": [
        {
          "address": "0x4001a3e460308f96bc92c9f0058ac73c787dffe2",
          "topics": [
            "0x375b93db8e087a80beb91d1a191dd247767bb9df982963a9868fc739edf1f8c6",
            "0x0000000000000000000000005d9dd1577b216e554d7839551f5c306f5ab4e0de",
            "0xd502823f9001c972d2addbc63df5dfc7147a014283623d6cb0f56b427b04a8ba"
          ],
          "data": "0x00000000000000000000000000000000000000000000000000000000691ef88000000000000000000000000000000000000000000000000000000000691efc04",
          "blockHash": "0x2b4ccf7c39eb330efe4300242e5d5b748deed46b15469da763315fe9e658be8c",
          "blockNumber": "0x2052418",
          "blockTimestamp": "0x691da710",
          "transactionHash": "0x93a0d58206abcd50214b6ae41f94a0f14fd02becee6ab28995fd7e33522427eb",
          "transactionIndex": "0x9",
          "logIndex": "0x8",
          "removed": false
        }
      ],
      "logsBloom": "0x00000000000000000000000000000000000002004000000020000000000000000000000000000000000080000000000000000000000000000000000014000000000000000000000000000000000000000000000000010000000000000000000000000000000000000000000000000000020000000000000000000000000000000000000000000000000000000000000000000000000000010000000000000000000080000000080000000000000000000000000000000000000000000000000000000000000010000000000000000000000000000000000000000000000000000000000000000000000000000000000000000000000000000000000000000000",
      "type": "0x2",
      "transactionHash": "0x93a0d58206abcd50214b6ae41f94a0f14fd02becee6ab28995fd7e33522427eb",
      "transactionIndex": "0x9",
      "blockHash": "0x2b4ccf7c39eb330efe4300242e5d5b748deed46b15469da763315fe9e658be8c",
      "blockNumber": "0x2052418",
      "gasUsed": "0x3ee60",
      "effectiveGasPrice": "0xf42d3",
      "from": "0xc5b2130f38eac51a1b93723509237572963322e9",
      "to": "0x4001a3e460308f96bc92c9f0058ac73c787dffe2",
      "contractAddress": null,
      "l1BaseFeeScalar": "0x44d",
      "l1BlobBaseFee": "0x1",
      "l1BlobBaseFeeScalar": "0xa118b",
      "l1Fee": "0x61",
      "l1GasPrice": "0x12",
      "l1GasUsed": "0x640"
    },
    {
      "status": "0x1",
      "cumulativeGasUsed": "0x2803dc",
      "logs": [
        {
          "address": "0x4001a3e460308f96bc92c9f0058ac73c787dffe2",
          "topics": [
            "0x375b93db8e087a80beb91d1a191dd247767bb9df982963a9868fc739edf1f8c6",
            "0x000000000000000000000000676729704d8359ead28c83cf7a6e0676411d53ee",
            "0xf7220206034faf19ca61ba84f7c25e05f9ec0ba08230533916395cd03a257f98"
          ],
          "data": "0x00000000000000000000000000000000000000000000000000000000691ef88000000000000000000000000000000000000000000000000000000000691efc04",
          "blockHash": "0x2b4ccf7c39eb330efe4300242e5d5b748deed46b15469da763315fe9e658be8c",
          "blockNumber": "0x2052418",
          "blockTimestamp": "0x691da710",
          "transactionHash": "0x5e7eee0f7ac8b5b97f4b24f91e137e68e8970a91800792ac1691aac157312219",
          "transactionIndex": "0xa",
          "logIndex": "0x9",
          "removed": false
        }
      ],
      "logsBloom": "0x00000000000000000000000000000000000002100000800000000000000000000000000000000000000000000000000000000000000000000000000014000000000000000000000000000000000000000000000000010000000000000000000000000000000000008000000000000000000000000000000000000000000000000000000000000000000000000000000000000000000000010000100000000000000000000000080000000000000004000000000000000000000000000000000000000000000000000000000000000000000000010000000000000000000000000000000000000000000000000000000000000000000000000000000000000000",
      "type": "0x2",
      "transactionHash": "0x5e7eee0f7ac8b5b97f4b24f91e137e68e8970a91800792ac1691aac157312219",
      "transactionIndex": "0xa",
      "blockHash": "0x2b4ccf7c39eb330efe4300242e5d5b748deed46b15469da763315fe9e658be8c",
      "blockNumber": "0x2052418",
      "gasUsed": "0x3ee60",
      "effectiveGasPrice": "0xf42d3",
      "from": "0xc5b2130f38eac51a1b93723509237572963322e9",
      "to": "0x4001a3e460308f96bc92c9f0058ac73c787dffe2",
      "contractAddress": null,
      "l1BaseFeeScalar": "0x44d",
      "l1BlobBaseFee": "0x1",
      "l1BlobBaseFeeScalar": "0xa118b",
      "l1Fee": "0x61",
      "l1GasPrice": "0x12",
      "l1GasUsed": "0x640"
    }
  ],
  "libraries": [],
  "pending": [],
  "returns": {},
  "timestamp": 1763550990341,
  "chain": 84532,
  "commit": "dcb7368"
}