{
  "transactions": [
    {
      "hash": "0xc0fd7ff34f63bf86658d24d18a9666bcc1fd570a3e9ef45b8f3d4feef82e0989",
      "transactionType": "CALL",
      "contractName": null,
      "contractAddress": "0x365a835125ef581d5665310d3055953e671bf3af",
      "function": "createMarket(bytes32,uint64,uint64)",
      "arguments": [
        "0x9a742a6f3c9d40ae06cc7df3827d887670670a4fa584569607ebefd666affac2",
        "1763636956",
        "1763637856"
      ],
      "transaction": {
        "from": "0xc5b2130f38eac51a1b93723509237572963322e9",
        "to": "0x365a835125ef581d5665310d3055953e671bf3af",
        "gas": "0x56e0e",
        "value": "0x0",
        "input": "0xaab38bee9a742a6f3c9d40ae06cc7df3827d887670670a4fa584569607ebefd666affac200000000000000000000000000000000000000000000000000000000691ef6dc00000000000000000000000000000000000000000000000000000000691efa60",
        "nonce": "0x4f",
        "chainId": "0x14a34"
      },
      "additionalContracts": [
        {
          "transactionType": "CREATE",
          "contractName": null,
          "address": "0x79321553fc43b670e60b1e2bc8b1c8e1b6fdd318",
          "initCode": "0x3d602d80600a3d3981f3363d3d373d3d3d363d734629c3d1a08f4cc5c48ec98c9988d96ae1b6a4d95af43d82803e903d91602b57fd5bf3"
        }
      ],
      "isFixedGasLimit": false
    },
    {
      "hash": "0xab0c4e4431f70bb08502d921cf0a2880b6a05fa84497269d46873a2d6b7666e6",
      "transactionType": "CALL",
      "contractName": null,
      "contractAddress": "0x365a835125ef581d5665310d3055953e671bf3af",
      "function": "createMarket(bytes32,uint64,uint64)",
      "arguments": [
        "0x0b931bb0193e4158e99e31e7c8346b183fdb77c618bac4facfbe22e1ef526c7a",
        "1763636956",
        "1763637856"
      ],
      "transaction": {
        "from": "0xc5b2130f38eac51a1b93723509237572963322e9",
        "to": "0x365a835125ef581d5665310d3055953e671bf3af",
        "gas": "0x56e0e",
        "value": "0x0",
        "input": "0xaab38bee0b931bb0193e4158e99e31e7c8346b183fdb77c618bac4facfbe22e1ef526c7a00000000000000000000000000000000000000000000000000000000691ef6dc00000000000000000000000000000000000000000000000000000000691efa60",
        "nonce": "0x50",
        "chainId": "0x14a34"
      },
      "additionalContracts": [
        {
          "transactionType": "CREATE",
          "contractName": null,
          "address": "0xbc3a98a84e29c7eb35efcd42c760ee4241702a00",
          "initCode": "0x3d602d80600a3d3981f3363d3d373d3d3d363d734629c3d1a08f4cc5c48ec98c9988d96ae1b6a4d95af43d82803e903d91602b57fd5bf3"
        }
      ],
      "isFixedGasLimit": false
    },
    {
      "hash": "0xf161f49e22f8f12d257ab48201c8885fa0b4ed3ef1f5633c99d4d56bab58923d",
      "transactionType": "CALL",
      "contractName": null,
      "contractAddress": "0x365a835125ef581d5665310d3055953e671bf3af",
      "function": "createMarket(bytes32,uint64,uint64)",
      "arguments": [
        "0xcbbbe000c02cbe2dc06e3dd81c5085ff8e08e4dd46383c4c3f0228220355f463",
        "1763636956",
        "1763637856"
      ],
      "transaction": {
        "from": "0xc5b2130f38eac51a1b93723509237572963322e9",
        "to": "0x365a835125ef581d5665310d3055953e671bf3af",
        "gas": "0x56dfd",
        "value": "0x0",
        "input": "0xaab38beecbbbe000c02cbe2dc06e3dd81c5085ff8e08e4dd46383c4c3f0228220355f46300000000000000000000000000000000000000000000000000000000691ef6dc00000000000000000000000000000000000000000000000000000000691efa60",
        "nonce": "0x51",
        "chainId": "0x14a34"
      },
      "additionalContracts": [
        {
          "transactionType": "CREATE",
          "contractName": null,
          "address": "0xec78ea79e7b58547efa48ad8b8ce1426eaf18468",
          "initCode": "0x3d602d80600a3d3981f3363d3d373d3d3d363d734629c3d1a08f4cc5c48ec98c9988d96ae1b6a4d95af43d82803e903d91602b57fd5bf3"
        }
      ],
      "isFixedGasLimit": false
    },
    {
      "hash": "0x36f587a7d1e86e3d8be5f8c2827f0512e28c5fcd3980718b14907cb26ef920f3",
      "transactionType": "CALL",
      "contractName": null,
      "contractAddress": "0x365a835125ef581d5665310d3055953e671bf3af",
      "function": "createMarket(bytes32,uint64,uint64)",
      "arguments": [
        "0xfa317f0ca4f9b91b036c5dfcfbb22255086028927b073178222d84607e316ef2",
        "1763636956",
        "1763637856"
      ],
      "transaction": {
        "from": "0xc5b2130f38eac51a1b93723509237572963322e9",
        "to": "0x365a835125ef581d5665310d3055953e671bf3af",
        "gas": "0x56e0e",
        "value": "0x0",
        "input": "0xaab38beefa317f0ca4f9b91b036c5dfcfbb22255086028927b073178222d84607e316ef200000000000000000000000000000000000000000000000000000000691ef6dc00000000000000000000000000000000000000000000000000000000691efa60",
        "nonce": "0x52",
        "chainId": "0x14a34"
      },
      "additionalContracts": [
        {
          "transactionType": "CREATE",
          "contractName": null,
          "address": "0xf92bf61819fa9ee89414d4ee61215ead4758a1d4",
          "initCode": "0x3d602d80600a3d3981f3363d3d373d3d3d363d734629c3d1a08f4cc5c48ec98c9988d96ae1b6a4d95af43d82803e903d91602b57fd5bf3"
        }
      ],
      "isFixedGasLimit": false
    },
    {
      "hash": "0x999c3ba9e9ddb48b83d07a341865918e0bf69994821f17f811927805cef4cde7",
      "transactionType": "CALL",
      "contractName": null,
      "contractAddress": "0x365a835125ef581d5665310d3055953e671bf3af",
      "function": "createMarket(bytes32,uint64,uint64)",
      "arguments": [
        "0x12ca84e3b0b601f9251159218e2c2fb4cac435544def342d4e3e3ec1014c7dc5",
        "1763636956",
        "1763637856"
      ],
      "transaction": {
        "from": "0xc5b2130f38eac51a1b93723509237572963322e9",
        "to": "0x365a835125ef581d5665310d3055953e671bf3af",
        "gas": "0x56e0e",
        "value": "0x0",
        "input": "0xaab38bee12ca84e3b0b601f9251159218e2c2fb4cac435544def342d4e3e3ec1014c7dc500000000000000000000000000000000000000000000000000000000691ef6dc00000000000000000000000000000000000000000000000000000000691efa60",
        "nonce": "0x53",
        "chainId": "0x14a34"
      },
      "additionalContracts": [
        {
          "transactionType": "CREATE",
          "contractName": null,
          "address": "0x25336ed1bcfa507bf0b70a5118dc76d4b60d030e",
          "initCode": "0x3d602d80600a3d3981f3363d3d373d3d3d363d734629c3d1a08f4cc5c48ec98c9988d96ae1b6a4d95af43d82803e903d91602b57fd5bf3"
        }
      ],
      "isFixedGasLimit": false
    },
    {
      "hash": "0xd6f29b7b4cb72d86292cb5872f995e97a6288b911a1aab572e569a684bd9511d",
      "transactionType": "CALL",
      "contractName": null,
      "contractAddress": "0x365a835125ef581d5665310d3055953e671bf3af",
      "function": "createMarket(bytes32,uint64,uint64)",
      "arguments": [
        "0x41c8f4b884e96689b144635a49e0874fc911c068fc8c07fc5e7db23e1aec102a",
        "1763636956",
        "1763637856"
      ],
      "transaction": {
        "from": "0xc5b2130f38eac51a1b93723509237572963322e9",
        "to": "0x365a835125ef581d5665310d3055953e671bf3af",
        "gas": "0x56e0e",
        "value": "0x0",
        "input": "0xaab38bee41c8f4b884e96689b144635a49e0874fc911c068fc8c07fc5e7db23e1aec102a00000000000000000000000000000000000000000000000000000000691ef6dc00000000000000000000000000000000000000000000000000000000691efa60",
        "nonce": "0x54",
        "chainId": "0x14a34"
      },
      "additionalContracts": [
        {
          "transactionType": "CREATE",
          "contractName": null,
          "address": "0xdc4397587f6f99b521c27dc217bed139ebcfc7cc",
          "initCode": "0x3d602d80600a3d3981f3363d3d373d3d3d363d734629c3d1a08f4cc5c48ec98c9988d96ae1b6a4d95af43d82803e903d91602b57fd5bf3"
        }
      ],
      "isFixedGasLimit": false
    },
    {
      "hash": "0x9dc187fedf84a059cb1347c1e88aa6df6df3e341cb6dd43a878e767c5ffe5eca",
      "transactionType": "CALL",
      "contractName": null,
      "contractAddress": "0x365a835125ef581d5665310d3055953e671bf3af",
      "function": "createMarket(bytes32,uint64,uint64)",
      "arguments": [
        "0xe4e3107b089f59804c299c12c2e272ba1984580fb24ce99812c35b8bdfc576f9",
        "1763636956",
        "1763637856"
      ],
      "transaction": {
        "from": "0xc5b2130f38eac51a1b93723509237572963322e9",
        "to": "0x365a835125ef581d5665310d3055953e671bf3af",
        "gas": "0x56e0e",
        "value": "0x0",
        "input": "0xaab38beee4e3107b089f59804c299c12c2e272ba1984580fb24ce99812c35b8bdfc576f900000000000000000000000000000000000000000000000000000000691ef6dc00000000000000000000000000000000000000000000000000000000691efa60",
        "nonce": "0x55",
        "chainId": "0x14a34"
      },
      "additionalContracts": [
        {
          "transactionType": "CREATE",
          "contractName": null,
          "address": "0x52a72e71d0a1b58df72433498ca505999d6082eb",
          "initCode": "0x3d602d80600a3d3981f3363d3d373d3d3d363d734629c3d1a08f4cc5c48ec98c9988d96ae1b6a4d95af43d82803e903d91602b57fd5bf3"
        }
      ],
      "isFixedGasLimit": false
    },
    {
      "hash": "0x7b3f4f87c1956f8296d18a5cbaa34c96c78318d9047cc6025f59ec9b8b8cc18d",
      "transactionType": "CALL",
      "contractName": null,
      "contractAddress": "0x365a835125ef581d5665310d3055953e671bf3af",
      "function": "createMarket(bytes32,uint64,uint64)",
      "arguments": [
        "0x5eba0e6279156b57bb1573a228c1f223f094f62c48395c75e0c3d4da92846800",
        "1763636956",
        "1763637856"
      ],
      "transaction": {
        "from": "0xc5b2130f38eac51a1b93723509237572963322e9",
        "to": "0x365a835125ef581d5665310d3055953e671bf3af",
        "gas": "0x56dfd",
        "value": "0x0",
        "input": "0xaab38bee5eba0e6279156b57bb1573a228c1f223f094f62c48395c75e0c3d4da9284680000000000000000000000000000000000000000000000000000000000691ef6dc00000000000000000000000000000000000000000000000000000000691efa60",
        "nonce": "0x56",
        "chainId": "0x14a34"
      },
      "additionalContracts": [
        {
          "transactionType": "CREATE",
          "contractName": null,
          "address": "0x1a985c6749117326dddefecab6a408c8a2c7aed3",
          "initCode": "0x3d602d80600a3d3981f3363d3d373d3d3d363d734629c3d1a08f4cc5c48ec98c9988d96ae1b6a4d95af43d82803e903d91602b57fd5bf3"
        }
      ],
      "isFixedGasLimit": false
    },
    {
      "hash": "0x416e29323b18c28925cc94babe50c76a9a37f19f4fc7c1461e2d6328cd12e4eb",
      "transactionType": "CALL",
      "contractName": null,
      "contractAddress": "0x365a835125ef581d5665310d3055953e671bf3af",
      "function": "createMarket(bytes32,uint64,uint64)",
      "arguments": [
        "0x87919e59e76c79ae714109251dd5664dd0d287ac7c73f3341766b64b6b0fdbc3",
        "1763636956",
        "1763637856"
      ],
      "transaction": {
        "from": "0xc5b2130f38eac51a1b93723509237572963322e9",
        "to": "0x365a835125ef581d5665310d3055953e671bf3af",
        "gas": "0x56e0e",
        "value": "0x0",
        "input": "0xaab38bee87919e59e76c79ae714109251dd5664dd0d287ac7c73f3341766b64b6b0fdbc300000000000000000000000000000000000000000000000000000000691ef6dc00000000000000000000000000000000000000000000000000000000691efa60",
        "nonce": "0x57",
        "chainId": "0x14a34"
      },
      "additionalContracts": [
        {
          "transactionType": "CREATE",
          "contractName": null,
          "address": "0x1551a44e483ae01f044d6862e2a75d6acefeb342",
          "initCode": "0x3d602d80600a3d3981f3363d3d373d3d3d363d734629c3d1a08f4cc5c48ec98c9988d96ae1b6a4d95af43d82803e903d91602b57fd5bf3"
        }
      ],
      "isFixedGasLimit": false
    },
    {
      "hash": "0x1a065128a86bfb9747e9a8ba12d93720339a8f749c26a205e1730aacaf15d26d",
      "transactionType": "CALL",
      "contractName": null,
      "contractAddress": "0x365a835125ef581d5665310d3055953e671bf3af",
      "function": "createMarket(bytes32,uint64,uint64)",
      "arguments": [
        "0x9625768deae9f051eb4d465fe4df333020e5f7d19cdcb56d79e6f4664ca90e08",
        "1763636956",
        "1763637856"
      ],
      "transaction": {
        "from": "0xc5b2130f38eac51a1b93723509237572963322e9",
        "to": "0x365a835125ef581d5665310d3055953e671bf3af",
        "gas": "0x56e0e",
        "value": "0x0",
        "input": "0xaab38bee9625768deae9f051eb4d465fe4df333020e5f7d19cdcb56d79e6f4664ca90e0800000000000000000000000000000000000000000000000000000000691ef6dc00000000000000000000000000000000000000000000000000000000691efa60",
        "nonce": "0x58",
        "chainId": "0x14a34"
      },
      "additionalContracts": [
        {
          "transactionType": "CREATE",
          "contractName": null,
          "address": "0xfe2ed2a7b44b01be07730e017bc4faddb523acc3",
          "initCode": "0x3d602d80600a3d3981f3363d3d373d3d3d363d734629c3d1a08f4cc5c48ec98c9988d96ae1b6a4d95af43d82803e903d91602b57fd5bf3"
        }
      ],
      "isFixedGasLimit": false
    }
  ],
  "receipts": [
    {
      "status": "0x1",
      "cumulativeGasUsed": "0x15a31c1",
      "logs": [
        {
          "address": "0x365a835125ef581d5665310d3055953e671bf3af",
          "topics": [
            "0x375b93db8e087a80beb91d1a191dd247767bb9df982963a9868fc739edf1f8c6",
            "0x00000000000000000000000079321553fc43b670e60b1e2bc8b1c8e1b6fdd318",
            "0x7278b56e806be480d1fb449940936b57a5fe26bd4febe89407cc884a663cd1c9"
          ],
          "data": "0x00000000000000000000000000000000000000000000000000000000691ef6dc00000000000000000000000000000000000000000000000000000000691efa60",
          "blockHash": "0x42ceb06950eb66696873b5fa41c1b5d5129eafe2ef2be0e1c2c620757cb3dcd4",
          "blockNumber": "0x2052346",
          "blockTimestamp": "0x691da56c",
          "transactionHash": "0xc0fd7ff34f63bf86658d24d18a9666bcc1fd570a3e9ef45b8f3d4feef82e0989",
          "transactionIndex": "0x11",
          "logIndex": "0x30",
          "removed": false
        }
      ],
      "logsBloom": "0x00100000000000000000000000040000000000000000000000000000000000000000080000000000000000000000000000000000000000000000000014000000000000000000000000200000000000000000000000000020000000000000000000000000000080000000000000000000000000000000000000000000000000000000000000000000000000000000000000000000000000000000000000000000000000000000080000000000000000000000000000000000000000000000000000000000000004000000000040000000000000000000000000000000000001000000000000000000000000000000000000000000000000000000000000000000",
      "type": "0x2",
      "transactionHash": "0xc0fd7ff34f63bf86658d24d18a9666bcc1fd570a3e9ef45b8f3d4feef82e0989",
      "transactionIndex": "0x11",
      "blockHash": "0x42ceb06950eb66696873b5fa41c1b5d5129eafe2ef2be0e1c2c620757cb3dcd4",
      "blockNumber": "0x2052346",
      "gasUsed": "0x3ee60",
      "effectiveGasPrice": "0xf428b",
      "from": "0xc5b2130f38eac51a1b93723509237572963322e9",
      "to": "0x365a835125ef581d5665310d3055953e671bf3af",
      "contractAddress": null,
      "l1BaseFeeScalar": "0x44d",
      "l1BlobBaseFee": "0x1",
      "l1BlobBaseFeeScalar": "0xa118b",
      "l1Fee": "0x5c",
      "l1GasPrice": "0xf",
      "l1GasUsed": "0x640"
    },
    {
      "status": "0x1",
      "cumulativeGasUsed": "0x15e2021",
      "logs": [
        {
          "address": "0x365a835125ef581d5665310d3055953e671bf3af",
          "topics": [
            "0x375b93db8e087a80beb91d1a191dd247767bb9df982963a9868fc739edf1f8c6",
            "0x000000000000000000000000bc3a98a84e29c7eb35efcd42c760ee4241702a00",
            "0x28122dc1c7073791d06a5ba16bda5d45582229c7dfd2dd5ee3d6908ecd38a05f"
          ],
          "data": "0x00000000000000000000000000000000000000000000000000000000691ef6dc00000000000000000000000000000000000000000000000000000000691efa60",
          "blockHash": "0x42ceb06950eb66696873b5fa41c1b5d5129eafe2ef2be0e1c2c620757cb3dcd4",
          "blockNumber": "0x2052346",
          "blockTimestamp": "0x691da56c",
          "transactionHash": "0xab0c4e4431f70bb08502d921cf0a2880b6a05fa84497269d46873a2d6b7666e6",
          "transactionIndex": "0x12",
          "logIndex": "0x31",
          "removed": false
        }
      ],
      "logsBloom": "0x00000000000000000000000000000000000000000000000000000000000000000000000000000000000000000000000000000000000000000000000014000000000000040000000000200000000000000000000000000000000000020000000000000000000080000000000000000000000000000000000000000000000000000000000000001000000000000000000000000000000000000000000000000000000000020000080000000000000000000000000000000000000000000000000000000000000000000000000000000000000000000000000000000000000001000000000000000000000000002000000000000000020000000000000000000000",
      "type": "0x2",
      "transactionHash": "0xab0c4e4431f70bb08502d921cf0a2880b6a05fa84497269d46873a2d6b7666e6",
      "transactionIndex": "0x12",
      "blockHash": "0x42ceb06950eb66696873b5fa41c1b5d5129eafe2ef2be0e1c2c620757cb3dcd4",
      "blockNumber": "0x2052346",
      "gasUsed": "0x3ee60",
      "effectiveGasPrice": "0xf428b",
      "from": "0xc5b2130f38eac51a1b93723509237572963322e9",
      "to": "0x365a835125ef581d5665310d3055953e671bf3af",
      "contractAddress": null,
      "l1BaseFeeScalar": "0x44d",
      "l1BlobBaseFee": "0x1",
      "l1BlobBaseFeeScalar": "0xa118b",
      "l1Fee": "0x5c",
      "l1GasPrice": "0xf",
      "l1GasUsed": "0x640"
    },
    {
      "status": "0x1",
      "cumulativeGasUsed": "0x1620e75",
      "logs": [
        {
          "address": "0x365a835125ef581d5665310d3055953e671bf3af",
          "topics": [
            "0x375b93db8e087a80beb91d1a191dd247767bb9df982963a9868fc739edf1f8c6",
            "0x000000000000000000000000ec78ea79e7b58547efa48ad8b8ce1426eaf18468",
            "0x95be5cefc2667250ee500b0c733bb5c3764ed8b276e91332acd065aebf862130"
          ],
          "data": "0x00000000000000000000000000000000000000000000000000000000691ef6dc00000000000000000000000000000000000000000000000000000000691efa60",
          "blockHash": "0x42ceb06950eb66696873b5fa41c1b5d5129eafe2ef2be0e1c2c620757cb3dcd4",
          "blockNumber": "0x2052346",
          "blockTimestamp": "0x691da56c",
          "transactionHash": "0xf161f49e22f8f12d257ab48201c8885fa0b4ed3ef1f5633c99d4d56bab58923d",
          "transactionIndex": "0x13",
          "logIndex": "0x32",
          "removed": false
        }
      ],
      "logsBloom": "0x00000000000000000000000000000000000000000000000000000000000000000000000000000000000000000000000000000000000000000000000014000000000000000000000000200000000000000000000000000000000000000000000000000000000080000000000000000000000000000000200000000000000000000000000000000000000000000000000000000000000001000000000000000000000000020000080000000000000000000000000000000000000000000000000000008000000000000000000000000000000000000000000010000000000001000000000000000000000000000000000000000400000000000000000000000000",
      "type": "0x2",
      "transactionHash": "0xf161f49e22f8f12d257ab48201c8885fa0b4ed3ef1f5633c99d4d56bab58923d",
      "transactionIndex": "0x13",
      "blockHash": "0x42ceb06950eb66696873b5fa41c1b5d5129eafe2ef2be0e1c2c620757cb3dcd4",
      "blockNumber": "0x2052346",
      "gasUsed": "0x3ee54",
      "effectiveGasPrice": "0xf428b",
      "from": "0xc5b2130f38eac51a1b93723509237572963322e9",
      "to": "0x365a835125ef581d5665310d3055953e671bf3af",
      "contractAddress": null,
      "l1BaseFeeScalar": "0x44d",
      "l1BlobBaseFee": "0x1",
      "l1BlobBaseFeeScalar": "0xa118b",
      "l1Fee": "0x5c",
      "l1GasPrice": "0xf",
      "l1GasUsed": "0x640"
    },
    {
      "status": "0x1",
      "cumulativeGasUsed": "0x165fcd5",
      "logs": [
        {
          "address": "0x365a835125ef581d5665310d3055953e671bf3af",
          "topics": [
            "0x375b93db8e087a80beb91d1a191dd247767bb9df982963a9868fc739edf1f8c6",
            "0x000000000000000000000000f92bf61819fa9ee89414d4ee61215ead4758a1d4",
            "0x16da742409374ff11956a9502a3541c372b38ff937bf47f7b065e70ab2c8aad5"
          ],
          "data": "0x00000000000000000000000000000000000000000000000000000000691ef6dc00000000000000000000000000000000000000000000000000000000691efa60",
          "blockHash": "0x42ceb06950eb66696873b5fa41c1b5d5129eafe2ef2be0e1c2c620757cb3dcd4",
          "blockNumber": "0x2052346",
          "blockTimestamp": "0x691da56c",
          "transactionHash": "0x36f587a7d1e86e3d8be5f8c2827f0512e28c5fcd3980718b14907cb26ef920f3",
          "transactionIndex": "0x14",
          "logIndex": "0x33",
          "removed": false
        }
      ],
      "logsBloom": "0x00000010000000200000000000000000000000000000000000000000000000000000000000000000000000008000000000000000000000000000000014000000000000000000000000200000000000000000000000000000000000000000000080000000000080000000000000000000000000000000000000000000000000000000000000000000000000000000000000000000000000000000000000000000000000000000080000000000000000000000004000000000000000000000000000000000000000000000000000000000000000000000000000000000000001000000000000000000000000000000000000000000000000000000000800000000",
      "type": "0x2",
      "transactionHash": "0x36f587a7d1e86e3d8be5f8c2827f0512e28c5fcd3980718b14907cb26ef920f3",
      "transactionIndex": "0x14",
      "blockHash": "0x42ceb06950eb66696873b5fa41c1b5d5129eafe2ef2be0e1c2c620757cb3dcd4",
      "blockNumber": "0x2052346",
      "gasUsed": "0x3ee60",
      "effectiveGasPrice": "0xf428b",
      "from": "0xc5b2130f38eac51a1b93723509237572963322e9",
      "to": "0x365a835125ef581d5665310d3055953e671bf3af",
      "contractAddress": null,
      "l1BaseFeeScalar": "0x44d",
      "l1BlobBaseFee": "0x1",
      "l1BlobBaseFeeScalar": "0xa118b",
      "l1Fee": "0x5c",
      "l1GasPrice": "0xf",
      "l1GasUsed": "0x640"
    },
    {
      "status": "0x1",
      "cumulativeGasUsed": "0x169eb35",
      "logs": [
        {
          "address": "0x365a835125ef581d5665310d3055953e671bf3af",
          "topics": [
            "0x375b93db8e087a80beb91d1a191dd247767bb9df982963a9868fc739edf1f8c6",
            "0x00000000000000000000000025336ed1bcfa507bf0b70a5118dc76d4b60d030e",
            "0x393d650041b5e50829ef4c0d3e8f56c96e95fdb26f9d63ef5fd579fc7d77b0e4"
          ],
          "data": "0x00000000000000000000000000000000000000000000000000000000691ef6dc00000000000000000000000000000000000000000000000000000000691efa60",
          "blockHash": "0x42ceb06950eb66696873b5fa41c1b5d5129eafe2ef2be0e1c2c620757cb3dcd4",
          "blockNumber": "0x2052346",
          "blockTimestamp": "0x691da56c",
          "transactionHash": "0x999c3ba9e9ddb48b83d07a341865918e0bf69994821f17f811927805cef4cde7",
          "transactionIndex": "0x15",
          "logIndex": "0x34",
          "removed": false
        }
      ],
      "logsBloom": "0x00000000000000000000000040000800000000000000000000000000000000000000000000000000000000000010000000000000000000000000000014000000000000000000000000200000000000000000000000000000000000000000000000000000000080000000000000000000000000000000000000000000000000000000000000000000000000000000000000000000000000000000000000000000000000000000080000000000000000000000000000000000000000002000000000000000000000000000100000000000000000000000000000000000000001000400000000000000000000000000000000000000000000000000000000000000",
      "type": "0x2",
      "transactionHash": "0x999c3ba9e9ddb48b83d07a341865918e0bf69994821f17f811927805cef4cde7",
      "transactionIndex": "0x15",
      "blockHash": "0x42ceb06950eb66696873b5fa41c1b5d5129eafe2ef2be0e1c2c620757cb3dcd4",
      "blockNumber": "0x2052346",
      "gasUsed": "0x3ee60",
      "effectiveGasPrice": "0xf428b",
      "from": "0xc5b2130f38eac51a1b93723509237572963322e9",
      "to": "0x365a835125ef581d5665310d3055953e671bf3af",
      "contractAddress": null,
      "l1BaseFeeScalar": "0x44d",
      "l1BlobBaseFee": "0x1",
      "l1BlobBaseFeeScalar": "0xa118b",
      "l1Fee": "0x5c",
      "l1GasPrice": "0xf",
      "l1GasUsed": "0x640"
    },
    {
      "status": "0x1",
      "cumulativeGasUsed": "0x16dd995",
      "logs": [
        {
          "address": "0x365a835125ef581d5665310d3055953e671bf3af",
          "topics": [
            "0x375b93db8e087a80beb91d1a191dd247767bb9df982963a9868fc739edf1f8c6",
            "0x000000000000000000000000dc4397587f6f99b521c27dc217bed139ebcfc7cc",
            "0xadc026fec08ef6c94aae94861d2a3d42e661c7402326fcdf5da3f895b3f76b75"
          ],
          "data": "0x00000000000000000000000000000000000000000000000000000000691ef6dc00000000000000000000000000000000000000000000000000000000691efa60",
          "blockHash": "0x42ceb06950eb66696873b5fa41c1b5d5129eafe2ef2be0e1c2c620757cb3dcd4",
          "blockNumber": "0x2052346",
          "blockTimestamp": "0x691da56c",
          "transactionHash": "0xd6f29b7b4cb72d86292cb5872f995e97a6288b911a1aab572e569a684bd9511d",
          "transactionIndex": "0x16",
          "logIndex": "0x35",
          "removed": false
        }
      ],
      "logsBloom": "0x00000000000000000000000000000000000000000000000000000000000000000000000000000000000000000000000000000000000000000000000014000000000000000000000000200000000000000000000000000000000000000000000000000000000080000000000400000000000000000000000000000000000400000000000000000000000000000000000000000000000000000000000000000000000000000000081000000000000000000000000000000000000000000000000000000000000000000000000000000000000000000000000000000000000001000000000100000000000000000000000400004000000000000000000000000000",
      "type": "0x2",
      "transactionHash": "0xd6f29b7b4cb72d86292cb5872f995e97a6288b911a1aab572e569a684bd9511d",
      "transactionIndex": "0x16",
      "blockHash": "0x42ceb06950eb66696873b5fa41c1b5d5129eafe2ef2be0e1c2c620757cb3dcd4",
      "blockNumber": "0x2052346",
      "gasUsed": "0x3ee60",
      "effectiveGasPrice": "0xf428b",
      "from": "0xc5b2130f38eac51a1b93723509237572963322e9",
      "to": "0x365a835125ef581d5665310d3055953e671bf3af",
      "contractAddress": null,
      "l1BaseFeeScalar": "0x44d",
      "l1BlobBaseFee": "0x1",
      "l1BlobBaseFeeScalar": "0xa118b",
      "l1Fee": "0x5c",
      "l1GasPrice": "0xf",
      "l1GasUsed": "0x640"
    },
    {
      "status": "0x1",
      "cumulativeGasUsed": "0x171c7f5",
      "logs": [
        {
          "address": "0x365a835125ef581d5665310d3055953e671bf3af",
          "topics": [
            "0x375b93db8e087a80beb91d1a191dd247767bb9df982963a9868fc739edf1f8c6",
            "0x00000000000000000000000052a72e71d0a1b58df72433498ca505999d6082eb",
            "0x78463778c3a485eb4e2c34e8929057cb885111d5a1c2d71e4640bee6215f65ef"
          ],
          "data": "0x00000000000000000000000000000000000000000000000000000000691ef6dc00000000000000000000000000000000000000000000000000000000691efa60",
          "blockHash": "0x42ceb06950eb66696873b5fa41c1b5d5129eafe2ef2be0e1c2c620757cb3dcd4",
          "blockNumber": "0x2052346",
          "blockTimestamp": "0x691da56c",
          "transactionHash": "0x9dc187fedf84a059cb1347c1e88aa6df6df3e341cb6dd43a878e767c5ffe5eca",
          "transactionIndex": "0x17",
          "logIndex": "0x36",
          "removed": false
        }
      ],
      "logsBloom": "0x00000000000000000000000000000000000000000000000000000000000000000000000000000000000000000000000000000000000000000000000014000000000000000000000000200000000000000000000000000000000000000400000000000000000080000000000000000000000000000000000000000000000000000000000000000000000000000000000000000000000000000000000000000000000000000000080000000000000000000040000000000000000000000000000201000000000000000000000000000000000000000000000000000000000001000000000000000000010000000000000000000002000000000000000000000000",
      "type": "0x2",
      "transactionHash": "0x9dc187fedf84a059cb1347c1e88aa6df6df3e341cb6dd43a878e767c5ffe5eca",
      "transactionIndex": "0x17",
      "blockHash": "0x42ceb06950eb66696873b5fa41c1b5d5129eafe2ef2be0e1c2c620757cb3dcd4",
      "blockNumber": "0x2052346",
      "gasUsed": "0x3ee60",
      "effectiveGasPrice": "0xf428b",
      "from": "0xc5b2130f38eac51a1b93723509237572963322e9",
      "to": "0x365a835125ef581d5665310d3055953e671bf3af",
      "contractAddress": null,
      "l1BaseFeeScalar": "0x44d",
      "l1BlobBaseFee": "0x1",
      "l1BlobBaseFeeScalar": "0xa118b",
      "l1Fee": "0x5c",
      "l1GasPrice": "0xf",
      "l1GasUsed": "0x640"
    },
    {
      "status": "0x1",
      "cumulativeGasUsed": "0x1777a5e",
      "logs": [
        {
          "address": "0x365a835125ef581d5665310d3055953e671bf3af",
          "topics": [
            "0x375b93db8e087a80beb91d1a191dd247767bb9df982963a9868fc739edf1f8c6",
            "0x0000000000000000000000001a985c6749117326dddefecab6a408c8a2c7aed3",
            "0x89ed6f8bb5496ff9eecb8469fb7c4d424d46695248f491765711b08feb9d3628"
          ],
          "data": "0x00000000000000000000000000000000000000000000000000000000691ef6dc00000000000000000000000000000000000000000000000000000000691efa60",
          "blockHash": "0xe77c697aedaec732c2e35302bba43d354f147a4f5d7896a036385820e2c1bb73",
          "blockNumber": "0x2052346",
          "blockTimestamp": "0x691da56c",
          "transactionHash": "0x7b3f4f87c1956f8296d18a5cbaa34c96c78318d9047cc6025f59ec9b8b8cc18d",
          "transactionIndex": "0x19",
          "logIndex": "0x38",
          "removed": false
        }
      ],
      "logsBloom": "0x00000000000000000000000000000000000000000000000000000000000000000000000000000000000000000000000000000000000000000000000014000000000000000200000000200000000000000000000000000000000000000000000000000002000080000000000000000000000000000000000000000000000000000004000000000000000000000000000000000000000000000000000000000000000000000000080000000000000000000000020000000000000000000000000000000000000000000000000000000000000000000000000000000000200001000000000000000000000000000000000000000000000400000000000000000000",
      "type": "0x2",
      "transactionHash": "0x7b3f4f87c1956f8296d18a5cbaa34c96c78318d9047cc6025f59ec9b8b8cc18d",
      "transactionIndex": "0x19",
      "blockHash": "0xe77c697aedaec732c2e35302bba43d354f147a4f5d7896a036385820e2c1bb73",
      "blockNumber": "0x2052346",
      "gasUsed": "0x3ee54",
      "effectiveGasPrice": "0xf428b",
      "from": "0xc5b2130f38eac51a1b93723509237572963322e9",
      "to": "0x365a835125ef581d5665310d3055953e671bf3af",
      "contractAddress": null,
      "l1BaseFeeScalar": "0x44d",
      "l1BlobBaseFee": "0x1",
      "l1BlobBaseFeeScalar": "0xa118b",
      "l1Fee": "0x5c",
      "l1GasPrice": "0xf",
      "l1GasUsed": "0x640"
    },
    {
      "status": "0x1",
      "cumulativeGasUsed": "0x17b68be",
      "logs": [
        {
          "address": "0x365a835125ef581d5665310d3055953e671bf3af",
          "topics": [
            "0x375b93db8e087a80beb91d1a191dd247767bb9df982963a9868fc739edf1f8c6",
            "0x0000000000000000000000001551a44e483ae01f044d6862e2a75d6acefeb342",
            "0x86b021e12695fed3a03dd978d25fd7326f2a89ac1bc71baa7baf40224c219c3d"
          ],
          "data": "0x00000000000000000000000000000000000000000000000000000000691ef6dc00000000000000000000000000000000000000000000000000000000691efa60",
          "blockHash": "0xe77c697aedaec732c2e35302bba43d354f147a4f5d7896a036385820e2c1bb73",
          "blockNumber": "0x2052346",
          "blockTimestamp": "0x691da56c",
          "transactionHash": "0x416e29323b18c28925cc94babe50c76a9a37f19f4fc7c1461e2d6328cd12e4eb",
          "transactionIndex": "0x1a",
          "logIndex": "0x39",
          "removed": false
        }
      ],
      "logsBloom": "0x00000000000000000000000000000000000000000008000000000000000000000000000000000000000000000000000000000000000000000000000114000000000000000000000000200000000000000000000000000000000000000000000000000000000080000000000000000000000000040000000000000000000000000000000000000000000000000000000000000000000000000000000000000000000000000000080000000002000000000000000000000000000000000000000000042000000000000000000000000000000000000000000000000000000001000000000000000000000000000000000000000000000000000000000000000000",
      "type": "0x2",
      "transactionHash": "0x416e29323b18c28925cc94babe50c76a9a37f19f4fc7c1461e2d6328cd12e4eb",
      "transactionIndex": "0x1a",
      "blockHash": "0xe77c697aedaec732c2e35302bba43d354f147a4f5d7896a036385820e2c1bb73",
      "blockNumber": "0x2052346",
      "gasUsed": "0x3ee60",
      "effectiveGasPrice": "0xf428b",
      "from": "0xc5b2130f38eac51a1b93723509237572963322e9",
      "to": "0x365a835125ef581d5665310d3055953e671bf3af",
      "contractAddress": null,
      "l1BaseFeeScalar": "0x44d",
      "l1BlobBaseFee": "0x1",
      "l1BlobBaseFeeScalar": "0xa118b",
      "l1Fee": "0x5c",
      "l1GasPrice": "0xf",
      "l1GasUsed": "0x640"
    },
    {
      "status": "0x1",
      "cumulativeGasUsed": "0x17f571e",
      "logs": [
        {
          "address": "0x365a835125ef581d5665310d3055953e671bf3af",
          "topics": [
            "0x375b93db8e087a80beb91d1a191dd247767bb9df982963a9868fc739edf1f8c6",
            "0x000000000000000000000000fe2ed2a7b44b01be07730e017bc4faddb523acc3",
            "0xd8c55d3f9057790a5988efad4bee91f39eb628a7a6286add3ff228f1bfd32cf5"
          ],
          "data": "0x00000000000000000000000000000000000000000000000000000000691ef6dc00000000000000000000000000000000000000000000000000000000691efa60",
          "blockHash": "0xe77c697aedaec732c2e35302bba43d354f147a4f5d7896a036385820e2c1bb73",
          "blockNumber": "0x2052346",
          "blockTimestamp": "0x691da56c",
          "transactionHash": "0x1a065128a86bfb9747e9a8ba12d93720339a8f749c26a205e1730aacaf15d26d",
          "transactionIndex": "0x1b",
          "logIndex": "0x3a",
          "removed": false
        }
      ],
      "logsBloom": "0x00000000000000000000000000000008000000000100000000000000000000000000000000000000000000000000000000000000000000000000000014000000000000000000000000200000000000000000000000000000000000000000000000000000000080000000000000000000000000000000000000000000000000000000000000000000000000000000400000000001000000000000000000000000000000000000080000000000000000000000000000000000000000000000000000000000000000000000000000000000000000000000000000000000000001000000000000000000000080080000000000000000000000000000000000000000",
      "type": "0x2",
      "transactionHash": "0x1a065128a86bfb9747e9a8ba12d93720339a8f749c26a205e1730aacaf15d26d",
      "transactionIndex": "0x1b",
      "blockHash": "0xe77c697aedaec732c2e35302bba43d354f147a4f5d7896a036385820e2c1bb73",
      "blockNumber": "0x2052346",
      "gasUsed": "0x3ee60",
      "effectiveGasPrice": "0xf428b",
      "from": "0xc5b2130f38eac51a1b93723509237572963322e9",
      "to": "0x365a835125ef581d5665310d3055953e671bf3af",
      "contractAddress": null,
      "l1BaseFeeScalar": "0x44d",
      "l1BlobBaseFee": "0x1",
      "l1BlobBaseFeeScalar": "0xa118b",
      "l1Fee": "0x5c",
      "l1GasPrice": "0xf",
      "l1GasUsed": "0x640"
    }
  ],
  "libraries": [],
  "pending": [],
  "returns": {},
  "timestamp": 1763550571637,
  "chain": 84532,
  "commit": "dcb7368"
}