{
  "transactions": [
    {
      "hash": "0xa239dd79d0977fc90d3528c06cd7922418793a51c30f40900e55b4556dfa4ab3",
      "transactionType": "CALL",
      "contractName": null,
      "contractAddress": "0xa568b02b08417dfb6fc902a5b3f63158d47f0b46",
      "function": "createMarket(bytes32,uint64,uint64)",
      "arguments": [
        "0x97df221ebe9ad9623b2240f618c0338e5df72ee22d6179885f9c72cc899788f9",
        "1763621282",
        "1763622182"
      ],
      "transaction": {
        "from": "0xc5b2130f38eac51a1b93723509237572963322e9",
        "to": "0xa568b02b08417dfb6fc902a5b3f63158d47f0b46",
        "gas": "0x56e0e",
        "value": "0x0",
        "input": "0xaab38bee97df221ebe9ad9623b2240f618c0338e5df72ee22d6179885f9c72cc899788f900000000000000000000000000000000000000000000000000000000691eb9a200000000000000000000000000000000000000000000000000000000691ebd26",
        "nonce": "0x12",
        "chainId": "0x14a34"
      },
      "additionalContracts": [
        {
          "transactionType": "CREATE",
          "contractName": null,
          "address": "0x59bb76926893e45379c62f296e061750c98b6e9d",
          "initCode": "0x3d602d80600a3d3981f3363d3d373d3d3d363d7347952aacc94ccbccebffca43a476d4cd30c1d6d15af43d82803e903d91602b57fd5bf3"
        }
      ],
      "isFixedGasLimit": false
    },
    {
      "hash": "0x0524f307bc50f7571953db18d1a843aa5ed8ce61a2dac17e7ef605d00bff3500",
      "transactionType": "CALL",
      "contractName": null,
      "contractAddress": "0xa568b02b08417dfb6fc902a5b3f63158d47f0b46",
      "function": "createMarket(bytes32,uint64,uint64)",
      "arguments": [
        "0x3d0b8d89f5621a05faef58eb6a666fbf9f260432cc27898bf375b282b0aac969",
        "1763621282",
        "1763622182"
      ],
      "transaction": {
        "from": "0xc5b2130f38eac51a1b93723509237572963322e9",
        "to": "0xa568b02b08417dfb6fc902a5b3f63158d47f0b46",
        "gas": "0x56e0e",
        "value": "0x0",
        "input": "0xaab38bee3d0b8d89f5621a05faef58eb6a666fbf9f260432cc27898bf375b282b0aac96900000000000000000000000000000000000000000000000000000000691eb9a200000000000000000000000000000000000000000000000000000000691ebd26",
        "nonce": "0x13",
        "chainId": "0x14a34"
      },
      "additionalContracts": [
        {
          "transactionType": "CREATE",
          "contractName": null,
          "address": "0xbc603a622e7ce65eab61b93cbcf31c90f8be4b0f",
          "initCode": "0x3d602d80600a3d3981f3363d3d373d3d3d363d7347952aacc94ccbccebffca43a476d4cd30c1d6d15af43d82803e903d91602b57fd5bf3"
        }
      ],
      "isFixedGasLimit": false
    },
    {
      "hash": "0x4b1da5783461f36c9aef0db94514cc916adf70b116f6c32583a3418759e75d39",
      "transactionType": "CALL",
      "contractName": null,
      "contractAddress": "0xa568b02b08417dfb6fc902a5b3f63158d47f0b46",
      "function": "createMarket(bytes32,uint64,uint64)",
      "arguments": [
        "0x95f49a858f1350bac646ff70547b8024163edf4e0bf6598e3d51e045e97c06d0",
        "1763621282",
        "1763622182"
      ],
      "transaction": {
        "from": "0xc5b2130f38eac51a1b93723509237572963322e9",
        "to": "0xa568b02b08417dfb6fc902a5b3f63158d47f0b46",
        "gas": "0x56e0e",
        "value": "0x0",
        "input": "0xaab38bee95f49a858f1350bac646ff70547b8024163edf4e0bf6598e3d51e045e97c06d000000000000000000000000000000000000000000000000000000000691eb9a200000000000000000000000000000000000000000000000000000000691ebd26",
        "nonce": "0x14",
        "chainId": "0x14a34"
      },
      "additionalContracts": [
        {
          "transactionType": "CREATE",
          "contractName": null,
          "address": "0x153e8b1537aeb69eb26eaef70d73e29458537e81",
          "initCode": "0x3d602d80600a3d3981f3363d3d373d3d3d363d7347952aacc94ccbccebffca43a476d4cd30c1d6d15af43d82803e903d91602b57fd5bf3"
        }
      ],
      "isFixedGasLimit": false
    },
    {
      "hash": "0x89285f5be43f532a6d8a0e6316edc4076a4656b5fa0cdbe8ca2acaad43b06c24",
      "transactionType": "CALL",
      "contractName": null,
      "contractAddress": "0xa568b02b08417dfb6fc902a5b3f63158d47f0b46",
      "function": "createMarket(bytes32,uint64,uint64)",
      "arguments": [
        "0x5fe38447833ab492f61436572c813280752fdcb1ab29783b7c5b472bec6b8a1a",
        "1763621282",
        "1763622182"
      ],
      "transaction": {
        "from": "0xc5b2130f38eac51a1b93723509237572963322e9",
        "to": "0xa568b02b08417dfb6fc902a5b3f63158d47f0b46",
        "gas": "0x56e0e",
        "value": "0x0",
        "input": "0xaab38bee5fe38447833ab492f61436572c813280752fdcb1ab29783b7c5b472bec6b8a1a00000000000000000000000000000000000000000000000000000000691eb9a200000000000000000000000000000000000000000000000000000000691ebd26",
        "nonce": "0x15",
        "chainId": "0x14a34"
      },
      "additionalContracts": [
        {
          "transactionType": "CREATE",
          "contractName": null,
          "address": "0x91b62de722f3d05742a2e02a7b221bbf1941475c",
          "initCode": "0x3d602d80600a3d3981f3363d3d373d3d3d363d7347952aacc94ccbccebffca43a476d4cd30c1d6d15af43d82803e903d91602b57fd5bf3"
        }
      ],
      "isFixedGasLimit": false
    },
    {
      "hash": "0xb7cbfc217075f2ec39959ff554cd21478aef6d759c895b3a7c2beec107a31be7",
      "transactionType": "CALL",
      "contractName": null,
      "contractAddress": "0xa568b02b08417dfb6fc902a5b3f63158d47f0b46",
      "function": "createMarket(bytes32,uint64,uint64)",
      "arguments": [
        "0x85675d30bd4da9842bfbc996a929888928db0a7cf15a17ddca441cda5cf3d62f",
        "1763621282",
        "1763622182"
      ],
      "transaction": {
        "from": "0xc5b2130f38eac51a1b93723509237572963322e9",
        "to": "0xa568b02b08417dfb6fc902a5b3f63158d47f0b46",
        "gas": "0x56e0e",
        "value": "0x0",
        "input": "0xaab38bee85675d30bd4da9842bfbc996a929888928db0a7cf15a17ddca441cda5cf3d62f00000000000000000000000000000000000000000000000000000000691eb9a200000000000000000000000000000000000000000000000000000000691ebd26",
        "nonce": "0x16",
        "chainId": "0x14a34"
      },
      "additionalContracts": [
        {
          "transactionType": "CREATE",
          "contractName": null,
          "address": "0xd585ca2d97b7f81f42014598aaab0dcc9e03e4a1",
          "initCode": "0x3d602d80600a3d3981f3363d3d373d3d3d363d7347952aacc94ccbccebffca43a476d4cd30c1d6d15af43d82803e903d91602b57fd5bf3"
        }
      ],
      "isFixedGasLimit": false
    },
    {
      "hash": "0x4176499c32213d5afff8eab1eaa5a8a310083ae52d201c17ab12d66f74625c40",
      "transactionType": "CALL",
      "contractName": null,
      "contractAddress": "0xa568b02b08417dfb6fc902a5b3f63158d47f0b46",
      "function": "createMarket(bytes32,uint64,uint64)",
      "arguments": [
        "0xbdbe23b7bc4d117d3c824e2438ac057324f8dd2a88264d519e292bdcdb01d1a8",
        "1763621282",
        "1763622182"
      ],
      "transaction": {
        "from": "0xc5b2130f38eac51a1b93723509237572963322e9",
        "to": "0xa568b02b08417dfb6fc902a5b3f63158d47f0b46",
        "gas": "0x56e0e",
        "value": "0x0",
        "input": "0xaab38beebdbe23b7bc4d117d3c824e2438ac057324f8dd2a88264d519e292bdcdb01d1a800000000000000000000000000000000000000000000000000000000691eb9a200000000000000000000000000000000000000000000000000000000691ebd26",
        "nonce": "0x17",
        "chainId": "0x14a34"
      },
      "additionalContracts": [
        {
          "transactionType": "CREATE",
          "contractName": null,
          "address": "0x29568c02e9a3a56b6fd1325f168883948015d5db",
          "initCode": "0x3d602d80600a3d3981f3363d3d373d3d3d363d7347952aacc94ccbccebffca43a476d4cd30c1d6d15af43d82803e903d91602b57fd5bf3"
        }
      ],
      "isFixedGasLimit": false
    },
    {
      "hash": "0x2a4ec48424f241e73958146e5b8fa76ebfd68922c3221a16466cbfd496ad8bd2",
      "transactionType": "CALL",
      "contractName": null,
      "contractAddress": "0xa568b02b08417dfb6fc902a5b3f63158d47f0b46",
      "function": "createMarket(bytes32,uint64,uint64)",
      "arguments": [
        "0xa105c1209dcdc0622e38d8ca80e9224fa334650b78bc75d742ce0efe758ef713",
        "1763621282",
        "1763622182"
      ],
      "transaction": {
        "from": "0xc5b2130f38eac51a1b93723509237572963322e9",
        "to": "0xa568b02b08417dfb6fc902a5b3f63158d47f0b46",
        "gas": "0x56e0e",
        "value": "0x0",
        "input": "0xaab38beea105c1209dcdc0622e38d8ca80e9224fa334650b78bc75d742ce0efe758ef71300000000000000000000000000000000000000000000000000000000691eb9a200000000000000000000000000000000000000000000000000000000691ebd26",
        "nonce": "0x18",
        "chainId": "0x14a34"
      },
      "additionalContracts": [
        {
          "transactionType": "CREATE",
          "contractName": null,
          "address": "0xab1643176117be98d51aae703e843f88f5e34f90",
          "initCode": "0x3d602d80600a3d3981f3363d3d373d3d3d363d7347952aacc94ccbccebffca43a476d4cd30c1d6d15af43d82803e903d91602b57fd5bf3"
        }
      ],
      "isFixedGasLimit": false
    },
    {
      "hash": "0x3cd9eeec6a01d54509f2c8d9543855e206b12d839723d23598ed00c9d58eb9e9",
      "transactionType": "CALL",
      "contractName": null,
      "contractAddress": "0xa568b02b08417dfb6fc902a5b3f63158d47f0b46",
      "function": "createMarket(bytes32,uint64,uint64)",
      "arguments": [
        "0x1c9dd0b22a80f4c8764deb3757dcd2d3c15b526abfcc14f678b321a1930c3650",
        "1763621282",
        "1763622182"
      ],
      "transaction": {
        "from": "0xc5b2130f38eac51a1b93723509237572963322e9",
        "to": "0xa568b02b08417dfb6fc902a5b3f63158d47f0b46",
        "gas": "0x56e0e",
        "value": "0x0",
        "input": "0xaab38bee1c9dd0b22a80f4c8764deb3757dcd2d3c15b526abfcc14f678b321a1930c365000000000000000000000000000000000000000000000000000000000691eb9a200000000000000000000000000000000000000000000000000000000691ebd26",
        "nonce": "0x19",
        "chainId": "0x14a34"
      },
      "additionalContracts": [
        {
          "transactionType": "CREATE",
          "contractName": null,
          "address": "0x4edfb46455e5ae09254b0078944c26b7a799d953",
          "initCode": "0x3d602d80600a3d3981f3363d3d373d3d3d363d7347952aacc94ccbccebffca43a476d4cd30c1d6d15af43d82803e903d91602b57fd5bf3"
        }
      ],
      "isFixedGasLimit": false
    },
    {
      "hash": "0xaba03f54bcd1f84484ecc507203e5ce6665411819efa8f89098bdd5630f7c36e",
      "transactionType": "CALL",
      "contractName": null,
      "contractAddress": "0xa568b02b08417dfb6fc902a5b3f63158d47f0b46",
      "function": "createMarket(bytes32,uint64,uint64)",
      "arguments": [
        "0x631ae58652fd5c1cdd845ecc18416fafd72116c4d30302b5ea8a7751584112ef",
        "1763621282",
        "1763622182"
      ],
      "transaction": {
        "from": "0xc5b2130f38eac51a1b93723509237572963322e9",
        "to": "0xa568b02b08417dfb6fc902a5b3f63158d47f0b46",
        "gas": "0x56e0e",
        "value": "0x0",
        "input": "0xaab38bee631ae58652fd5c1cdd845ecc18416fafd72116c4d30302b5ea8a7751584112ef00000000000000000000000000000000000000000000000000000000691eb9a200000000000000000000000000000000000000000000000000000000691ebd26",
        "nonce": "0x1a",
        "chainId": "0x14a34"
      },
      "additionalContracts": [
        {
          "transactionType": "CREATE",
          "contractName": null,
          "address": "0xc87bc001ed535bf118b39dd512b3e6a5e2973717",
          "initCode": "0x3d602d80600a3d3981f3363d3d373d3d3d363d7347952aacc94ccbccebffca43a476d4cd30c1d6d15af43d82803e903d91602b57fd5bf3"
        }
      ],
      "isFixedGasLimit": false
    },
    {
      "hash": "0x18459211efe0fee4b81fa4d66aaa533124fc26c2e023a75e673a59d8478bd56a",
      "transactionType": "CALL",
      "contractName": null,
      "contractAddress": "0xa568b02b08417dfb6fc902a5b3f63158d47f0b46",
      "function": "createMarket(bytes32,uint64,uint64)",
      "arguments": [
        "0x2cc99d304b90dee9b45ebf7aeda554e190fee41bf7d7f88885817533b633cd95",
        "1763621282",
        "1763622182"
      ],
      "transaction": {
        "from": "0xc5b2130f38eac51a1b93723509237572963322e9",
        "to": "0xa568b02b08417dfb6fc902a5b3f63158d47f0b46",
        "gas": "0x56e0e",
        "value": "0x0",
        "input": "0xaab38bee2cc99d304b90dee9b45ebf7aeda554e190fee41bf7d7f88885817533b633cd9500000000000000000000000000000000000000000000000000000000691eb9a200000000000000000000000000000000000000000000000000000000691ebd26",
        "nonce": "0x1b",
        "chainId": "0x14a34"
      },
      "additionalContracts": [
        {
          "transactionType": "CREATE",
          "contractName": null,
          "address": "0xdf1ff0b29545435440b7dcaec8ebfc85b5f8d98f",
          "initCode": "0x3d602d80600a3d3981f3363d3d373d3d3d363d7347952aacc94ccbccebffca43a476d4cd30c1d6d15af43d82803e903d91602b57fd5bf3"
        }
      ],
      "isFixedGasLimit": false
    }
  ],
  "receipts": [
    {
      "status": "0x1",
      "cumulativeGasUsed": "0x773d7c",
      "logs": [
        {
          "address": "0xa568b02b08417dfb6fc902a5b3f63158d47f0b46",
          "topics": [
            "0x375b93db8e087a80beb91d1a191dd247767bb9df982963a9868fc739edf1f8c6",
            "0x00000000000000000000000059bb76926893e45379c62f296e061750c98b6e9d",
            "0x245acae687e4eed498b715baabcca3fd859af0398a4fcfa394acb5c5e5317692"
          ],
          "data": "0x00000000000000000000000000000000000000000000000000000000691eb9a200000000000000000000000000000000000000000000000000000000691ebd26",
          "blockHash": "0x9d316cf014dbcdb0444dab6949f17ffd770f015237cf4bd109e3c19a78fe2dbe",
          "blockNumber": "0x20504a8",
          "blockTimestamp": "0x691d6830",
          "transactionHash": "0xa239dd79d0977fc90d3528c06cd7922418793a51c30f40900e55b4556dfa4ab3",
          "transactionIndex": "0x7",
          "logIndex": "0xa3",
          "removed": false
        }
      ],
      "logsBloom": "0x00080000000000000000000000800000000000000000000000000000000000000000000000000000000000000000000000000000000000000000000014000000000000000000000000000200000000000000000000000000000000000000000000000000000000000000000000000000000000000000000000080000000000000000000000000000000000000000000000000000000000000000000000000000000000000000080000000000000000000000000000000000000000000000000000000000000008000001000000000000000000000000200000000000000000000000000000000000000000000100000000000000000004000000000000000000",
      "type": "0x2",
      "transactionHash": "0xa239dd79d0977fc90d3528c06cd7922418793a51c30f40900e55b4556dfa4ab3",
      "transactionIndex": "0x7",
      "blockHash": "0x9d316cf014dbcdb0444dab6949f17ffd770f015237cf4bd109e3c19a78fe2dbe",
      "blockNumber": "0x20504a8",
      "gasUsed": "0x3ee60",
      "effectiveGasPrice": "0xec3d7",
      "from": "0xc5b2130f38eac51a1b93723509237572963322e9",
      "to": "0xa568b02b08417dfb6fc902a5b3f63158d47f0b46",
      "contractAddress": null,
      "l1BaseFeeScalar": "0x44d",
      "l1BlobBaseFee": "0x1",
      "l1BlobBaseFeeScalar": "0xa118b",
      "l1Fee": "0x5a",
      "l1GasPrice": "0xe",
      "l1GasUsed": "0x640"
    },
    {
      "status": "0x1",
      "cumulativeGasUsed": "0x7b2bdc",
      "logs": [
        {
          "address": "0xa568b02b08417dfb6fc902a5b3f63158d47f0b46",
          "topics": [
            "0x375b93db8e087a80beb91d1a191dd247767bb9df982963a9868fc739edf1f8c6",
            "0x000000000000000000000000bc603a622e7ce65eab61b93cbcf31c90f8be4b0f",
            "0x0c1610d6e50ad1d9ae9699ecc1126b1bd7ceee4fd640bfd5d44ce5155a6c37c2"
          ],
          "data": "0x00000000000000000000000000000000000000000000000000000000691eb9a200000000000000000000000000000000000000000000000000000000691ebd26",
          "blockHash": "0x9d316cf014dbcdb0444dab6949f17ffd770f015237cf4bd109e3c19a78fe2dbe",
          "blockNumber": "0x20504a8",
          "blockTimestamp": "0x691d6830",
          "transactionHash": "0x0524f307bc50f7571953db18d1a843aa5ed8ce61a2dac17e7ef605d00bff3500",
          "transactionIndex": "0x8",
          "logIndex": "0xa4",
          "removed": false
        }
      ],
      "logsBloom": "0x00000000000000000000000000000000000000000000000000000000000000000000000000800000000000000000002000000000000000000200000014000000000000000000000000000000000000000000000000000000000000000004000000000000000000000000000000000000000000000000000000000000000000000000000000000000000000000000000000000000000000000000000000000000000000000000080000000000000000400000000000000000000000000000000000000000000008000001000000000000000000000000000000000000000000000000000000000000000000000100001000000000000000000000000000000000",
      "type": "0x2",
      "transactionHash": "0x0524f307bc50f7571953db18d1a843aa5ed8ce61a2dac17e7ef605d00bff3500",
      "transactionIndex": "0x8",
      "blockHash": "0x9d316cf014dbcdb0444dab6949f17ffd770f015237cf4bd109e3c19a78fe2dbe",
      "blockNumber": "0x20504a8",
      "gasUsed": "0x3ee60",
      "effectiveGasPrice": "0xec3d7",
      "from": "0xc5b2130f38eac51a1b93723509237572963322e9",
      "to": "0xa568b02b08417dfb6fc902a5b3f63158d47f0b46",
      "contractAddress": null,
      "l1BaseFeeScalar": "0x44d",
      "l1BlobBaseFee": "0x1",
      "l1BlobBaseFeeScalar": "0xa118b",
      "l1Fee": "0x5a",
      "l1GasPrice": "0xe",
      "l1GasUsed": "0x640"
    },
    {
      "status": "0x1",
      "cumulativeGasUsed": "0x7f1a3c",
      "logs": [
        {
          "address": "0xa568b02b08417dfb6fc902a5b3f63158d47f0b46",
          "topics": [
            "0x375b93db8e087a80beb91d1a191dd247767bb9df982963a9868fc739edf1f8c6",
            "0x000000000000000000000000153e8b1537aeb69eb26eaef70d73e29458537e81",
            "0xe02232d6f0835b6be71e01b6f7b9d1869aeb3b68a43315da56feb5a0bc7ded3d"
          ],
          "data": "0x00000000000000000000000000000000000000000000000000000000691eb9a200000000000000000000000000000000000000000000000000000000691ebd26",
          "blockHash": "0x9d316cf014dbcdb0444dab6949f17ffd770f015237cf4bd109e3c19a78fe2dbe",
          "blockNumber": "0x20504a8",
          "blockTimestamp": "0x691d6830",
          "transactionHash": "0x4b1da5783461f36c9aef0db94514cc916adf70b116f6c32583a3418759e75d39",
          "transactionIndex": "0x9",
          "logIndex": "0xa5",
          "removed": false
        }
      ],
      "logsBloom": "0x0000000000000000000000000000000000000000000000000000000000000000000000020000000000000000000000000000000000000000000000001c000000000000000000000000000000000000000000000000000400000000000000000000200000000000000000000000000000000000000000000000000000000000000000000000000000000000000000000000000000000000000000000000000000000000000000080000000000000000000000000000000000000000000000000200000000000008000001000000000000000000000000000000000008000000000000000000000000000000000100000000000000000000000000000000000000",
      "type": "0x2",
      "transactionHash": "0x4b1da5783461f36c9aef0db94514cc916adf70b116f6c32583a3418759e75d39",
      "transactionIndex": "0x9",
      "blockHash": "0x9d316cf014dbcdb0444dab6949f17ffd770f015237cf4bd109e3c19a78fe2dbe",
      "blockNumber": "0x20504a8",
      "gasUsed": "0x3ee60",
      "effectiveGasPrice": "0xec3d7",
      "from": "0xc5b2130f38eac51a1b93723509237572963322e9",
      "to": "0xa568b02b08417dfb6fc902a5b3f63158d47f0b46",
      "contractAddress": null,
      "l1BaseFeeScalar": "0x44d",
      "l1BlobBaseFee": "0x1",
      "l1BlobBaseFeeScalar": "0xa118b",
      "l1Fee": "0x5a",
      "l1GasPrice": "0xe",
      "l1GasUsed": "0x640"
    },
    {
      "status": "0x1",
      "cumulativeGasUsed": "0x83089c",
      "logs": [
        {
          "address": "0xa568b02b08417dfb6fc902a5b3f63158d47f0b46",
          "topics": [
            "0x375b93db8e087a80beb91d1a191dd247767bb9df982963a9868fc739edf1f8c6",
            "0x00000000000000000000000091b62de722f3d05742a2e02a7b221bbf1941475c",
            "0x01f4af04089bdb6edaf4197abae73fc663aca4f83b7702c870c9c7053d405898"
          ],
          "data": "0x00000000000000000000000000000000000000000000000000000000691eb9a200000000000000000000000000000000000000000000000000000000691ebd26",
          "blockHash": "0x9d316cf014dbcdb0444dab6949f17ffd770f015237cf4bd109e3c19a78fe2dbe",
          "blockNumber": "0x20504a8",
          "blockTimestamp": "0x691d6830",
          "transactionHash": "0x89285f5be43f532a6d8a0e6316edc4076a4656b5fa0cdbe8ca2acaad43b06c24",
          "transactionIndex": "0xa",
          "logIndex": "0xa6",
          "removed": false
        }
      ],
      "logsBloom": "0x00000000000000000000000000000000000000000080000000000000000000000000000000000000000000000000000000000000000000000000000014000020000000000000000000000000000000000000000000000000000000000000000000000000000000000000000000000000000000000000001000000000000080000000000000000000000000000000000000000000000000000000000000000000000000000000080000000000000000000000000000000000000000000000000000000000000008000001000000000020000000000000000000000000000000000000000000000000000000000100400000000000000000000000000000000000",
      "type": "0x2",
      "transactionHash": "0x89285f5be43f532a6d8a0e6316edc4076a4656b5fa0cdbe8ca2acaad43b06c24",
      "transactionIndex": "0xa",
      "blockHash": "0x9d316cf014dbcdb0444dab6949f17ffd770f015237cf4bd109e3c19a78fe2dbe",
      "blockNumber": "0x20504a8",
      "gasUsed": "0x3ee60",
      "effectiveGasPrice": "0xec3d7",
      "from": "0xc5b2130f38eac51a1b93723509237572963322e9",
      "to": "0xa568b02b08417dfb6fc902a5b3f63158d47f0b46",
      "contractAddress": null,
      "l1BaseFeeScalar": "0x44d",
      "l1BlobBaseFee": "0x1",
      "l1BlobBaseFeeScalar": "0xa118b",
      "l1Fee": "0x5a",
      "l1GasPrice": "0xe",
      "l1GasUsed": "0x640"
    },
    {
      "status": "0x1",
      "cumulativeGasUsed": "0x86f6fc",
      "logs": [
        {
          "address": "0xa568b02b08417dfb6fc902a5b3f63158d47f0b46",
          "topics": [
            "0x375b93db8e087a80beb91d1a191dd247767bb9df982963a9868fc739edf1f8c6",
            "0x000000000000000000000000d585ca2d97b7f81f42014598aaab0dcc9e03e4a1",
            "0x3fe34e5567f859cc194a0f6d4b62afa8dd2f45b89e07929c9e37beee16a45282"
          ],
          "data": "0x00000000000000000000000000000000000000000000000000000000691eb9a200000000000000000000000000000000000000000000000000000000691ebd26",
          "blockHash": "0x9d316cf014dbcdb0444dab6949f17ffd770f015237cf4bd109e3c19a78fe2dbe",
          "blockNumber": "0x20504a8",
          "blockTimestamp": "0x691d6830",
          "transactionHash": "0xb7cbfc217075f2ec39959ff554cd21478aef6d759c895b3a7c2beec107a31be7",
          "transactionIndex": "0xb",
          "logIndex": "0xa7",
          "removed": false
        }
      ],
      "logsBloom": "0x00000000000000000000000000000000000000000000000000000000000000000000000000000000000000000000000000000000000000000000000014000000000000000000000000000000000000000000000000000000000000000000001000010000000000000000000000000000000000000000000000000000000000000000000000000000000000000000000000000000000000000000000000000000000000000000080000000000004000000000000000000000000000000000000000000000000408000001000000000000000800000000000000000000000000000000000000000000000000000100000000000008000000000000000000000000",
      "type": "0x2",
      "transactionHash": "0xb7cbfc217075f2ec39959ff554cd21478aef6d759c895b3a7c2beec107a31be7",
      "transactionIndex": "0xb",
      "blockHash": "0x9d316cf014dbcdb0444dab6949f17ffd770f015237cf4bd109e3c19a78fe2dbe",
      "blockNumber": "0x20504a8",
      "gasUsed": "0x3ee60",
      "effectiveGasPrice": "0xec3d7",
      "from": "0xc5b2130f38eac51a1b93723509237572963322e9",
      "to": "0xa568b02b08417dfb6fc902a5b3f63158d47f0b46",
      "contractAddress": null,
      "l1BaseFeeScalar": "0x44d",
      "l1BlobBaseFee": "0x1",
      "l1BlobBaseFeeScalar": "0xa118b",
      "l1Fee": "0x5a",
      "l1GasPrice": "0xe",
      "l1GasUsed": "0x640"
    },
    {
      "status": "0x1",
      "cumulativeGasUsed": "0x8ae55c",
      "logs": [
        {
          "address": "0xa568b02b08417dfb6fc902a5b3f63158d47f0b46",
          "topics": [
            "0x375b93db8e087a80beb91d1a191dd247767bb9df982963a9868fc739edf1f8c6",
            "0x00000000000000000000000029568c02e9a3a56b6fd1325f168883948015d5db",
            "0x0068a52c4abd3d8ab1a3d2e8e80e6361fec192ba3663ce771de0f5d0fc7ebd06"
          ],
          "data": "0x00000000000000000000000000000000000000000000000000000000691eb9a200000000000000000000000000000000000000000000000000000000691ebd26",
          "blockHash": "0x9d316cf014dbcdb0444dab6949f17ffd770f015237cf4bd109e3c19a78fe2dbe",
          "blockNumber": "0x20504a8",
          "blockTimestamp": "0x691d6830",
          "transactionHash": "0x4176499c32213d5afff8eab1eaa5a8a310083ae52d201c17ab12d66f74625c40",
          "transactionIndex": "0xc",
          "logIndex": "0xa8",
          "removed": false
        }
      ],
      "logsBloom": "0x00000000000000000000000000000000000000000000000000000000000000000000000000000000000000000000000000000000000000000000080014000000000000000000000000000000000000000000000000000000000000000000000000000000000000000000000000000000000000000000000100000000000000200000000000000000000000004000000020000000000000000000000000000000000000000000480000000000000000000000000000000000000000000000000000000000000008000001000000000000000000000000000000000000000000000000000000000000000000000100000000000000000000000000000000000000",
      "type": "0x2",
      "transactionHash": "0x4176499c32213d5afff8eab1eaa5a8a310083ae52d201c17ab12d66f74625c40",
      "transactionIndex": "0xc",
      "blockHash": "0x9d316cf014dbcdb0444dab6949f17ffd770f015237cf4bd109e3c19a78fe2dbe",
      "blockNumber": "0x20504a8",
      "gasUsed": "0x3ee60",
      "effectiveGasPrice": "0xec3d7",
      "from": "0xc5b2130f38eac51a1b93723509237572963322e9",
      "to": "0xa568b02b08417dfb6fc902a5b3f63158d47f0b46",
      "contractAddress": null,
      "l1BaseFeeScalar": "0x44d",
      "l1BlobBaseFee": "0x1",
      "l1BlobBaseFeeScalar": "0xa118b",
      "l1Fee": "0x5a",
      "l1GasPrice": "0xe",
      "l1GasUsed": "0x640"
    },
    {
      "status": "0x1",
      "cumulativeGasUsed": "0x8ed3bc",
      "logs": [
        {
          "address": "0xa568b02b08417dfb6fc902a5b3f63158d47f0b46",
          "topics": [
            "0x375b93db8e087a80beb91d1a191dd247767bb9df982963a9868fc739edf1f8c6",
            "0x000000000000000000000000ab1643176117be98d51aae703e843f88f5e34f90",
            "0x5ecf84e8038300ba59aa4417356a6615321861d94eada2db16114a58a2da852c"
          ],
          "data": "0x00000000000000000000000000000000000000000000000000000000691eb9a200000000000000000000000000000000000000000000000000000000691ebd26",
          "blockHash": "0x9d316cf014dbcdb0444dab6949f17ffd770f015237cf4bd109e3c19a78fe2dbe",
          "blockNumber": "0x20504a8",
          "blockTimestamp": "0x691d6830",
          "transactionHash": "0x2a4ec48424f241e73958146e5b8fa76ebfd68922c3221a16466cbfd496ad8bd2",
          "transactionIndex": "0xd",
          "logIndex": "0xa9",
          "removed": false
        }
      ],
      "logsBloom": "0x00000000000000000000000000000000000000000000000000000000000000000000000000000000000000000000000000000040000000000000000014000000000000000000080000000000000000000000000000000000000000000000000000000000000800000000000000000000000000400000000000000000000000000000000000000000000000000000000000400000000000000000000000000000000000000000080000000000000000000000000000000000000000000000000000000000000008000001000000000000000000000000000000000000000000400000000000000000000000000100000000000000000000000000000000000000",
      "type": "0x2",
      "transactionHash": "0x2a4ec48424f241e73958146e5b8fa76ebfd68922c3221a16466cbfd496ad8bd2",
      "transactionIndex": "0xd",
      "blockHash": "0x9d316cf014dbcdb0444dab6949f17ffd770f015237cf4bd109e3c19a78fe2dbe",
      "blockNumber": "0x20504a8",
      "gasUsed": "0x3ee60",
      "effectiveGasPrice": "0xec3d7",
      "from": "0xc5b2130f38eac51a1b93723509237572963322e9",
      "to": "0xa568b02b08417dfb6fc902a5b3f63158d47f0b46",
      "contractAddress": null,
      "l1BaseFeeScalar": "0x44d",
      "l1BlobBaseFee": "0x1",
      "l1BlobBaseFeeScalar": "0xa118b",
      "l1Fee": "0x5a",
      "l1GasPrice": "0xe",
      "l1GasUsed": "0x640"
    },
    {
      "status": "0x1",
      "cumulativeGasUsed": "0x92c21c",
      "logs": [
        {
          "address": "0xa568b02b08417dfb6fc902a5b3f63158d47f0b46",
          "topics": [
            "0x375b93db8e087a80beb91d1a191dd247767bb9df982963a9868fc739edf1f8c6",
            "0x0000000000000000000000004edfb46455e5ae09254b0078944c26b7a799d953",
            "0x2f4d124eb6c96f621793bd233e1a6f438e0f169649cf733754e3dad55a314683"
          ],
          "data": "0x00000000000000000000000000000000000000000000000000000000691eb9a200000000000000000000000000000000000000000000000000000000691ebd26",
          "blockHash": "0x9d316cf014dbcdb0444dab6949f17ffd770f015237cf4bd109e3c19a78fe2dbe",
          "blockNumber": "0x20504a8",
          "blockTimestamp": "0x691d6830",
          "transactionHash": "0x3cd9eeec6a01d54509f2c8d9543855e206b12d839723d23598ed00c9d58eb9e9",
          "transactionIndex": "0xe",
          "logIndex": "0xaa",
          "removed": false
        }
      ],
      "logsBloom": "0x00000000000000000000000000000000000000000000000000000000000000000000000000000001000000000000000000000000000000000000000014000000000000000000000000000000000000000000000000000000000000000000000000000000000000000000000000000000000000000000000000000000000000000000000000000100000000000000000000000000000000000000000000000000000000000000082000000000000000800000000000000000400000000000000000000000000008000001000000000000000000000000000000000000000000000000000000000000000000000100004000000000000000000000000000000000",
      "type": "0x2",
      "transactionHash": "0x3cd9eeec6a01d54509f2c8d9543855e206b12d839723d23598ed00c9d58eb9e9",
      "transactionIndex": "0xe",
      "blockHash": "0x9d316cf014dbcdb0444dab6949f17ffd770f015237cf4bd109e3c19a78fe2dbe",
      "blockNumber": "0x20504a8",
      "gasUsed": "0x3ee60",
      "effectiveGasPrice": "0xec3d7",
      "from": "0xc5b2130f38eac51a1b93723509237572963322e9",
      "to": "0xa568b02b08417dfb6fc902a5b3f63158d47f0b46",
      "contractAddress": null,
      "l1BaseFeeScalar": "0x44d",
      "l1BlobBaseFee": "0x1",
      "l1BlobBaseFeeScalar": "0xa118b",
      "l1Fee": "0x5a",
      "l1GasPrice": "0xe",
      "l1GasUsed": "0x640"
    },
    {
      "status": "0x1",
      "cumulativeGasUsed": "0x96b07c",
      "logs": [
        {
          "address": "0xa568b02b08417dfb6fc902a5b3f63158d47f0b46",
          "topics": [
            "0x375b93db8e087a80beb91d1a191dd247767bb9df982963a9868fc739edf1f8c6",
            "0x000000000000000000000000c87bc001ed535bf118b39dd512b3e6a5e2973717",
            "0xd0169735b7df2bf04a6bf4fe6d0b7e191813955c08b7df8a2ec86365db06de4f"
          ],
          "data": "0x00000000000000000000000000000000000000000000000000000000691eb9a200000000000000000000000000000000000000000000000000000000691ebd26",
          "blockHash": "0x9d316cf014dbcdb0444dab6949f17ffd770f015237cf4bd109e3c19a78fe2dbe",
          "blockNumber": "0x20504a8",
          "blockTimestamp": "0x691d6830",
          "transactionHash": "0xaba03f54bcd1f84484ecc507203e5ce6665411819efa8f89098bdd5630f7c36e",
          "transactionIndex": "0xf",
          "logIndex": "0xab",
          "removed": false
        }
      ],
      "logsBloom": "0x00000000000000000000000000000000000000000000000000000000000000000000000000000000000000000000000000000000000080000000001014000000000000000000000000000000000000000000000000000000000000000000000000000000000000000000000080000000000000000000000040000000000000000000000000000000000000000000000000000000000000000000000000000000000000000000080000000000000000000000000000004000000000000000000000000000000008000001000000000000000000000000000000000000000000000000000000000000000400000100000000000000000000000000000000000000",
      "type": "0x2",
      "transactionHash": "0xaba03f54bcd1f84484ecc507203e5ce6665411819efa8f89098bdd5630f7c36e",
      "transactionIndex": "0xf",
      "blockHash": "0x9d316cf014dbcdb0444dab6949f17ffd770f015237cf4bd109e3c19a78fe2dbe",
      "blockNumber": "0x20504a8",
      "gasUsed": "0x3ee60",
      "effectiveGasPrice": "0xec3d7",
      "from": "0xc5b2130f38eac51a1b93723509237572963322e9",
      "to": "0xa568b02b08417dfb6fc902a5b3f63158d47f0b46",
      "contractAddress": null,
      "l1BaseFeeScalar": "0x44d",
      "l1BlobBaseFee": "0x1",
      "l1BlobBaseFeeScalar": "0xa118b",
      "l1Fee": "0x5a",
      "l1GasPrice": "0xe",
      "l1GasUsed": "0x640"
    },
    {
      "status": "0x1",
      "cumulativeGasUsed": "0x9a9edc",
      "logs": [
        {
          "address": "0xa568b02b08417dfb6fc902a5b3f63158d47f0b46",
          "topics": [
            "0x375b93db8e087a80beb91d1a191dd247767bb9df982963a9868fc739edf1f8c6",
            "0x000000000000000000000000df1ff0b29545435440b7dcaec8ebfc85b5f8d98f",
            "0xfa2c305d3e7bf18ccf2df719ca54a4f77da3d2ef40aa87ea511f23ebf193c1f9"
          ],
          "data": "0x00000000000000000000000000000000000000000000000000000000691eb9a200000000000000000000000000000000000000000000000000000000691ebd26",
          "blockHash": "0x9d316cf014dbcdb0444dab6949f17ffd770f015237cf4bd109e3c19a78fe2dbe",
          "blockNumber": "0x20504a8",
          "blockTimestamp": "0x691d6830",
          "transactionHash": "0x18459211efe0fee4b81fa4d66aaa533124fc26c2e023a75e673a59d8478bd56a",
          "transactionIndex": "0x10",
          "logIndex": "0xac",
          "removed": false
        }
      ],
      "logsBloom": "0x00000000000000000000000000000000000000000000000000000000000000000000000000000200000000000000000000000000000000000000000014000000000000000000000000000000000000000000000000000000000000000000000000000000000000000000000000000000000000000000000000000a00000000000000000000000000000000000000000000000000000000000000000000000000000080000000080000000000000000000000000000000000000000000000000000000000000008000001000000000000000000000000000008000000000000000000000000000400000000000100000000000000000000000000000000000000",
      "type": "0x2",
      "transactionHash": "0x18459211efe0fee4b81fa4d66aaa533124fc26c2e023a75e673a59d8478bd56a",
      "transactionIndex": "0x10",
      "blockHash": "0x9d316cf014dbcdb0444dab6949f17ffd770f015237cf4bd109e3c19a78fe2dbe",
      "blockNumber": "0x20504a8",
      "gasUsed": "0x3ee60",
      "effectiveGasPrice": "0xec3d7",
      "from": "0xc5b2130f38eac51a1b93723509237572963322e9",
      "to": "0xa568b02b08417dfb6fc902a5b3f63158d47f0b46",
      "contractAddress": null,
      "l1BaseFeeScalar": "0x44d",
      "l1BlobBaseFee": "0x1",
      "l1BlobBaseFeeScalar": "0xa118b",
      "l1Fee": "0x5a",
      "l1GasPrice": "0xe",
      "l1GasUsed": "0x640"
    }
  ],
  "libraries": [],
  "pending": [],
  "returns": {},
  "timestamp": 1763534895195,
  "chain": 84532,
  "commit": "dcb7368"
}