{
  "transactions": [
    {
      "hash": "0xd8ba4b4b3841d396e341ccc781a2a2c7f3d170bd764db50d1799d5f3e5ab95b9",
      "transactionType": "CALL",
      "contractName": null,
      "contractAddress": "0x01d8c2543c46a01f86f5eecc8a4648baf9f662b1",
      "function": "createMarket(bytes32,uint64,uint64)",
      "arguments": [
        "0x1af48b995a60f03829ad2394f4fd31ef49a1264ff966c81cfa050ce87c776772",
        "1764119052",
        "1764119062"
      ],
      "transaction": {
        "from": "0xc5b2130f38eac51a1b93723509237572963322e9",
        "to": "0x01d8c2543c46a01f86f5eecc8a4648baf9f662b1",
        "gas": "0x56e0e",
        "value": "0x0",
        "input": "0xaab38bee1af48b995a60f03829ad2394f4fd31ef49a1264ff966c81cfa050ce87c776772000000000000000000000000000000000000000000000000000000006926520c0000000000000000000000000000000000000000000000000000000069265216",
        "nonce": "0x17a",
        "chainId": "0x14a34"
      },
      "additionalContracts": [
        {
          "transactionType": "CREATE",
          "contractName": null,
          "address": "0x0f37cd175249b47b73ece3efed7d70689d1c0c67",
          "initCode": "0x3d602d80600a3d3981f3363d3d373d3d3d363d73d2bcb1be7285c77e4410bb0d0d47565759ec55e55af43d82803e903d91602b57fd5bf3"
        }
      ],
      "isFixedGasLimit": false
    },
    {
      "hash": "0xef192ffbf2d3d5ae065df3a16a1405b0d7ab5b41ebd2eae3fc7b7d366f4dbdc9",
      "transactionType": "CALL",
      "contractName": null,
      "contractAddress": "0x01d8c2543c46a01f86f5eecc8a4648baf9f662b1",
      "function": "createMarket(bytes32,uint64,uint64)",
      "arguments": [
        "0x1c09088d8644af9a31596ba46b9aaa23d1d7250a279f9be788c96a7c7671ecaf",
        "1764119052",
        "1764119062"
      ],
      "transaction": {
        "from": "0xc5b2130f38eac51a1b93723509237572963322e9",
        "to": "0x01d8c2543c46a01f86f5eecc8a4648baf9f662b1",
        "gas": "0x56e0e",
        "value": "0x0",
        "input": "0xaab38bee1c09088d8644af9a31596ba46b9aaa23d1d7250a279f9be788c96a7c7671ecaf000000000000000000000000000000000000000000000000000000006926520c0000000000000000000000000000000000000000000000000000000069265216",
        "nonce": "0x17b",
        "chainId": "0x14a34"
      },
      "additionalContracts": [
        {
          "transactionType": "CREATE",
          "contractName": null,
          "address": "0x908a26103e6dfe1da95895444715169b680972c9",
          "initCode": "0x3d602d80600a3d3981f3363d3d373d3d3d363d73d2bcb1be7285c77e4410bb0d0d47565759ec55e55af43d82803e903d91602b57fd5bf3"
        }
      ],
      "isFixedGasLimit": false
    },
    {
      "hash": "0x1dda243008cba86d2908bb0962237fef91cb645ba0bd5fb389c7a0e0ce001c2d",
      "transactionType": "CALL",
      "contractName": null,
      "contractAddress": "0x01d8c2543c46a01f86f5eecc8a4648baf9f662b1",
      "function": "createMarket(bytes32,uint64,uint64)",
      "arguments": [
        "0xf1387cb68f3f9e02dc45315683a5eee30777a31e4babd20a89811f95f8168fd3",
        "1764119052",
        "1764119062"
      ],
      "transaction": {
        "from": "0xc5b2130f38eac51a1b93723509237572963322e9",
        "to": "0x01d8c2543c46a01f86f5eecc8a4648baf9f662b1",
        "gas": "0x56e0e",
        "value": "0x0",
        "input": "0xaab38beef1387cb68f3f9e02dc45315683a5eee30777a31e4babd20a89811f95f8168fd3000000000000000000000000000000000000000000000000000000006926520c0000000000000000000000000000000000000000000000000000000069265216",
        "nonce": "0x17c",
        "chainId": "0x14a34"
      },
      "additionalContracts": [
        {
          "transactionType": "CREATE",
          "contractName": null,
          "address": "0xcac96c6c888952d156e93ab6d8eeb5aece82792a",
          "initCode": "0x3d602d80600a3d3981f3363d3d373d3d3d363d73d2bcb1be7285c77e4410bb0d0d47565759ec55e55af43d82803e903d91602b57fd5bf3"
        }
      ],
      "isFixedGasLimit": false
    },
    {
      "hash": "0x2167b6c993f5b62ed09819d8d6c447a1a994fb3344767c4e0be777a6ea33018a",
      "transactionType": "CALL",
      "contractName": null,
      "contractAddress": "0x01d8c2543c46a01f86f5eecc8a4648baf9f662b1",
      "function": "createMarket(bytes32,uint64,uint64)",
      "arguments": [
        "0xd8e66602156ff6f0d2317071daab4aa50919aa12142bcd608c2a03f8566bc023",
        "1764119052",
        "1764119062"
      ],
      "transaction": {
        "from": "0xc5b2130f38eac51a1b93723509237572963322e9",
        "to": "0x01d8c2543c46a01f86f5eecc8a4648baf9f662b1",
        "gas": "0x56e0e",
        "value": "0x0",
        "input": "0xaab38beed8e66602156ff6f0d2317071daab4aa50919aa12142bcd608c2a03f8566bc023000000000000000000000000000000000000000000000000000000006926520c0000000000000000000000000000000000000000000000000000000069265216",
        "nonce": "0x17d",
        "chainId": "0x14a34"
      },
      "additionalContracts": [
        {
          "transactionType": "CREATE",
          "contractName": null,
          "address": "0x7948a5ba72e3679b18402000707db7dcb5acde58",
          "initCode": "0x3d602d80600a3d3981f3363d3d373d3d3d363d73d2bcb1be7285c77e4410bb0d0d47565759ec55e55af43d82803e903d91602b57fd5bf3"
        }
      ],
      "isFixedGasLimit": false
    },
    {
      "hash": "0x1996d90418beb2b6dc1e76880ea1858949246374bdd6e65d2ae4e721888d5034",
      "transactionType": "CALL",
      "contractName": null,
      "contractAddress": "0x01d8c2543c46a01f86f5eecc8a4648baf9f662b1",
      "function": "createMarket(bytes32,uint64,uint64)",
      "arguments": [
        "0x8b1f00b0afb53405d749667583ef2c644d5e4f781107b2a62547f8ea2c88e1af",
        "1764119052",
        "1764119062"
      ],
      "transaction": {
        "from": "0xc5b2130f38eac51a1b93723509237572963322e9",
        "to": "0x01d8c2543c46a01f86f5eecc8a4648baf9f662b1",
        "gas": "0x56dfd",
        "value": "0x0",
        "input": "0xaab38bee8b1f00b0afb53405d749667583ef2c644d5e4f781107b2a62547f8ea2c88e1af000000000000000000000000000000000000000000000000000000006926520c0000000000000000000000000000000000000000000000000000000069265216",
        "nonce": "0x17e",
        "chainId": "0x14a34"
      },
      "additionalContracts": [
        {
          "transactionType": "CREATE",
          "contractName": null,
          "address": "0x03fd3eec4f937ccffa252c7ded64ac6b7813c661",
          "initCode": "0x3d602d80600a3d3981f3363d3d373d3d3d363d73d2bcb1be7285c77e4410bb0d0d47565759ec55e55af43d82803e903d91602b57fd5bf3"
        }
      ],
      "isFixedGasLimit": false
    },
    {
      "hash": "0x10b8351a15ffc8b3822add915b9e8b2f6394868fe4344def9b4bfa33ea054a00",
      "transactionType": "CALL",
      "contractName": null,
      "contractAddress": "0x01d8c2543c46a01f86f5eecc8a4648baf9f662b1",
      "function": "createMarket(bytes32,uint64,uint64)",
      "arguments": [
        "0xff817070cb0d0f6ba0fd2f650fe55c34c1ef8230efc98ec9dcf0fb5290853731",
        "1764119052",
        "1764119062"
      ],
      "transaction": {
        "from": "0xc5b2130f38eac51a1b93723509237572963322e9",
        "to": "0x01d8c2543c46a01f86f5eecc8a4648baf9f662b1",
        "gas": "0x56e0e",
        "value": "0x0",
        "input": "0xaab38beeff817070cb0d0f6ba0fd2f650fe55c34c1ef8230efc98ec9dcf0fb5290853731000000000000000000000000000000000000000000000000000000006926520c0000000000000000000000000000000000000000000000000000000069265216",
        "nonce": "0x17f",
        "chainId": "0x14a34"
      },
      "additionalContracts": [
        {
          "transactionType": "CREATE",
          "contractName": null,
          "address": "0xb2423449979e279dbeda631876f395977766e9ed",
          "initCode": "0x3d602d80600a3d3981f3363d3d373d3d3d363d73d2bcb1be7285c77e4410bb0d0d47565759ec55e55af43d82803e903d91602b57fd5bf3"
        }
      ],
      "isFixedGasLimit": false
    },
    {
      "hash": "0x2a660454302451844e3a8b60e2f4a5e3eceb0628ef025429de8f634034291fed",
      "transactionType": "CALL",
      "contractName": null,
      "contractAddress": "0x01d8c2543c46a01f86f5eecc8a4648baf9f662b1",
      "function": "createMarket(bytes32,uint64,uint64)",
      "arguments": [
        "0xe1be94f538fd92d686feecbf4ced7593d7f723394b28a5effc950d8c1ca2ddc7",
        "1764119052",
        "1764119062"
      ],
      "transaction": {
        "from": "0xc5b2130f38eac51a1b93723509237572963322e9",
        "to": "0x01d8c2543c46a01f86f5eecc8a4648baf9f662b1",
        "gas": "0x56e0e",
        "value": "0x0",
        "input": "0xaab38beee1be94f538fd92d686feecbf4ced7593d7f723394b28a5effc950d8c1ca2ddc7000000000000000000000000000000000000000000000000000000006926520c0000000000000000000000000000000000000000000000000000000069265216",
        "nonce": "0x180",
        "chainId": "0x14a34"
      },
      "additionalContracts": [
        {
          "transactionType": "CREATE",
          "contractName": null,
          "address": "0x3a8ca8c568039e39382402ac3fc07a7510664ca2",
          "initCode": "0x3d602d80600a3d3981f3363d3d373d3d3d363d73d2bcb1be7285c77e4410bb0d0d47565759ec55e55af43d82803e903d91602b57fd5bf3"
        }
      ],
      "isFixedGasLimit": false
    },
    {
      "hash": "0xd745758328cf2ac1ff59d96efb7d5f351025590d450cee058c3b4333a6e4df2e",
      "transactionType": "CALL",
      "contractName": null,
      "contractAddress": "0x01d8c2543c46a01f86f5eecc8a4648baf9f662b1",
      "function": "createMarket(bytes32,uint64,uint64)",
      "arguments": [
        "0x40f4992d09b03f6fa960fa5efca667685376cfe7c489c9d9849b05aea3fdcbbf",
        "1764119052",
        "1764119062"
      ],
      "transaction": {
        "from": "0xc5b2130f38eac51a1b93723509237572963322e9",
        "to": "0x01d8c2543c46a01f86f5eecc8a4648baf9f662b1",
        "gas": "0x56e0e",
        "value": "0x0",
        "input": "0xaab38bee40f4992d09b03f6fa960fa5efca667685376cfe7c489c9d9849b05aea3fdcbbf000000000000000000000000000000000000000000000000000000006926520c0000000000000000000000000000000000000000000000000000000069265216",
        "nonce": "0x181",
        "chainId": "0x14a34"
      },
      "additionalContracts": [
        {
          "transactionType": "CREATE",
          "contractName": null,
          "address": "0x5ea1f6d47b3f27e03ecb6c4a9f1df06afdcba402",
          "initCode": "0x3d602d80600a3d3981f3363d3d373d3d3d363d73d2bcb1be7285c77e4410bb0d0d47565759ec55e55af43d82803e903d91602b57fd5bf3"
        }
      ],
      "isFixedGasLimit": false
    },
    {
      "hash": "0xf6ca1e7b3acf44d857a2130ccbaf5c2196b939677c280ea5a690650d0226ca88",
      "transactionType": "CALL",
      "contractName": null,
      "contractAddress": "0x01d8c2543c46a01f86f5eecc8a4648baf9f662b1",
      "function": "createMarket(bytes32,uint64,uint64)",
      "arguments": [
        "0xdbfaf4f1f96560cd53115f58f01156b2c3951e2d8dedf40ed02a36145a33b971",
        "1764119052",
        "1764119062"
      ],
      "transaction": {
        "from": "0xc5b2130f38eac51a1b93723509237572963322e9",
        "to": "0x01d8c2543c46a01f86f5eecc8a4648baf9f662b1",
        "gas": "0x56e0e",
        "value": "0x0",
        "input": "0xaab38beedbfaf4f1f96560cd53115f58f01156b2c3951e2d8dedf40ed02a36145a33b971000000000000000000000000000000000000000000000000000000006926520c0000000000000000000000000000000000000000000000000000000069265216",
        "nonce": "0x182",
        "chainId": "0x14a34"
      },
      "additionalContracts": [
        {
          "transactionType": "CREATE",
          "contractName": null,
          "address": "0x7789b30a833311f97a5b9fb2334f453a59894744",
          "initCode": "0x3d602d80600a3d3981f3363d3d373d3d3d363d73d2bcb1be7285c77e4410bb0d0d47565759ec55e55af43d82803e903d91602b57fd5bf3"
        }
      ],
      "isFixedGasLimit": false
    },
    {
      "hash": "0x0fb207dff7c4dedca4bbbd1b8ba48d35281aeb83bb5366ba121648b776e9ec8a",
      "transactionType": "CALL",
      "contractName": null,
      "contractAddress": "0x01d8c2543c46a01f86f5eecc8a4648baf9f662b1",
      "function": "createMarket(bytes32,uint64,uint64)",
      "arguments": [
        "0x5509920db223a8a3ad28db4c960c4b4b7838ca4db8b3815a8b7ea90a4e514da9",
        "1764119052",
        "1764119062"
      ],
      "transaction": {
        "from": "0xc5b2130f38eac51a1b93723509237572963322e9",
        "to": "0x01d8c2543c46a01f86f5eecc8a4648baf9f662b1",
        "gas": "0x56e0e",
        "value": "0x0",
        "input": "0xaab38bee5509920db223a8a3ad28db4c960c4b4b7838ca4db8b3815a8b7ea90a4e514da9000000000000000000000000000000000000000000000000000000006926520c0000000000000000000000000000000000000000000000000000000069265216",
        "nonce": "0x183",
        "chainId": "0x14a34"
      },
      "additionalContracts": [
        {
          "transactionType": "CREATE",
          "contractName": null,
          "address": "0xc7ce3186d973636e08ec483544b619b2fafde38a",
          "initCode": "0x3d602d80600a3d3981f3363d3d373d3d3d363d73d2bcb1be7285c77e4410bb0d0d47565759ec55e55af43d82803e903d91602b57fd5bf3"
        }
      ],
      "isFixedGasLimit": false
    }
  ],
  "receipts": [
    {
      "status": "0x1",
      "cumulativeGasUsed": "0xe1cc7",
      "logs": [
        {
          "address": "0x01d8c2543c46a01f86f5eecc8a4648baf9f662b1",
          "topics": [
            "0x375b93db8e087a80beb91d1a191dd247767bb9df982963a9868fc739edf1f8c6",
            "0x0000000000000000000000000f37cd175249b47b73ece3efed7d70689d1c0c67",
            "0xb86e14cf7dc515f18c0e6055acbd3c6d0a633cdf2b1b35a1b3039119e2d7226d"
          ],
          "data": "0x000000000000000000000000000000000000000000000000000000006926520c0000000000000000000000000000000000000000000000000000000069265216",
          "blockHash": "0x357a18f96667ce9128ad75a9e74c28225a8d2f026c41e6e6be4432adf4d7f19a",
          "blockNumber": "0x2097909",
          "blockTimestamp": "0x692650f2",
          "transactionHash": "0xd8ba4b4b3841d396e341ccc781a2a2c7f3d170bd764db50d1799d5f3e5ab95b9",
          "transactionIndex": "0x6",
          "logIndex": "0xb",
          "removed": false
        }
      ],
      "logsBloom": "0x00000000200000000010000000000000000000000000000000000400000000000000000000000000000000000000000000000000000000000000000014000000000000000000000000000000000000000000000000000000000000000000000000000000000000000000000000000000000004000000000000000000000000000000000100000000000000000000000000000000008000000000000000000000000000000000080000000000000000000000000000000000000000000000000000000000000000000000000000000000000000080400000000000000000000000000000002000000000000000000000000000000000000000000000000000000",
      "type": "0x2",
      "transactionHash": "0xd8ba4b4b3841d396e341ccc781a2a2c7f3d170bd764db50d1799d5f3e5ab95b9",
      "transactionIndex": "0x6",
      "blockHash": "0x357a18f96667ce9128ad75a9e74c28225a8d2f026c41e6e6be4432adf4d7f19a",
      "blockNumber": "0x2097909",
      "gasUsed": "0x3ee60",
      "effectiveGasPrice": "0x124f80",
      "blobGasUsed": "0x79e0",
      "from": "0xc5b2130f38eac51a1b93723509237572963322e9",
      "to": "0x01d8c2543c46a01f86f5eecc8a4648baf9f662b1",
      "contractAddress": null,
      "daFootprintGasScalar": "0x138",
      "l1BaseFeeScalar": "0x44d",
      "l1BlobBaseFee": "0x1",
      "l1BlobBaseFeeScalar": "0xa118b",
      "l1Fee": "0x55",
      "l1GasPrice": "0xb",
      "l1GasUsed": "0x647"
    },
    {
      "status": "0x1",
      "cumulativeGasUsed": "0x120b27",
      "logs": [
        {
          "address": "0x01d8c2543c46a01f86f5eecc8a4648baf9f662b1",
          "topics": [
            "0x375b93db8e087a80beb91d1a191dd247767bb9df982963a9868fc739edf1f8c6",
            "0x000000000000000000000000908a26103e6dfe1da95895444715169b680972c9",
            "0xb97bf3dbd37c92a42d48a75adbcc67d572623cb79048797c9476eff59b13930c"
          ],
          "data": "0x000000000000000000000000000000000000000000000000000000006926520c0000000000000000000000000000000000000000000000000000000069265216",
          "blockHash": "0x357a18f96667ce9128ad75a9e74c28225a8d2f026c41e6e6be4432adf4d7f19a",
          "blockNumber": "0x2097909",
          "blockTimestamp": "0x692650f2",
          "transactionHash": "0xef192ffbf2d3d5ae065df3a16a1405b0d7ab5b41ebd2eae3fc7b7d366f4dbdc9",
          "transactionIndex": "0x7",
          "logIndex": "0xc",
          "removed": false
        }
      ],
      "logsBloom": "0x00000000200000000000000001000000000000000000000000800000000000000000000000000000000000000000000000000000000000000000000014000000000000000000000000000000000000000000000000000000000000000000000000000000000000000000000000000000000000000000000000000000000000000000000000000000000000000000000000000000008000000000000000000000000000000000080000000000000000000000000000000000000000400000000000000001000000000000000000001000000000002000000000000000000000000000000002000000000000000000000000000000000000000000000000000000",
      "type": "0x2",
      "transactionHash": "0xef192ffbf2d3d5ae065df3a16a1405b0d7ab5b41ebd2eae3fc7b7d366f4dbdc9",
      "transactionIndex": "0x7",
      "blockHash": "0x357a18f96667ce9128ad75a9e74c28225a8d2f026c41e6e6be4432adf4d7f19a",
      "blockNumber": "0x2097909",
      "gasUsed": "0x3ee60",
      "effectiveGasPrice": "0x124f80",
      "blobGasUsed": "0x79e0",
      "from": "0xc5b2130f38eac51a1b93723509237572963322e9",
      "to": "0x01d8c2543c46a01f86f5eecc8a4648baf9f662b1",
      "contractAddress": null,
      "daFootprintGasScalar": "0x138",
      "l1BaseFeeScalar": "0x44d",
      "l1BlobBaseFee": "0x1",
      "l1BlobBaseFeeScalar": "0xa118b",
      "l1Fee": "0x55",
      "l1GasPrice": "0xb",
      "l1GasUsed": "0x647"
    },
    {
      "status": "0x1",
      "cumulativeGasUsed": "0x15f987",
      "logs": [
        {
          "address": "0x01d8c2543c46a01f86f5eecc8a4648baf9f662b1",
          "topics": [
            "0x375b93db8e087a80beb91d1a191dd247767bb9df982963a9868fc739edf1f8c6",
            "0x000000000000000000000000cac96c6c888952d156e93ab6d8eeb5aece82792a",
            "0xa3773514b01365f0f6c476897b4bb80cd1d62f58b0342028ecf0e55470d24582"
          ],
          "data": "0x000000000000000000000000000000000000000000000000000000006926520c0000000000000000000000000000000000000000000000000000000069265216",
          "blockHash": "0x357a18f96667ce9128ad75a9e74c28225a8d2f026c41e6e6be4432adf4d7f19a",
          "blockNumber": "0x2097909",
          "blockTimestamp": "0x692650f2",
          "transactionHash": "0x1dda243008cba86d2908bb0962237fef91cb645ba0bd5fb389c7a0e0ce001c2d",
          "transactionIndex": "0x8",
          "logIndex": "0xd",
          "removed": false
        }
      ],
      "logsBloom": "0x00000000200000000000000000000000000000000000000000000000000000000000000000000000000000000000000008000000000000000000000014000000000000000000000000000000000000000000000000000000000000000008000000000000000000008000000000000000000000000000000000000000000000000000000800000000000000000000000000000000008000000000000000000000000000000000080000000000000000000000000000000000000000000000000000000000000000000000000000000000000000000000008000000000000000000000020002000000000000000000000000000000000000000000000000000000",
      "type": "0x2",
      "transactionHash": "0x1dda243008cba86d2908bb0962237fef91cb645ba0bd5fb389c7a0e0ce001c2d",
      "transactionIndex": "0x8",
      "blockHash": "0x357a18f96667ce9128ad75a9e74c28225a8d2f026c41e6e6be4432adf4d7f19a",
      "blockNumber": "0x2097909",
      "gasUsed": "0x3ee60",
      "effectiveGasPrice": "0x124f80",
      "blobGasUsed": "0x79e0",
      "from": "0xc5b2130f38eac51a1b93723509237572963322e9",
      "to": "0x01d8c2543c46a01f86f5eecc8a4648baf9f662b1",
      "contractAddress": null,
      "daFootprintGasScalar": "0x138",
      "l1BaseFeeScalar": "0x44d",
      "l1BlobBaseFee": "0x1",
      "l1BlobBaseFeeScalar": "0xa118b",
      "l1Fee": "0x55",
      "l1GasPrice": "0xb",
      "l1GasUsed": "0x647"
    },
    {
      "status": "0x1",
      "cumulativeGasUsed": "0x19e7e7",
      "logs": [
        {
          "address": "0x01d8c2543c46a01f86f5eecc8a4648baf9f662b1",
          "topics": [
            "0x375b93db8e087a80beb91d1a191dd247767bb9df982963a9868fc739edf1f8c6",
            "0x0000000000000000000000007948a5ba72e3679b18402000707db7dcb5acde58",
            "0xc06fff0feca00a6b5b91321c867311cf7be66b92546aac218ac38692f61a4bba"
          ],
          "data": "0x000000000000000000000000000000000000000000000000000000006926520c0000000000000000000000000000000000000000000000000000000069265216",
          "blockHash": "0x357a18f96667ce9128ad75a9e74c28225a8d2f026c41e6e6be4432adf4d7f19a",
          "blockNumber": "0x2097909",
          "blockTimestamp": "0x692650f2",
          "transactionHash": "0x2167b6c993f5b62ed09819d8d6c447a1a994fb3344767c4e0be777a6ea33018a",
          "transactionIndex": "0x9",
          "logIndex": "0xe",
          "removed": false
        }
      ],
      "logsBloom": "0x00000000200000000000000000000000000000100000000000000000000000000000000000000000000000000000000000000000000000000000000014000000000000000000000000000000000000002000000000000000000000000000000000000000000000000000000000000000000000000000000000020000000000000000000000000000000000000000000000000000208000000000000000000000000000000000080000000000000000000000000000000000000000000000000000000000000000000000000000000000000000000040000000000000000000000000000002000000000000000000000000000000000080000000000000000000",
      "type": "0x2",
      "transactionHash": "0x2167b6c993f5b62ed09819d8d6c447a1a994fb3344767c4e0be777a6ea33018a",
      "transactionIndex": "0x9",
      "blockHash": "0x357a18f96667ce9128ad75a9e74c28225a8d2f026c41e6e6be4432adf4d7f19a",
      "blockNumber": "0x2097909",
      "gasUsed": "0x3ee60",
      "effectiveGasPrice": "0x124f80",
      "blobGasUsed": "0x79e0",
      "from": "0xc5b2130f38eac51a1b93723509237572963322e9",
      "to": "0x01d8c2543c46a01f86f5eecc8a4648baf9f662b1",
      "contractAddress": null,
      "daFootprintGasScalar": "0x138",
      "l1BaseFeeScalar": "0x44d",
      "l1BlobBaseFee": "0x1",
      "l1BlobBaseFeeScalar": "0xa118b",
      "l1Fee": "0x55",
      "l1GasPrice": "0xb",
      "l1GasUsed": "0x647"
    },
    {
      "status": "0x1",
      "cumulativeGasUsed": "0x1dd63b",
      "logs": [
        {
          "address": "0x01d8c2543c46a01f86f5eecc8a4648baf9f662b1",
          "topics": [
            "0x375b93db8e087a80beb91d1a191dd247767bb9df982963a9868fc739edf1f8c6",
            "0x00000000000000000000000003fd3eec4f937ccffa252c7ded64ac6b7813c661",
            "0x1114d3c9ad088e3d0f96aaee093bc732792370a5f73b271d8fa81954493d6e24"
          ],
          "data": "0x000000000000000000000000000000000000000000000000000000006926520c0000000000000000000000000000000000000000000000000000000069265216",
          "blockHash": "0x357a18f96667ce9128ad75a9e74c28225a8d2f026c41e6e6be4432adf4d7f19a",
          "blockNumber": "0x2097909",
          "blockTimestamp": "0x692650f2",
          "transactionHash": "0x1996d90418beb2b6dc1e76880ea1858949246374bdd6e65d2ae4e721888d5034",
          "transactionIndex": "0xa",
          "logIndex": "0xf",
          "removed": false
        }
      ],
      "logsBloom": "0x00000000200000000000000000000000000000000000000000000000000000000000000000000000000000000000000000000000000000000000000014000000000000000000000000000000000000000000000000000000000000000000100000080000000000000000000000000000040000000000000000000000000000000000000000000000000000000000000000000000008000000000000000000000000000000000080000000000000000000000000000000000000800000000000000000000000000000000000000000000000000000000400000000000010000000000000002000000000000000000000000000000000000000000000000000000",
      "type": "0x2",
      "transactionHash": "0x1996d90418beb2b6dc1e76880ea1858949246374bdd6e65d2ae4e721888d5034",
      "transactionIndex": "0xa",
      "blockHash": "0x357a18f96667ce9128ad75a9e74c28225a8d2f026c41e6e6be4432adf4d7f19a",
      "blockNumber": "0x2097909",
      "gasUsed": "0x3ee54",
      "effectiveGasPrice": "0x124f80",
      "blobGasUsed": "0x79e0",
      "from": "0xc5b2130f38eac51a1b93723509237572963322e9",
      "to": "0x01d8c2543c46a01f86f5eecc8a4648baf9f662b1",
      "contractAddress": null,
      "daFootprintGasScalar": "0x138",
      "l1BaseFeeScalar": "0x44d",
      "l1BlobBaseFee": "0x1",
      "l1BlobBaseFeeScalar": "0xa118b",
      "l1Fee": "0x55",
      "l1GasPrice": "0xb",
      "l1GasUsed": "0x647"
    },
    {
      "status": "0x1",
      "cumulativeGasUsed": "0x21c49b",
      "logs": [
        {
          "address": "0x01d8c2543c46a01f86f5eecc8a4648baf9f662b1",
          "topics": [
            "0x375b93db8e087a80beb91d1a191dd247767bb9df982963a9868fc739edf1f8c6",
            "0x000000000000000000000000b2423449979e279dbeda631876f395977766e9ed",
            "0xe3e8d31d5aa58e2efd2eb4f821ba717366a24a2ccd9cf66a0dcbd3769c907324"
          ],
          "data": "0x000000000000000000000000000000000000000000000000000000006926520c0000000000000000000000000000000000000000000000000000000069265216",
          "blockHash": "0x357a18f96667ce9128ad75a9e74c28225a8d2f026c41e6e6be4432adf4d7f19a",
          "blockNumber": "0x2097909",
          "blockTimestamp": "0x692650f2",
          "transactionHash": "0x10b8351a15ffc8b3822add915b9e8b2f6394868fe4344def9b4bfa33ea054a00",
          "transactionIndex": "0xb",
          "logIndex": "0x10",
          "removed": false
        }
      ],
      "logsBloom": "0x00000000200000000000010000000000000000000000000000000000000000000000000000000000000000000800000000000000000000000000000014000000000000000000000000000000000000000000000000000004000000000000000000000000000000000000000000000000000000000000000000000000000000000000000000000000000004000100000000000000008000000000000000000000000000000000080000000000000000000000000000000000000000000000000000000000000000000000000000000000000000000000000000000000000000000000000002000000000000000000000000000000000000000000000000000000",
      "type": "0x2",
      "transactionHash": "0x10b8351a15ffc8b3822add915b9e8b2f6394868fe4344def9b4bfa33ea054a00",
      "transactionIndex": "0xb",
      "blockHash": "0x357a18f96667ce9128ad75a9e74c28225a8d2f026c41e6e6be4432adf4d7f19a",
      "blockNumber": "0x2097909",
      "gasUsed": "0x3ee60",
      "effectiveGasPrice": "0x124f80",
      "blobGasUsed": "0x79e0",
      "from": "0xc5b2130f38eac51a1b93723509237572963322e9",
      "to": "0x01d8c2543c46a01f86f5eecc8a4648baf9f662b1",
      "contractAddress": null,
      "daFootprintGasScalar": "0x138",
      "l1BaseFeeScalar": "0x44d",
      "l1BlobBaseFee": "0x1",
      "l1BlobBaseFeeScalar": "0xa118b",
      "l1Fee": "0x55",
      "l1GasPrice": "0xb",
      "l1GasUsed": "0x647"
    },
    {
      "status": "0x1",
      "cumulativeGasUsed": "0x25b2fb",
      "logs": [
        {
          "address": "0x01d8c2543c46a01f86f5eecc8a4648baf9f662b1",
          "topics": [
            "0x375b93db8e087a80beb91d1a191dd247767bb9df982963a9868fc739edf1f8c6",
            "0x0000000000000000000000003a8ca8c568039e39382402ac3fc07a7510664ca2",
            "0x49c01aa93aff22bf1d8f74b8c7d121f0c223216116c3cb0efdaeeabbf57e3276"
          ],
          "data": "0x000000000000000000000000000000000000000000000000000000006926520c0000000000000000000000000000000000000000000000000000000069265216",
          "blockHash": "0x357a18f96667ce9128ad75a9e74c28225a8d2f026c41e6e6be4432adf4d7f19a",
          "blockNumber": "0x2097909",
          "blockTimestamp": "0x692650f2",
          "transactionHash": "0x2a660454302451844e3a8b60e2f4a5e3eceb0628ef025429de8f634034291fed",
          "transactionIndex": "0xc",
          "logIndex": "0x11",
          "removed": false
        }
      ],
      "logsBloom": "0x00000000200000000000000000000000000000000000000000000000000000000000000000000000000000000000000000000000000200000000000014000000000000000000020000000000000000000000000000000000000000000000000000000000001000000000000000000000000000000000000000000000000000000000000000000000000000000000000000000000008000000000000000000000000000000000080000000000000000000000000000000000000000000000000000000000000000000000000000000000000002000000000000000000000000000000000002000000000000000000010000000040000000000000000000000000",
      "type": "0x2",
      "transactionHash": "0x2a660454302451844e3a8b60e2f4a5e3eceb0628ef025429de8f634034291fed",
      "transactionIndex": "0xc",
      "blockHash": "0x357a18f96667ce9128ad75a9e74c28225a8d2f026c41e6e6be4432adf4d7f19a",
      "blockNumber": "0x2097909",
      "gasUsed": "0x3ee60",
      "effectiveGasPrice": "0x124f80",
      "blobGasUsed": "0x79e0",
      "from": "0xc5b2130f38eac51a1b93723509237572963322e9",
      "to": "0x01d8c2543c46a01f86f5eecc8a4648baf9f662b1",
      "contractAddress": null,
      "daFootprintGasScalar": "0x138",
      "l1BaseFeeScalar": "0x44d",
      "l1BlobBaseFee": "0x1",
      "l1BlobBaseFeeScalar": "0xa118b",
      "l1Fee": "0x55",
      "l1GasPrice": "0xb",
      "l1GasUsed": "0x647"
    },
    {
      "status": "0x1",
      "cumulativeGasUsed": "0x29a15b",
      "logs": [
        {
          "address": "0x01d8c2543c46a01f86f5eecc8a4648baf9f662b1",
          "topics": [
            "0x375b93db8e087a80beb91d1a191dd247767bb9df982963a9868fc739edf1f8c6",
            "0x0000000000000000000000005ea1f6d47b3f27e03ecb6c4a9f1df06afdcba402",
            "0xad4d50bfc5e6ea558c19e8d09c98366eb671aa9e0846a45be3db50fc518dd923"
          ],
          "data": "0x000000000000000000000000000000000000000000000000000000006926520c0000000000000000000000000000000000000000000000000000000069265216",
          "blockHash": "0x357a18f96667ce9128ad75a9e74c28225a8d2f026c41e6e6be4432adf4d7f19a",
          "blockNumber": "0x2097909",
          "blockTimestamp": "0x692650f2",
          "transactionHash": "0xd745758328cf2ac1ff59d96efb7d5f351025590d450cee058c3b4333a6e4df2e",
          "transactionIndex": "0xd",
          "logIndex": "0x12",
          "removed": false
        }
      ],
      "logsBloom": "0x00000000200000000000000000000000000000000000000000010000000000000000000000000000000000000000000000000000000000000000000014000000000000000000000000000000000000000000000002000010000000000000000040000000000000000000000000000000000000000000000000000000000000000000000000000000000000000000000000200000008000000000200000000000000000000000080000000000000000000000000000000000000000000000000000000000000000000000000000000000000000000000000000000000000000000000000002000000000000000000000000000000000000000000000000000000",
      "type": "0x2",
      "transactionHash": "0xd745758328cf2ac1ff59d96efb7d5f351025590d450cee058c3b4333a6e4df2e",
      "transactionIndex": "0xd",
      "blockHash": "0x357a18f96667ce9128ad75a9e74c28225a8d2f026c41e6e6be4432adf4d7f19a",
      "blockNumber": "0x2097909",
      "gasUsed": "0x3ee60",
      "effectiveGasPrice": "0x124f80",
      "blobGasUsed": "0x79e0",
      "from": "0xc5b2130f38eac51a1b93723509237572963322e9",
      "to": "0x01d8c2543c46a01f86f5eecc8a4648baf9f662b1",
      "contractAddress": null,
      "daFootprintGasScalar": "0x138",
      "l1BaseFeeScalar": "0x44d",
      "l1BlobBaseFee": "0x1",
      "l1BlobBaseFeeScalar": "0xa118b",
      "l1Fee": "0x55",
      "l1GasPrice": "0xb",
      "l1GasUsed": "0x647"
    },
    {
      "status": "0x1",
      "cumulativeGasUsed": "0x2d8fbb",
      "logs": [
        {
          "address": "0x01d8c2543c46a01f86f5eecc8a4648baf9f662b1",
          "topics": [
            "0x375b93db8e087a80beb91d1a191dd247767bb9df982963a9868fc739edf1f8c6",
            "0x0000000000000000000000007789b30a833311f97a5b9fb2334f453a59894744",
            "0x26b6306676f748f8f065e39410956de23f570ae6eaac5c54e50a3dfb7de564fe"
          ],
          "data": "0x000000000000000000000000000000000000000000000000000000006926520c0000000000000000000000000000000000000000000000000000000069265216",
          "blockHash": "0x357a18f96667ce9128ad75a9e74c28225a8d2f026c41e6e6be4432adf4d7f19a",
          "blockNumber": "0x2097909",
          "blockTimestamp": "0x692650f2",
          "transactionHash": "0xf6ca1e7b3acf44d857a2130ccbaf5c2196b939677c280ea5a690650d0226ca88",
          "transactionIndex": "0xe",
          "logIndex": "0x13",
          "removed": false
        }
      ],
      "logsBloom": "0x00000000200000000000000000000000000000000000000000000000000028000000000000000000000000000000000000000000000000000000100014000000000000000000000000000000000000000000000000000000000000000000000000000000000000000000000000000000000000000000000000000000000000000000000000000000000000000000000000000000008002080000000000000000000000000000080000000000000800000000000000000000000000000000000000000000000000000000000000000000000000000000000000000000000000000000000002000000000000000000000000000000000000000000000000000000",
      "type": "0x2",
      "transactionHash": "0xf6ca1e7b3acf44d857a2130ccbaf5c2196b939677c280ea5a690650d0226ca88",
      "transactionIndex": "0xe",
      "blockHash": "0x357a18f96667ce9128ad75a9e74c28225a8d2f026c41e6e6be4432adf4d7f19a",
      "blockNumber": "0x2097909",
      "gasUsed": "0x3ee60",
      "effectiveGasPrice": "0x124f80",
      "blobGasUsed": "0x79e0",
      "from": "0xc5b2130f38eac51a1b93723509237572963322e9",
      "to": "0x01d8c2543c46a01f86f5eecc8a4648baf9f662b1",
      "contractAddress": null,
      "daFootprintGasScalar": "0x138",
      "l1BaseFeeScalar": "0x44d",
      "l1BlobBaseFee": "0x1",
      "l1BlobBaseFeeScalar": "0xa118b",
      "l1Fee": "0x55",
      "l1GasPrice": "0xb",
      "l1GasUsed": "0x647"
    },
    {
      "status": "0x1",
      "cumulativeGasUsed": "0x317e1b",
      "logs": [
        {
          "address": "0x01d8c2543c46a01f86f5eecc8a4648baf9f662b1",
          "topics": [
            "0x375b93db8e087a80beb91d1a191dd247767bb9df982963a9868fc739edf1f8c6",
            "0x000000000000000000000000c7ce3186d973636e08ec483544b619b2fafde38a",
            "0xf4e69879b96e4009e6ae7249865470660f4a958f4ca64a0bf506a8ae79d7474e"
          ],
          "data": "0x000000000000000000000000000000000000000000000000000000006926520c0000000000000000000000000000000000000000000000000000000069265216",
          "blockHash": "0x357a18f96667ce9128ad75a9e74c28225a8d2f026c41e6e6be4432adf4d7f19a",
          "blockNumber": "0x2097909",
          "blockTimestamp": "0x692650f2",
          "transactionHash": "0x0fb207dff7c4dedca4bbbd1b8ba48d35281aeb83bb5366ba121648b776e9ec8a",
          "transactionIndex": "0xf",
          "logIndex": "0x14",
          "removed": false
        }
      ],
      "logsBloom": "0x00000000600000000000000000000000000000000000000000000000000000000000000000000000000000000000000000000000000000000000000214000000000000000000000000000000000000000000000000000000000000000000000000000000000000000000000000000000000000000000000000000000000000000000000000000000000000000000000000000000008000000000080000000000000000000000080000000000000000000000000000000000000000200000000000000000400000000000000000000000000000000000000000000000000000000200000002000000000000000000000000000000000000000000000000000000",
      "type": "0x2",
      "transactionHash": "0x0fb207dff7c4dedca4bbbd1b8ba48d35281aeb83bb5366ba121648b776e9ec8a",
      "transactionIndex": "0xf",
      "blockHash": "0x357a18f96667ce9128ad75a9e74c28225a8d2f026c41e6e6be4432adf4d7f19a",
      "blockNumber": "0x2097909",
      "gasUsed": "0x3ee60",
      "effectiveGasPrice": "0x124f80",
      "blobGasUsed": "0x79e0",
      "from": "0xc5b2130f38eac51a1b93723509237572963322e9",
      "to": "0x01d8c2543c46a01f86f5eecc8a4648baf9f662b1",
      "contractAddress": null,
      "daFootprintGasScalar": "0x138",
      "l1BaseFeeScalar": "0x44d",
      "l1BlobBaseFee": "0x1",
      "l1BlobBaseFeeScalar": "0xa118b",
      "l1Fee": "0x55",
      "l1GasPrice": "0xb",
      "l1GasUsed": "0x647"
    }
  ],
  "libraries": [],
  "pending": [],
  "returns": {},
  "timestamp": 1764118769317,
  "chain": 84532,
  "commit": "34feb80"
}