{
  "transactions": [
    {
      "hash": "0xb4d005b40835b088172c4e729f68f1fe3d04228cb7ffea08d06afa2bee5c0378",
      "transactionType": "CALL",
      "contractName": null,
      "contractAddress": "0x890f9830aecd1bac51fb544e77dbe9af2377427a",
      "function": "createMarket(bytes32,uint64,uint64)",
      "arguments": [
        "0xb395d62c7b6f2522c574c83fbe7470da693beefe52a5afde5cab569eb4d049a2",
        "1763639586",
        "1763640486"
      ],
      "transaction": {
        "from": "0xc5b2130f38eac51a1b93723509237572963322e9",
        "to": "0x890f9830aecd1bac51fb544e77dbe9af2377427a",
        "gas": "0x56e0e",
        "value": "0x0",
        "input": "0xaab38beeb395d62c7b6f2522c574c83fbe7470da693beefe52a5afde5cab569eb4d049a200000000000000000000000000000000000000000000000000000000691f012200000000000000000000000000000000000000000000000000000000691f04a6",
        "nonce": "0x89",
        "chainId": "0x14a34"
      },
      "additionalContracts": [
        {
          "transactionType": "CREATE",
          "contractName": null,
          "address": "0xaf4249ed4b7d66b6e65c328ed180f0d5e1bb4def",
          "initCode": "0x3d602d80600a3d3981f3363d3d373d3d3d363d7346609260c2e505ac2e0095aba9f6a2292604f7675af43d82803e903d91602b57fd5bf3"
        }
      ],
      "isFixedGasLimit": false
    },
    {
      "hash": "0xcb71e09c921aff076fddf9196b6dec014df01eab99dfedaffd0c60655111b3a3",
      "transactionType": "CALL",
      "contractName": null,
      "contractAddress": "0x890f9830aecd1bac51fb544e77dbe9af2377427a",
      "function": "createMarket(bytes32,uint64,uint64)",
      "arguments": [
        "0xbfeea3051e0d7479dac9d84e8aee88c39f000500127ad9c7cdb553c7c0dcd12c",
        "1763639586",
        "1763640486"
      ],
      "transaction": {
        "from": "0xc5b2130f38eac51a1b93723509237572963322e9",
        "to": "0x890f9830aecd1bac51fb544e77dbe9af2377427a",
        "gas": "0x56dec",
        "value": "0x0",
        "input": "0xaab38beebfeea3051e0d7479dac9d84e8aee88c39f000500127ad9c7cdb553c7c0dcd12c00000000000000000000000000000000000000000000000000000000691f012200000000000000000000000000000000000000000000000000000000691f04a6",
        "nonce": "0x8a",
        "chainId": "0x14a34"
      },
      "additionalContracts": [
        {
          "transactionType": "CREATE",
          "contractName": null,
          "address": "0x4cb37298badc7c589f1c24786a01155789048982",
          "initCode": "0x3d602d80600a3d3981f3363d3d373d3d3d363d7346609260c2e505ac2e0095aba9f6a2292604f7675af43d82803e903d91602b57fd5bf3"
        }
      ],
      "isFixedGasLimit": false
    },
    {
      "hash": "0xcb9d466b5607c30770ff82228e28b2fadd7f312185b310e010787fc4be6882ed",
      "transactionType": "CALL",
      "contractName": null,
      "contractAddress": "0x890f9830aecd1bac51fb544e77dbe9af2377427a",
      "function": "createMarket(bytes32,uint64,uint64)",
      "arguments": [
        "0xa4ec0537d65c9a595acf85a8e7c8c83e55ce7d7ad7461e85cfb5546b0522f451",
        "1763639586",
        "1763640486"
      ],
      "transaction": {
        "from": "0xc5b2130f38eac51a1b93723509237572963322e9",
        "to": "0x890f9830aecd1bac51fb544e77dbe9af2377427a",
        "gas": "0x56e0e",
        "value": "0x0",
        "input": "0xaab38beea4ec0537d65c9a595acf85a8e7c8c83e55ce7d7ad7461e85cfb5546b0522f45100000000000000000000000000000000000000000000000000000000691f012200000000000000000000000000000000000000000000000000000000691f04a6",
        "nonce": "0x8b",
        "chainId": "0x14a34"
      },
      "additionalContracts": [
        {
          "transactionType": "CREATE",
          "contractName": null,
          "address": "0x4a56405496d08b28592da3fd29eaa294e57dda2b",
          "initCode": "0x3d602d80600a3d3981f3363d3d373d3d3d363d7346609260c2e505ac2e0095aba9f6a2292604f7675af43d82803e903d91602b57fd5bf3"
        }
      ],
      "isFixedGasLimit": false
    },
    {
      "hash": "0x2c649b22924ceb6ee73d8d4632fc08d3447107e1ecce7293bc59ef3790a750ac",
      "transactionType": "CALL",
      "contractName": null,
      "contractAddress": "0x890f9830aecd1bac51fb544e77dbe9af2377427a",
      "function": "createMarket(bytes32,uint64,uint64)",
      "arguments": [
        "0xb0a03df1614dc916d38ffcdf3471f3738e99ec940c8ddf966106875442e67a3d",
        "1763639586",
        "1763640486"
      ],
      "transaction": {
        "from": "0xc5b2130f38eac51a1b93723509237572963322e9",
        "to": "0x890f9830aecd1bac51fb544e77dbe9af2377427a",
        "gas": "0x56e0e",
        "value": "0x0",
        "input": "0xaab38beeb0a03df1614dc916d38ffcdf3471f3738e99ec940c8ddf966106875442e67a3d00000000000000000000000000000000000000000000000000000000691f012200000000000000000000000000000000000000000000000000000000691f04a6",
        "nonce": "0x8c",
        "chainId": "0x14a34"
      },
      "additionalContracts": [
        {
          "transactionType": "CREATE",
          "contractName": null,
          "address": "0x08fa846f9a23e63eb1269644c66619f854249863",
          "initCode": "0x3d602d80600a3d3981f3363d3d373d3d3d363d7346609260c2e505ac2e0095aba9f6a2292604f7675af43d82803e903d91602b57fd5bf3"
        }
      ],
      "isFixedGasLimit": false
    },
    {
      "hash": "0x6362b7092905516986999fccb239bcb0ed7a75c408f4da4da1ecd7daa35db82a",
      "transactionType": "CALL",
      "contractName": null,
      "contractAddress": "0x890f9830aecd1bac51fb544e77dbe9af2377427a",
      "function": "createMarket(bytes32,uint64,uint64)",
      "arguments": [
        "0x8b5c4a8491b81198167a552b57d91bfaef17bfec3a95b4bac3d8dd17062cec2f",
        "1763639586",
        "1763640486"
      ],
      "transaction": {
        "from": "0xc5b2130f38eac51a1b93723509237572963322e9",
        "to": "0x890f9830aecd1bac51fb544e77dbe9af2377427a",
        "gas": "0x56e0e",
        "value": "0x0",
        "input": "0xaab38bee8b5c4a8491b81198167a552b57d91bfaef17bfec3a95b4bac3d8dd17062cec2f00000000000000000000000000000000000000000000000000000000691f012200000000000000000000000000000000000000000000000000000000691f04a6",
        "nonce": "0x8d",
        "chainId": "0x14a34"
      },
      "additionalContracts": [
        {
          "transactionType": "CREATE",
          "contractName": null,
          "address": "0x9b4ea5aa5ec28f22901dbfa6067d103432121f5b",
          "initCode": "0x3d602d80600a3d3981f3363d3d373d3d3d363d7346609260c2e505ac2e0095aba9f6a2292604f7675af43d82803e903d91602b57fd5bf3"
        }
      ],
      "isFixedGasLimit": false
    },
    {
      "hash": "0xdda270dafc5b44edf635451e526753ac7ec44d6a99e5e7999fa522e97f253285",
      "transactionType": "CALL",
      "contractName": null,
      "contractAddress": "0x890f9830aecd1bac51fb544e77dbe9af2377427a",
      "function": "createMarket(bytes32,uint64,uint64)",
      "arguments": [
        "0xb35e359c5b56a7076ac6cec683cb8d2de29253b12a9c51574bedecb6cb1cd719",
        "1763639586",
        "1763640486"
      ],
      "transaction": {
        "from": "0xc5b2130f38eac51a1b93723509237572963322e9",
        "to": "0x890f9830aecd1bac51fb544e77dbe9af2377427a",
        "gas": "0x56e0e",
        "value": "0x0",
        "input": "0xaab38beeb35e359c5b56a7076ac6cec683cb8d2de29253b12a9c51574bedecb6cb1cd71900000000000000000000000000000000000000000000000000000000691f012200000000000000000000000000000000000000000000000000000000691f04a6",
        "nonce": "0x8e",
        "chainId": "0x14a34"
      },
      "additionalContracts": [
        {
          "transactionType": "CREATE",
          "contractName": null,
          "address": "0x2e6e250de1b75241ce24e492c9f3c5acae1e688a",
          "initCode": "0x3d602d80600a3d3981f3363d3d373d3d3d363d7346609260c2e505ac2e0095aba9f6a2292604f7675af43d82803e903d91602b57fd5bf3"
        }
      ],
      "isFixedGasLimit": false
    },
    {
      "hash": "0x1fb0cce5d0c15437f9434094add544172ba6c57508d7d5c4c4e47323beb027d6",
      "transactionType": "CALL",
      "contractName": null,
      "contractAddress": "0x890f9830aecd1bac51fb544e77dbe9af2377427a",
      "function": "createMarket(bytes32,uint64,uint64)",
      "arguments": [
        "0x881cfd0befe5b8463facdbb4c003d57375e3bd50dae5090dfaeb8721dd32d608",
        "1763639586",
        "1763640486"
      ],
      "transaction": {
        "from": "0xc5b2130f38eac51a1b93723509237572963322e9",
        "to": "0x890f9830aecd1bac51fb544e77dbe9af2377427a",
        "gas": "0x56e0e",
        "value": "0x0",
        "input": "0xaab38bee881cfd0befe5b8463facdbb4c003d57375e3bd50dae5090dfaeb8721dd32d60800000000000000000000000000000000000000000000000000000000691f012200000000000000000000000000000000000000000000000000000000691f04a6",
        "nonce": "0x8f",
        "chainId": "0x14a34"
      },
      "additionalContracts": [
        {
          "transactionType": "CREATE",
          "contractName": null,
          "address": "0x8e247aca238d8f7b3e13b65c8a10c968698c6ca2",
          "initCode": "0x3d602d80600a3d3981f3363d3d373d3d3d363d7346609260c2e505ac2e0095aba9f6a2292604f7675af43d82803e903d91602b57fd5bf3"
        }
      ],
      "isFixedGasLimit": false
    },
    {
      "hash": "0xda006eaeaeb67ce0ea3778291e76e00f12363e4a424cca09cacc360c74b20fd5",
      "transactionType": "CALL",
      "contractName": null,
      "contractAddress": "0x890f9830aecd1bac51fb544e77dbe9af2377427a",
      "function": "createMarket(bytes32,uint64,uint64)",
      "arguments": [
        "0x265e6000476df12d1b7487e5b2ccbb07163b472b8ebf53c2bfaf937fdb6fc137",
        "1763639586",
        "1763640486"
      ],
      "transaction": {
        "from": "0xc5b2130f38eac51a1b93723509237572963322e9",
        "to": "0x890f9830aecd1bac51fb544e77dbe9af2377427a",
        "gas": "0x56dfd",
        "value": "0x0",
        "input": "0xaab38bee265e6000476df12d1b7487e5b2ccbb07163b472b8ebf53c2bfaf937fdb6fc13700000000000000000000000000000000000000000000000000000000691f012200000000000000000000000000000000000000000000000000000000691f04a6",
        "nonce": "0x90",
        "chainId": "0x14a34"
      },
      "additionalContracts": [
        {
          "transactionType": "CREATE",
          "contractName": null,
          "address": "0xc2bb3f4c335365a298aaeb46f0e80e5d82d88c14",
          "initCode": "0x3d602d80600a3d3981f3363d3d373d3d3d363d7346609260c2e505ac2e0095aba9f6a2292604f7675af43d82803e903d91602b57fd5bf3"
        }
      ],
      "isFixedGasLimit": false
    },
    {
      "hash": "0x0bd9ab08e1cb63daecdfb5375f066d804fff7df0a06be01d1f3c42c3c6a6b089",
      "transactionType": "CALL",
      "contractName": null,
      "contractAddress": "0x890f9830aecd1bac51fb544e77dbe9af2377427a",
      "function": "createMarket(bytes32,uint64,uint64)",
      "arguments": [
        "0x5a04333591cd6f382548a1c24da0279b155e172f920c61303b089bf05e9def6b",
        "1763639586",
        "1763640486"
      ],
      "transaction": {
        "from": "0xc5b2130f38eac51a1b93723509237572963322e9",
        "to": "0x890f9830aecd1bac51fb544e77dbe9af2377427a",
        "gas": "0x56e0e",
        "value": "0x0",
        "input": "0xaab38bee5a04333591cd6f382548a1c24da0279b155e172f920c61303b089bf05e9def6b00000000000000000000000000000000000000000000000000000000691f012200000000000000000000000000000000000000000000000000000000691f04a6",
        "nonce": "0x91",
        "chainId": "0x14a34"
      },
      "additionalContracts": [
        {
          "transactionType": "CREATE",
          "contractName": null,
          "address": "0xf949c36ff4c812d267914551b6538ec7695049dc",
          "initCode": "0x3d602d80600a3d3981f3363d3d373d3d3d363d7346609260c2e505ac2e0095aba9f6a2292604f7675af43d82803e903d91602b57fd5bf3"
        }
      ],
      "isFixedGasLimit": false
    },
    {
      "hash": "0xe913140b59b239fc4cd1e7968ca9df0adb7643da2589d449ddd98d599986f6c6",
      "transactionType": "CALL",
      "contractName": null,
      "contractAddress": "0x890f9830aecd1bac51fb544e77dbe9af2377427a",
      "function": "createMarket(bytes32,uint64,uint64)",
      "arguments": [
        "0xb9451cf85ac3176db60c87dfd0572a21c7e31ffd100abd36de28737131aaa996",
        "1763639586",
        "1763640486"
      ],
      "transaction": {
        "from": "0xc5b2130f38eac51a1b93723509237572963322e9",
        "to": "0x890f9830aecd1bac51fb544e77dbe9af2377427a",
        "gas": "0x56e0e",
        "value": "0x0",
        "input": "0xaab38beeb9451cf85ac3176db60c87dfd0572a21c7e31ffd100abd36de28737131aaa99600000000000000000000000000000000000000000000000000000000691f012200000000000000000000000000000000000000000000000000000000691f04a6",
        "nonce": "0x92",
        "chainId": "0x14a34"
      },
      "additionalContracts": [
        {
          "transactionType": "CREATE",
          "contractName": null,
          "address": "0x31c3e8df5adfa31a1250f22de5a391ec92136272",
          "initCode": "0x3d602d80600a3d3981f3363d3d373d3d3d363d7346609260c2e505ac2e0095aba9f6a2292604f7675af43d82803e903d91602b57fd5bf3"
        }
      ],
      "isFixedGasLimit": false
    }
  ],
  "receipts": [
    {
      "status": "0x1",
      "cumulativeGasUsed": "0x97ad92",
      "logs": [
        {
          "address": "0x890f9830aecd1bac51fb544e77dbe9af2377427a",
          "topics": [
            "0x375b93db8e087a80beb91d1a191dd247767bb9df982963a9868fc739edf1f8c6",
            "0x000000000000000000000000af4249ed4b7d66b6e65c328ed180f0d5e1bb4def",
            "0x89c86e40e3d46ed9007832fba8d9eb1e2d739aa607c5e48676dab0dd3d1baa57"
          ],
          "data": "0x00000000000000000000000000000000000000000000000000000000691f012200000000000000000000000000000000000000000000000000000000691f04a6",
          "blockHash": "0x47eaed4916f6403a5c61308c0a74b9f33ac1d5981686447aabf07f5f5b1d3353",
          "blockNumber": "0x2052868",
          "blockTimestamp": "0x691dafb0",
          "transactionHash": "0xb4d005b40835b088172c4e729f68f1fe3d04228cb7ffea08d06afa2bee5c0378",
          "transactionIndex": "0x18",
          "logIndex": "0x84",
          "removed": false
        }
      ],
      "logsBloom": "0x00000000000000000000000000000000000000000000000000000000000000000000001000000000000000000000000000000000040000000000000014000000000000000000000000200000000000000000000000000000000000000000000000400000000000000000000000000000000000000000000000000000000000000000000000000000000000000000000000000000000000000000000000000000000000000000080000000000000000000000000000000000000000000000000000000000000000000000000000400000000000000000020000000000000000040000001000000000000000000000000000010000000000000000000000000000",
      "type": "0x2",
      "transactionHash": "0xb4d005b40835b088172c4e729f68f1fe3d04228cb7ffea08d06afa2bee5c0378",
      "transactionIndex": "0x18",
      "blockHash": "0x47eaed4916f6403a5c61308c0a74b9f33ac1d5981686447aabf07f5f5b1d3353",
      "blockNumber": "0x2052868",
      "gasUsed": "0x3ee60",
      "effectiveGasPrice": "0xf43fc",
      "from": "0xc5b2130f38eac51a1b93723509237572963322e9",
      "to": "0x890f9830aecd1bac51fb544e77dbe9af2377427a",
      "contractAddress": null,
      "l1BaseFeeScalar": "0x44d",
      "l1BlobBaseFee": "0x6",
      "l1BlobBaseFeeScalar": "0xa118b",
      "l1Fee": "0x326",
      "l1GasPrice": "0x61",
      "l1GasUsed": "0x647"
    },
    {
      "status": "0x1",
      "cumulativeGasUsed": "0x9b9bda",
      "logs": [
        {
          "address": "0x890f9830aecd1bac51fb544e77dbe9af2377427a",
          "topics": [
            "0x375b93db8e087a80beb91d1a191dd247767bb9df982963a9868fc739edf1f8c6",
            "0x0000000000000000000000004cb37298badc7c589f1c24786a01155789048982",
            "0x049fcfa1f455d180372f7fbec51115963c6b39e4bacfa03370a11909736cc4cc"
          ],
          "data": "0x00000000000000000000000000000000000000000000000000000000691f012200000000000000000000000000000000000000000000000000000000691f04a6",
          "blockHash": "0x47eaed4916f6403a5c61308c0a74b9f33ac1d5981686447aabf07f5f5b1d3353",
          "blockNumber": "0x2052868",
          "blockTimestamp": "0x691dafb0",
          "transactionHash": "0xcb71e09c921aff076fddf9196b6dec014df01eab99dfedaffd0c60655111b3a3",
          "transactionIndex": "0x19",
          "logIndex": "0x85",
          "removed": false
        }
      ],
      "logsBloom": "0x00000000000000000000000000000000000000000000000000000000000000000000000000000000000000000008000000000000000000000000000014000000000000000000000000200000000000000000000000000000000000000000000000400000000000000000000000000000000000000000000000000000000000000000000000000000000000000000000000000000000001000000000000000000000000000000080000000000000000020000000000000000000000000002000000000000000000000000002000000000010000000000000000000000000000000000001000000000000000000000000000000000000000000000000000000000",
      "type": "0x2",
      "transactionHash": "0xcb71e09c921aff076fddf9196b6dec014df01eab99dfedaffd0c60655111b3a3",
      "transactionIndex": "0x19",
      "blockHash": "0x47eaed4916f6403a5c61308c0a74b9f33ac1d5981686447aabf07f5f5b1d3353",
      "blockNumber": "0x2052868",
      "gasUsed": "0x3ee48",
      "effectiveGasPrice": "0xf43fc",
      "from": "0xc5b2130f38eac51a1b93723509237572963322e9",
      "to": "0x890f9830aecd1bac51fb544e77dbe9af2377427a",
      "contractAddress": null,
      "l1BaseFeeScalar": "0x44d",
      "l1BlobBaseFee": "0x6",
      "l1BlobBaseFeeScalar": "0xa118b",
      "l1Fee": "0x326",
      "l1GasPrice": "0x61",
      "l1GasUsed": "0x647"
    },
    {
      "status": "0x1",
      "cumulativeGasUsed": "0x9f8a3a",
      "logs": [
        {
          "address": "0x890f9830aecd1bac51fb544e77dbe9af2377427a",
          "topics": [
            "0x375b93db8e087a80beb91d1a191dd247767bb9df982963a9868fc739edf1f8c6",
            "0x0000000000000000000000004a56405496d08b28592da3fd29eaa294e57dda2b",
            "0x66870f44304d59b703eadfd3fe3368c87bccc5f724558558371f4f6a2e6448a9"
          ],
          "data": "0x00000000000000000000000000000000000000000000000000000000691f012200000000000000000000000000000000000000000000000000000000691f04a6",
          "blockHash": "0x47eaed4916f6403a5c61308c0a74b9f33ac1d5981686447aabf07f5f5b1d3353",
          "blockNumber": "0x2052868",
          "blockTimestamp": "0x691dafb0",
          "transactionHash": "0xcb9d466b5607c30770ff82228e28b2fadd7f312185b310e010787fc4be6882ed",
          "transactionIndex": "0x1a",
          "logIndex": "0x86",
          "removed": false
        }
      ],
      "logsBloom": "0x00000000000000000000800000000000040000000000000000000000000000000000000000000000000000000000000000000000000000000000000014000000000000000000400000200000000000000000000000000000000000000000000000400000000000000000000000000000000000000000000000001000000000000000000000000000000000000400000000000000000000000000000000000000000000000000080000000000000000000000000000000000000000000000000000000000000000400000000000000000000000000000000000000000000000000000001000000000000000000000000000000000000000000000000000000000",
      "type": "0x2",
      "transactionHash": "0xcb9d466b5607c30770ff82228e28b2fadd7f312185b310e010787fc4be6882ed",
      "transactionIndex": "0x1a",
      "blockHash": "0x47eaed4916f6403a5c61308c0a74b9f33ac1d5981686447aabf07f5f5b1d3353",
      "blockNumber": "0x2052868",
      "gasUsed": "0x3ee60",
      "effectiveGasPrice": "0xf43fc",
      "from": "0xc5b2130f38eac51a1b93723509237572963322e9",
      "to": "0x890f9830aecd1bac51fb544e77dbe9af2377427a",
      "contractAddress": null,
      "l1BaseFeeScalar": "0x44d",
      "l1BlobBaseFee": "0x6",
      "l1BlobBaseFeeScalar": "0xa118b",
      "l1Fee": "0x326",
      "l1GasPrice": "0x61",
      "l1GasUsed": "0x647"
    },
    {
      "status": "0x1",
      "cumulativeGasUsed": "0xa3789a",
      "logs": [
        {
          "address": "0x890f9830aecd1bac51fb544e77dbe9af2377427a",
          "topics": [
            "0x375b93db8e087a80beb91d1a191dd247767bb9df982963a9868fc739edf1f8c6",
            "0x00000000000000000000000008fa846f9a23e63eb1269644c66619f854249863",
            "0x9434dc587e264a729aa153793a54641f241dcb28edae425850a5611b60468150"
          ],
          "data": "0x00000000000000000000000000000000000000000000000000000000691f012200000000000000000000000000000000000000000000000000000000691f04a6",
          "blockHash": "0x47eaed4916f6403a5c61308c0a74b9f33ac1d5981686447aabf07f5f5b1d3353",
          "blockNumber": "0x2052868",
          "blockTimestamp": "0x691dafb0",
          "transactionHash": "0x2c649b22924ceb6ee73d8d4632fc08d3447107e1ecce7293bc59ef3790a750ac",
          "transactionIndex": "0x1b",
          "logIndex": "0x87",
          "removed": false
        }
      ],
      "logsBloom": "0x00000000000000000000000000000000000000000000000000000000000000000000000000000000000010000000000020000000000000000000000014000000000000000000000000200000000000000000000000000000000000000000000000400000000000004000000000000000000000000000000000000000020000000000000000000000000000000000000000000000000000000000000000000000000000000000080000000000400000000000020000000000000000000000000000000000000000000000000000000000000000000000000000000000000000000000001000000000000000000000000000000000000000000000000000000000",
      "type": "0x2",
      "transactionHash": "0x2c649b22924ceb6ee73d8d4632fc08d3447107e1ecce7293bc59ef3790a750ac",
      "transactionIndex": "0x1b",
      "blockHash": "0x47eaed4916f6403a5c61308c0a74b9f33ac1d5981686447aabf07f5f5b1d3353",
      "blockNumber": "0x2052868",
      "gasUsed": "0x3ee60",
      "effectiveGasPrice": "0xf43fc",
      "from": "0xc5b2130f38eac51a1b93723509237572963322e9",
      "to": "0x890f9830aecd1bac51fb544e77dbe9af2377427a",
      "contractAddress": null,
      "l1BaseFeeScalar": "0x44d",
      "l1BlobBaseFee": "0x6",
      "l1BlobBaseFeeScalar": "0xa118b",
      "l1Fee": "0x326",
      "l1GasPrice": "0x61",
      "l1GasUsed": "0x647"
    },
    {
      "status": "0x1",
      "cumulativeGasUsed": "0xa766fa",
      "logs": [
        {
          "address": "0x890f9830aecd1bac51fb544e77dbe9af2377427a",
          "topics": [
            "0x375b93db8e087a80beb91d1a191dd247767bb9df982963a9868fc739edf1f8c6",
            "0x0000000000000000000000009b4ea5aa5ec28f22901dbfa6067d103432121f5b",
            "0xfb19c0195d97268a51eaf04e91885ea183eea093fcae3329ebda1b93ed30f998"
          ],
          "data": "0x00000000000000000000000000000000000000000000000000000000691f012200000000000000000000000000000000000000000000000000000000691f04a6",
          "blockHash": "0x47eaed4916f6403a5c61308c0a74b9f33ac1d5981686447aabf07f5f5b1d3353",
          "blockNumber": "0x2052868",
          "blockTimestamp": "0x691dafb0",
          "transactionHash": "0x6362b7092905516986999fccb239bcb0ed7a75c408f4da4da1ecd7daa35db82a",
          "transactionIndex": "0x1c",
          "logIndex": "0x88",
          "removed": false
        }
      ],
      "logsBloom": "0x00000000000000000000000000000000000000000000000000000000000000000000000000000000000000020000000000000000000000000000000014000000000000000000000000280000000000000000000000000000000000000000000000400000000000000000000000000000000000000000000000000000000000000000000000000000000000000002000000000000000000000000000000000000000000000000080000000000000000000000000000000000000000000000000000000000800000000000000000000000000000000000000400000000000000000000001000000000001000000000000000000000000000000000000000000000",
      "type": "0x2",
      "transactionHash": "0x6362b7092905516986999fccb239bcb0ed7a75c408f4da4da1ecd7daa35db82a",
      "transactionIndex": "0x1c",
      "blockHash": "0x47eaed4916f6403a5c61308c0a74b9f33ac1d5981686447aabf07f5f5b1d3353",
      "blockNumber": "0x2052868",
      "gasUsed": "0x3ee60",
      "effectiveGasPrice": "0xf43fc",
      "from": "0xc5b2130f38eac51a1b93723509237572963322e9",
      "to": "0x890f9830aecd1bac51fb544e77dbe9af2377427a",
      "contractAddress": null,
      "l1BaseFeeScalar": "0x44d",
      "l1BlobBaseFee": "0x6",
      "l1BlobBaseFeeScalar": "0xa118b",
      "l1Fee": "0x326",
      "l1GasPrice": "0x61",
      "l1GasUsed": "0x647"
    },
    {
      "status": "0x1",
      "cumulativeGasUsed": "0xab555a",
      "logs": [
        {
          "address": "0x890f9830aecd1bac51fb544e77dbe9af2377427a",
          "topics": [
            "0x375b93db8e087a80beb91d1a191dd247767bb9df982963a9868fc739edf1f8c6",
            "0x0000000000000000000000002e6e250de1b75241ce24e492c9f3c5acae1e688a",
            "0xfead126df24a94927bfa08eabdd8205269858856925287448b3db709b46fb499"
          ],
          "data": "0x00000000000000000000000000000000000000000000000000000000691f012200000000000000000000000000000000000000000000000000000000691f04a6",
          "blockHash": "0x47eaed4916f6403a5c61308c0a74b9f33ac1d5981686447aabf07f5f5b1d3353",
          "blockNumber": "0x2052868",
          "blockTimestamp": "0x691dafb0",
          "transactionHash": "0xdda270dafc5b44edf635451e526753ac7ec44d6a99e5e7999fa522e97f253285",
          "transactionIndex": "0x1d",
          "logIndex": "0x89",
          "removed": false
        }
      ],
      "logsBloom": "0x0000000000000000000000000000000000000000000000000000000000000000000000000000000000000000000000000000000000000000000000001400000000000000000000000020000008000000000000000000000000000000000000000040000a000000000000000000000000000000000000000000000000000000000000000000000000000000000000000000000000000000000000000000000000004000000000080000000000000000000000000000000000000000000000000000000000000000000000000000000000000000000000000000000000000000000000001000000000010000000000000000000000040000000000000000000000",
      "type": "0x2",
      "transactionHash": "0xdda270dafc5b44edf635451e526753ac7ec44d6a99e5e7999fa522e97f253285",
      "transactionIndex": "0x1d",
      "blockHash": "0x47eaed4916f6403a5c61308c0a74b9f33ac1d5981686447aabf07f5f5b1d3353",
      "blockNumber": "0x2052868",
      "gasUsed": "0x3ee60",
      "effectiveGasPrice": "0xf43fc",
      "from": "0xc5b2130f38eac51a1b93723509237572963322e9",
      "to": "0x890f9830aecd1bac51fb544e77dbe9af2377427a",
      "contractAddress": null,
      "l1BaseFeeScalar": "0x44d",
      "l1BlobBaseFee": "0x6",
      "l1BlobBaseFeeScalar": "0xa118b",
      "l1Fee": "0x326",
      "l1GasPrice": "0x61",
      "l1GasUsed": "0x647"
    },
    {
      "status": "0x1",
      "cumulativeGasUsed": "0xaf43ba",
      "logs": [
        {
          "address": "0x890f9830aecd1bac51fb544e77dbe9af2377427a",
          "topics": [
            "0x375b93db8e087a80beb91d1a191dd247767bb9df982963a9868fc739edf1f8c6",
            "0x0000000000000000000000008e247aca238d8f7b3e13b65c8a10c968698c6ca2",
            "0x421de9d250282d78ceb4856d1516d63585a7d301398eaa24ff3fab38635b182c"
          ],
          "data": "0x00000000000000000000000000000000000000000000000000000000691f012200000000000000000000000000000000000000000000000000000000691f04a6",
          "blockHash": "0x47eaed4916f6403a5c61308c0a74b9f33ac1d5981686447aabf07f5f5b1d3353",
          "blockNumber": "0x2052868",
          "blockTimestamp": "0x691dafb0",
          "transactionHash": "0x1fb0cce5d0c15437f9434094add544172ba6c57508d7d5c4c4e47323beb027d6",
          "transactionIndex": "0x1e",
          "logIndex": "0x8a",
          "removed": false
        }
      ],
      "logsBloom": "0x02000000000000000000000000000000000000400000000000000000000000000000000000000000000000000000000000000000000000000000000014000000000000000000000000200000000000000000000000000000000000000000000000400000000000000000020000000000000000000000000000000000000000000000000000000100000000000000000000000000000000000000000000000000000000000000080000000000000000000000000000100000000000000000000000000000000000000000000000000000000000000000000000001000000000000000001000000000000000000000000000000000000000000000000000000000",
      "type": "0x2",
      "transactionHash": "0x1fb0cce5d0c15437f9434094add544172ba6c57508d7d5c4c4e47323beb027d6",
      "transactionIndex": "0x1e",
      "blockHash": "0x47eaed4916f6403a5c61308c0a74b9f33ac1d5981686447aabf07f5f5b1d3353",
      "blockNumber": "0x2052868",
      "gasUsed": "0x3ee60",
      "effectiveGasPrice": "0xf43fc",
      "from": "0xc5b2130f38eac51a1b93723509237572963322e9",
      "to": "0x890f9830aecd1bac51fb544e77dbe9af2377427a",
      "contractAddress": null,
      "l1BaseFeeScalar": "0x44d",
      "l1BlobBaseFee": "0x6",
      "l1BlobBaseFeeScalar": "0xa118b",
      "l1Fee": "0x326",
      "l1GasPrice": "0x61",
      "l1GasUsed": "0x647"
    },
    {
      "status": "0x1",
      "cumulativeGasUsed": "0xb52a85",
      "logs": [
        {
          "address": "0x890f9830aecd1bac51fb544e77dbe9af2377427a",
          "topics": [
            "0x375b93db8e087a80beb91d1a191dd247767bb9df982963a9868fc739edf1f8c6",
            "0x000000000000000000000000c2bb3f4c335365a298aaeb46f0e80e5d82d88c14",
            "0x31ce30d33412c1833cd49bedf23f6cc8c99c67ee613b604d0361d3bba1806910"
          ],
          "data": "0x00000000000000000000000000000000000000000000000000000000691f012200000000000000000000000000000000000000000000000000000000691f04a6",
          "blockHash": "0x47eaed4916f6403a5c61308c0a74b9f33ac1d5981686447aabf07f5f5b1d3353",
          "blockNumber": "0x2052868",
          "blockTimestamp": "0x691dafb0",
          "transactionHash": "0xda006eaeaeb67ce0ea3778291e76e00f12363e4a424cca09cacc360c74b20fd5",
          "transactionIndex": "0x20",
          "logIndex": "0x8f",
          "removed": false
        }
      ],
      "logsBloom": "0x00000000000000000000000000000000000000000000000000000000000000000000000000000000000000000000000004000000000000000000000014000000000000000000000000200000000000000000000000000000000000000000000000400000000000000000000000000000000000000000000000100000000000000000000000000000000000000000000000000000004000000000000000000000000000000000080000000000000000000000000000000000000000000000000000000000000000000000400000000000000000000000000008000000000000000000001000000000000000000000000000000000000000000000000200000000",
      "type": "0x2",
      "transactionHash": "0xda006eaeaeb67ce0ea3778291e76e00f12363e4a424cca09cacc360c74b20fd5",
      "transactionIndex": "0x20",
      "blockHash": "0x47eaed4916f6403a5c61308c0a74b9f33ac1d5981686447aabf07f5f5b1d3353",
      "blockNumber": "0x2052868",
      "gasUsed": "0x3ee54",
      "effectiveGasPrice": "0xf43fc",
      "from": "0xc5b2130f38eac51a1b93723509237572963322e9",
      "to": "0x890f9830aecd1bac51fb544e77dbe9af2377427a",
      "contractAddress": null,
      "l1BaseFeeScalar": "0x44d",
      "l1BlobBaseFee": "0x6",
      "l1BlobBaseFeeScalar": "0xa118b",
      "l1Fee": "0x326",
      "l1GasPrice": "0x61",
      "l1GasUsed": "0x647"
    },
    {
      "status": "0x1",
      "cumulativeGasUsed": "0xb918e5",
      "logs": [
        {
          "address": "0x890f9830aecd1bac51fb544e77dbe9af2377427a",
          "topics": [
            "0x375b93db8e087a80beb91d1a191dd247767bb9df982963a9868fc739edf1f8c6",
            "0x000000000000000000000000f949c36ff4c812d267914551b6538ec7695049dc",
            "0xc38f1fbf5d04a9ff24a4bd0f4471017cf34a2c9101573c6ba8148eaa76c12d07"
          ],
          "data": "0x00000000000000000000000000000000000000000000000000000000691f012200000000000000000000000000000000000000000000000000000000691f04a6",
          "blockHash": "0x47eaed4916f6403a5c61308c0a74b9f33ac1d5981686447aabf07f5f5b1d3353",
          "blockNumber": "0x2052868",
          "blockTimestamp": "0x691dafb0",
          "transactionHash": "0x0bd9ab08e1cb63daecdfb5375f066d804fff7df0a06be01d1f3c42c3c6a6b089",
          "transactionIndex": "0x21",
          "logIndex": "0x90",
          "removed": false
        }
      ],
      "logsBloom": "0x00000000000000000000000000000800000000000000000000000000000000000000000000000000000000000000000000000000000000000000000014000000000000400000000000200000000000000000000000000000000000000000000000400000010000000000000000000000000000000000000000000000000000000000000000000000000000000000000000000000000000000000000000000000000000000000080000000000004000000000000000000000000000000000000000000000000000000000000000000000000000000000000000000008000000000000001000000000000000000000000000000000000000000000000000001000",
      "type": "0x2",
      "transactionHash": "0x0bd9ab08e1cb63daecdfb5375f066d804fff7df0a06be01d1f3c42c3c6a6b089",
      "transactionIndex": "0x21",
      "blockHash": "0x47eaed4916f6403a5c61308c0a74b9f33ac1d5981686447aabf07f5f5b1d3353",
      "blockNumber": "0x2052868",
      "gasUsed": "0x3ee60",
      "effectiveGasPrice": "0xf43fc",
      "from": "0xc5b2130f38eac51a1b93723509237572963322e9",
      "to": "0x890f9830aecd1bac51fb544e77dbe9af2377427a",
      "contractAddress": null,
      "l1BaseFeeScalar": "0x44d",
      "l1BlobBaseFee": "0x6",
      "l1BlobBaseFeeScalar": "0xa118b",
      "l1Fee": "0x326",
      "l1GasPrice": "0x61",
      "l1GasUsed": "0x647"
    },
    {
      "status": "0x1",
      "cumulativeGasUsed": "0xbd0745",
      "logs": [
        {
          "address": "0x890f9830aecd1bac51fb544e77dbe9af2377427a",
          "topics": [
            "0x375b93db8e087a80beb91d1a191dd247767bb9df982963a9868fc739edf1f8c6",
            "0x00000000000000000000000031c3e8df5adfa31a1250f22de5a391ec92136272",
            "0x78f7d27fabd2f655a8979a3efedcdb8222cfa0db801e59d2ffe82c2b05db6f2e"
          ],
          "data": "0x00000000000000000000000000000000000000000000000000000000691f012200000000000000000000000000000000000000000000000000000000691f04a6",
          "blockHash": "0x47eaed4916f6403a5c61308c0a74b9f33ac1d5981686447aabf07f5f5b1d3353",
          "blockNumber": "0x2052868",
          "blockTimestamp": "0x691dafb0",
          "transactionHash": "0xe913140b59b239fc4cd1e7968ca9df0adb7643da2589d449ddd98d599986f6c6",
          "transactionIndex": "0x22",
          "logIndex": "0x91",
          "removed": false
        }
      ],
      "logsBloom": "0x00000000000008000000000000000000000000000000000000000000000000000000000000000000000000000000000000000000000000000000000014000000000000000000000000200000000000000000000000000000000000000000000000401000000000000000000000000000000000000000000000000000000000000000000000000000000000000000000000000000000000000000001000000000000000000000080000000000000000000004000000000000000000000000000000000000000000000000000000000000000000000000000000000000000000000000001000000000000000000000000000000000000000004000000000000000",
      "type": "0x2",
      "transactionHash": "0xe913140b59b239fc4cd1e7968ca9df0adb7643da2589d449ddd98d599986f6c6",
      "transactionIndex": "0x22",
      "blockHash": "0x47eaed4916f6403a5c61308c0a74b9f33ac1d5981686447aabf07f5f5b1d3353",
      "blockNumber": "0x2052868",
      "gasUsed": "0x3ee60",
      "effectiveGasPrice": "0xf43fc",
      "from": "0xc5b2130f38eac51a1b93723509237572963322e9",
      "to": "0x890f9830aecd1bac51fb544e77dbe9af2377427a",
      "contractAddress": null,
      "l1BaseFeeScalar": "0x44d",
      "l1BlobBaseFee": "0x6",
      "l1BlobBaseFeeScalar": "0xa118b",
      "l1Fee": "0x326",
      "l1GasPrice": "0x61",
      "l1GasUsed": "0x647"
    }
  ],
  "libraries": [],
  "pending": [],
  "returns": {},
  "timestamp": 1763553199875,
  "chain": 84532,
  "commit": "dcb7368"
}