{
  "transactions": [
    {
      "hash": "0xbd5c6d52c5251ddad66adfe2e2e5e193413fa0d4221a40cb196ec5659f489768",
      "transactionType": "CALL",
      "contractName": null,
      "contractAddress": "0x9ca7025f746beb0ab596a167496fd346a0e06de5",
      "function": "createMarket(bytes32,uint64,uint64)",
      "arguments": [
        "0xfdf40a8e46e0252504368b4a8dfae5c1f1d8448d54e4643e3dacd77cfe3eae9d",
        "1763637592",
        "1763638492"
      ],
      "transaction": {
        "from": "0xc5b2130f38eac51a1b93723509237572963322e9",
        "to": "0x9ca7025f746beb0ab596a167496fd346a0e06de5",
        "gas": "0x56e0e",
        "value": "0x0",
        "input": "0xaab38beefdf40a8e46e0252504368b4a8dfae5c1f1d8448d54e4643e3dacd77cfe3eae9d00000000000000000000000000000000000000000000000000000000691ef95800000000000000000000000000000000000000000000000000000000691efcdc",
        "nonce": "0x79",
        "chainId": "0x14a34"
      },
      "additionalContracts": [
        {
          "transactionType": "CREATE",
          "contractName": null,
          "address": "0x316579e42a36ecb297d234f612eec5a7c9b327f5",
          "initCode": "0x3d602d80600a3d3981f3363d3d373d3d3d363d739fe0fe515429bfb8a805cd8e65b928dcba080d335af43d82803e903d91602b57fd5bf3"
        }
      ],
      "isFixedGasLimit": false
    },
    {
      "hash": "0x54fbd19cf8d4ea1b1d51a6c98aedd31a114124af336918554434c5307119663c",
      "transactionType": "CALL",
      "contractName": null,
      "contractAddress": "0x9ca7025f746beb0ab596a167496fd346a0e06de5",
      "function": "createMarket(bytes32,uint64,uint64)",
      "arguments": [
        "0xaa31cf34b1f049916aa15637304688c57d9c33ee0a7c4052fd841799d05d2dd7",
        "1763637592",
        "1763638492"
      ],
      "transaction": {
        "from": "0xc5b2130f38eac51a1b93723509237572963322e9",
        "to": "0x9ca7025f746beb0ab596a167496fd346a0e06de5",
        "gas": "0x56e0e",
        "value": "0x0",
        "input": "0xaab38beeaa31cf34b1f049916aa15637304688c57d9c33ee0a7c4052fd841799d05d2dd700000000000000000000000000000000000000000000000000000000691ef95800000000000000000000000000000000000000000000000000000000691efcdc",
        "nonce": "0x7a",
        "chainId": "0x14a34"
      },
      "additionalContracts": [
        {
          "transactionType": "CREATE",
          "contractName": null,
          "address": "0x9af41739196beb5c10d96aca0d0dde71eb5d9349",
          "initCode": "0x3d602d80600a3d3981f3363d3d373d3d3d363d739fe0fe515429bfb8a805cd8e65b928dcba080d335af43d82803e903d91602b57fd5bf3"
        }
      ],
      "isFixedGasLimit": false
    },
    {
      "hash": "0xece00bbb95497ed5f19602d9a935f0c4b099348dae1012e13ec3b9fa721af9cf",
      "transactionType": "CALL",
      "contractName": null,
      "contractAddress": "0x9ca7025f746beb0ab596a167496fd346a0e06de5",
      "function": "createMarket(bytes32,uint64,uint64)",
      "arguments": [
        "0xdee22f5b4b419a4335d7c8029a2bea5a5ba3fd81f992e0aa3348b4ab20a1a601",
        "1763637592",
        "1763638492"
      ],
      "transaction": {
        "from": "0xc5b2130f38eac51a1b93723509237572963322e9",
        "to": "0x9ca7025f746beb0ab596a167496fd346a0e06de5",
        "gas": "0x56e0e",
        "value": "0x0",
        "input": "0xaab38beedee22f5b4b419a4335d7c8029a2bea5a5ba3fd81f992e0aa3348b4ab20a1a60100000000000000000000000000000000000000000000000000000000691ef95800000000000000000000000000000000000000000000000000000000691efcdc",
        "nonce": "0x7b",
        "chainId": "0x14a34"
      },
      "additionalContracts": [
        {
          "transactionType": "CREATE",
          "contractName": null,
          "address": "0xdef90ef2103c556b1b84ffb4c7a4e4f66c34dff0",
          "initCode": "0x3d602d80600a3d3981f3363d3d373d3d3d363d739fe0fe515429bfb8a805cd8e65b928dcba080d335af43d82803e903d91602b57fd5bf3"
        }
      ],
      "isFixedGasLimit": false
    },
    {
      "hash": "0xce3cd31e73c532d6d022f7716721586ca40eebd6fc53c96f7af15f3555afd2ca",
      "transactionType": "CALL",
      "contractName": null,
      "contractAddress": "0x9ca7025f746beb0ab596a167496fd346a0e06de5",
      "function": "createMarket(bytes32,uint64,uint64)",
      "arguments": [
        "0x2b8c925e2165e921849f1e55eb9d47fb90cf3c5557c2297e50f96e68deb6a1da",
        "1763637592",
        "1763638492"
      ],
      "transaction": {
        "from": "0xc5b2130f38eac51a1b93723509237572963322e9",
        "to": "0x9ca7025f746beb0ab596a167496fd346a0e06de5",
        "gas": "0x56e0e",
        "value": "0x0",
        "input": "0xaab38bee2b8c925e2165e921849f1e55eb9d47fb90cf3c5557c2297e50f96e68deb6a1da00000000000000000000000000000000000000000000000000000000691ef95800000000000000000000000000000000000000000000000000000000691efcdc",
        "nonce": "0x7c",
        "chainId": "0x14a34"
      },
      "additionalContracts": [
        {
          "transactionType": "CREATE",
          "contractName": null,
          "address": "0x4792d2032fc90ffe1f06951d66b28c6a35b47e64",
          "initCode": "0x3d602d80600a3d3981f3363d3d373d3d3d363d739fe0fe515429bfb8a805cd8e65b928dcba080d335af43d82803e903d91602b57fd5bf3"
        }
      ],
      "isFixedGasLimit": false
    },
    {
      "hash": "0xdcca88f41d4535a06ae8bbf8a16dcc74390c28bbc17c3ed519a61ad60983f419",
      "transactionType": "CALL",
      "contractName": null,
      "contractAddress": "0x9ca7025f746beb0ab596a167496fd346a0e06de5",
      "function": "createMarket(bytes32,uint64,uint64)",
      "arguments": [
        "0x31fc26323a4489568fbcd363c57703f009a03107a8be5238ac7b877b48abd4ac",
        "1763637592",
        "1763638492"
      ],
      "transaction": {
        "from": "0xc5b2130f38eac51a1b93723509237572963322e9",
        "to": "0x9ca7025f746beb0ab596a167496fd346a0e06de5",
        "gas": "0x56e0e",
        "value": "0x0",
        "input": "0xaab38bee31fc26323a4489568fbcd363c57703f009a03107a8be5238ac7b877b48abd4ac00000000000000000000000000000000000000000000000000000000691ef95800000000000000000000000000000000000000000000000000000000691efcdc",
        "nonce": "0x7d",
        "chainId": "0x14a34"
      },
      "additionalContracts": [
        {
          "transactionType": "CREATE",
          "contractName": null,
          "address": "0xe80e14c61c7c08840709767a8365afa30a92f4f1",
          "initCode": "0x3d602d80600a3d3981f3363d3d373d3d3d363d739fe0fe515429bfb8a805cd8e65b928dcba080d335af43d82803e903d91602b57fd5bf3"
        }
      ],
      "isFixedGasLimit": false
    },
    {
      "hash": "0x07f1621253ac9ee399539bb0dc9bd9e22009b901e6c4cc2d39bce246d5415194",
      "transactionType": "CALL",
      "contractName": null,
      "contractAddress": "0x9ca7025f746beb0ab596a167496fd346a0e06de5",
      "function": "createMarket(bytes32,uint64,uint64)",
      "arguments": [
        "0xd21ecb4b912fa2985bca73ad63e658275e08603cc0aab7c9b24866be085919c3",
        "1763637592",
        "1763638492"
      ],
      "transaction": {
        "from": "0xc5b2130f38eac51a1b93723509237572963322e9",
        "to": "0x9ca7025f746beb0ab596a167496fd346a0e06de5",
        "gas": "0x56e0e",
        "value": "0x0",
        "input": "0xaab38beed21ecb4b912fa2985bca73ad63e658275e08603cc0aab7c9b24866be085919c300000000000000000000000000000000000000000000000000000000691ef95800000000000000000000000000000000000000000000000000000000691efcdc",
        "nonce": "0x7e",
        "chainId": "0x14a34"
      },
      "additionalContracts": [
        {
          "transactionType": "CREATE",
          "contractName": null,
          "address": "0xd0e2fafaa0f4a2de69cd765aa5bd23313e09ed34",
          "initCode": "0x3d602d80600a3d3981f3363d3d373d3d3d363d739fe0fe515429bfb8a805cd8e65b928dcba080d335af43d82803e903d91602b57fd5bf3"
        }
      ],
      "isFixedGasLimit": false
    },
    {
      "hash": "0xb7d4fa1eefeaa4ed8ea08ba9f3d27901fb3729dd5bb7ff5dcfe208d93d745e8d",
      "transactionType": "CALL",
      "contractName": null,
      "contractAddress": "0x9ca7025f746beb0ab596a167496fd346a0e06de5",
      "function": "createMarket(bytes32,uint64,uint64)",
      "arguments": [
        "0xc9e8244559744719953f50f5848a7779e81646d56a74b32d81499409be3b6353",
        "1763637592",
        "1763638492"
      ],
      "transaction": {
        "from": "0xc5b2130f38eac51a1b93723509237572963322e9",
        "to": "0x9ca7025f746beb0ab596a167496fd346a0e06de5",
        "gas": "0x56e0e",
        "value": "0x0",
        "input": "0xaab38beec9e8244559744719953f50f5848a7779e81646d56a74b32d81499409be3b635300000000000000000000000000000000000000000000000000000000691ef95800000000000000000000000000000000000000000000000000000000691efcdc",
        "nonce": "0x7f",
        "chainId": "0x14a34"
      },
      "additionalContracts": [
        {
          "transactionType": "CREATE",
          "contractName": null,
          "address": "0x7cccbff86c53827a34fe393954d821c53e105f8e",
          "initCode": "0x3d602d80600a3d3981f3363d3d373d3d3d363d739fe0fe515429bfb8a805cd8e65b928dcba080d335af43d82803e903d91602b57fd5bf3"
        }
      ],
      "isFixedGasLimit": false
    },
    {
      "hash": "0xcc814c064ea1be6a02abb5b5432b6be8ba9c6f0f0e32cf33c9211034a91f2be6",
      "transactionType": "CALL",
      "contractName": null,
      "contractAddress": "0x9ca7025f746beb0ab596a167496fd346a0e06de5",
      "function": "createMarket(bytes32,uint64,uint64)",
      "arguments": [
        "0xdc3f1a6c1923acf79f79ae9c4b4fbf698e75fcc8aacf6bdf8b38a430901479f4",
        "1763637592",
        "1763638492"
      ],
      "transaction": {
        "from": "0xc5b2130f38eac51a1b93723509237572963322e9",
        "to": "0x9ca7025f746beb0ab596a167496fd346a0e06de5",
        "gas": "0x56e0e",
        "value": "0x0",
        "input": "0xaab38beedc3f1a6c1923acf79f79ae9c4b4fbf698e75fcc8aacf6bdf8b38a430901479f400000000000000000000000000000000000000000000000000000000691ef95800000000000000000000000000000000000000000000000000000000691efcdc",
        "nonce": "0x80",
        "chainId": "0x14a34"
      },
      "additionalContracts": [
        {
          "transactionType": "CREATE",
          "contractName": null,
          "address": "0xb28d4a12e396dfd89ae62dd0f46da4c2657db2d6",
          "initCode": "0x3d602d80600a3d3981f3363d3d373d3d3d363d739fe0fe515429bfb8a805cd8e65b928dcba080d335af43d82803e903d91602b57fd5bf3"
        }
      ],
      "isFixedGasLimit": false
    },
    {
      "hash": "0x293271b1185df6978bd616ddcf9820fbe44391a07f1fe87da3debd8b235c0f56",
      "transactionType": "CALL",
      "contractName": null,
      "contractAddress": "0x9ca7025f746beb0ab596a167496fd346a0e06de5",
      "function": "createMarket(bytes32,uint64,uint64)",
      "arguments": [
        "0x65fabfc689e9038fc4bfe8d8ed2affc360523485f49257c888b33bab84a24d70",
        "1763637592",
        "1763638492"
      ],
      "transaction": {
        "from": "0xc5b2130f38eac51a1b93723509237572963322e9",
        "to": "0x9ca7025f746beb0ab596a167496fd346a0e06de5",
        "gas": "0x56e0e",
        "value": "0x0",
        "input": "0xaab38bee65fabfc689e9038fc4bfe8d8ed2affc360523485f49257c888b33bab84a24d7000000000000000000000000000000000000000000000000000000000691ef95800000000000000000000000000000000000000000000000000000000691efcdc",
        "nonce": "0x81",
        "chainId": "0x14a34"
      },
      "additionalContracts": [
        {
          "transactionType": "CREATE",
          "contractName": null,
          "address": "0xbe41d762c1b53492ff4e62b48b7c1bf67a7a576f",
          "initCode": "0x3d602d80600a3d3981f3363d3d373d3d3d363d739fe0fe515429bfb8a805cd8e65b928dcba080d335af43d82803e903d91602b57fd5bf3"
        }
      ],
      "isFixedGasLimit": false
    },
    {
      "hash": "0x887c7a7dada1ed41b432cee91e2b5260ddccfb6fe8febefd5b30d244f91507c5",
      "transactionType": "CALL",
      "contractName": null,
      "contractAddress": "0x9ca7025f746beb0ab596a167496fd346a0e06de5",
      "function": "createMarket(bytes32,uint64,uint64)",
      "arguments": [
        "0x7c645b9395bcc85c3bcbbeecc4425e614f789fdada47e991c3df05c71cb79612",
        "1763637592",
        "1763638492"
      ],
      "transaction": {
        "from": "0xc5b2130f38eac51a1b93723509237572963322e9",
        "to": "0x9ca7025f746beb0ab596a167496fd346a0e06de5",
        "gas": "0x56e0e",
        "value": "0x0",
        "input": "0xaab38bee7c645b9395bcc85c3bcbbeecc4425e614f789fdada47e991c3df05c71cb7961200000000000000000000000000000000000000000000000000000000691ef95800000000000000000000000000000000000000000000000000000000691efcdc",
        "nonce": "0x82",
        "chainId": "0x14a34"
      },
      "additionalContracts": [
        {
          "transactionType": "CREATE",
          "contractName": null,
          "address": "0x653e4019498c173c96fc232aad3d49244b68bc73",
          "initCode": "0x3d602d80600a3d3981f3363d3d373d3d3d363d739fe0fe515429bfb8a805cd8e65b928dcba080d335af43d82803e903d91602b57fd5bf3"
        }
      ],
      "isFixedGasLimit": false
    }
  ],
  "receipts": [
    {
      "status": "0x1",
      "cumulativeGasUsed": "0xbabe3c",
      "logs": [
        {
          "address": "0x9ca7025f746beb0ab596a167496fd346a0e06de5",
          "topics": [
            "0x375b93db8e087a80beb91d1a191dd247767bb9df982963a9868fc739edf1f8c6",
            "0x000000000000000000000000316579e42a36ecb297d234f612eec5a7c9b327f5",
            "0x6d81b07f4451426080c8f9dcc71ae9cc3a21a52284652e323b32345aa2daaccc"
          ],
          "data": "0x00000000000000000000000000000000000000000000000000000000691ef95800000000000000000000000000000000000000000000000000000000691efcdc",
          "blockHash": "0x68169255af2e36bf9ae6aea42aeea80c1e6e4acc22aabdc5e0e12ff224b089e5",
          "blockNumber": "0x2052483",
          "blockTimestamp": "0x691da7e6",
          "transactionHash": "0xbd5c6d52c5251ddad66adfe2e2e5e193413fa0d4221a40cb196ec5659f489768",
          "transactionIndex": "0x9",
          "logIndex": "0x57",
          "removed": false
        }
      ],
      "logsBloom": "0x00000000000000000000000000000000000000000000000000000000000000001000000000000000000000000000000000000004000000000000000014020000000000000000000000800000000000000000000000000000000000c00000000000000000000000000000000000000000000000000000000000000000000000000000000000000000000000000000000000000000000000000000000000000000000000000000080000000000000000000000000000000000000000000000000000000000000000000000000000000000000000040000000000000000000000000000000000000000000000000000000000020000004000000000000000000000",
      "type": "0x2",
      "transactionHash": "0xbd5c6d52c5251ddad66adfe2e2e5e193413fa0d4221a40cb196ec5659f489768",
      "transactionIndex": "0x9",
      "blockHash": "0x68169255af2e36bf9ae6aea42aeea80c1e6e4acc22aabdc5e0e12ff224b089e5",
      "blockNumber": "0x2052483",
      "gasUsed": "0x3ee60",
      "effectiveGasPrice": "0xf4325",
      "from": "0xc5b2130f38eac51a1b93723509237572963322e9",
      "to": "0x9ca7025f746beb0ab596a167496fd346a0e06de5",
      "contractAddress": null,
      "l1BaseFeeScalar": "0x44d",
      "l1BlobBaseFee": "0x1",
      "l1BlobBaseFeeScalar": "0xa118b",
      "l1Fee": "0x68",
      "l1GasPrice": "0x16",
      "l1GasUsed": "0x640"
    },
    {
      "status": "0x1",
      "cumulativeGasUsed": "0xbeac9c",
      "logs": [
        {
          "address": "0x9ca7025f746beb0ab596a167496fd346a0e06de5",
          "topics": [
            "0x375b93db8e087a80beb91d1a191dd247767bb9df982963a9868fc739edf1f8c6",
            "0x0000000000000000000000009af41739196beb5c10d96aca0d0dde71eb5d9349",
            "0x0bd4b842210ef26a52d8664286d2fb643b68d079076e21f3049fff8ccbc7d904"
          ],
          "data": "0x00000000000000000000000000000000000000000000000000000000691ef95800000000000000000000000000000000000000000000000000000000691efcdc",
          "blockHash": "0x68169255af2e36bf9ae6aea42aeea80c1e6e4acc22aabdc5e0e12ff224b089e5",
          "blockNumber": "0x2052483",
          "blockTimestamp": "0x691da7e6",
          "transactionHash": "0x54fbd19cf8d4ea1b1d51a6c98aedd31a114124af336918554434c5307119663c",
          "transactionIndex": "0xa",
          "logIndex": "0x58",
          "removed": false
        }
      ],
      "logsBloom": "0x00000000004000000000000000000000000000000000000040000000000000000000000000000000000000000000000000000000000000000000000014000000000000000000000000800000000000000000000000000008000000800000001000000000000000000000000000000000000000000000000000000000000020000000000000000000000000000000000000000000000000000000000000000000000000000000080000000000000000000000002000000000000000000000000000000000000000000000000000000000000000040000000000000000000000000000000000000000000000000000000000000000000000000000000000000000",
      "type": "0x2",
      "transactionHash": "0x54fbd19cf8d4ea1b1d51a6c98aedd31a114124af336918554434c5307119663c",
      "transactionIndex": "0xa",
      "blockHash": "0x68169255af2e36bf9ae6aea42aeea80c1e6e4acc22aabdc5e0e12ff224b089e5",
      "blockNumber": "0x2052483",
      "gasUsed": "0x3ee60",
      "effectiveGasPrice": "0xf4325",
      "from": "0xc5b2130f38eac51a1b93723509237572963322e9",
      "to": "0x9ca7025f746beb0ab596a167496fd346a0e06de5",
      "contractAddress": null,
      "l1BaseFeeScalar": "0x44d",
      "l1BlobBaseFee": "0x1",
      "l1BlobBaseFeeScalar": "0xa118b",
      "l1Fee": "0x68",
      "l1GasPrice": "0x16",
      "l1GasUsed": "0x640"
    },
    {
      "status": "0x1",
      "cumulativeGasUsed": "0xc29afc",
      "logs": [
        {
          "address": "0x9ca7025f746beb0ab596a167496fd346a0e06de5",
          "topics": [
            "0x375b93db8e087a80beb91d1a191dd247767bb9df982963a9868fc739edf1f8c6",
            "0x000000000000000000000000def90ef2103c556b1b84ffb4c7a4e4f66c34dff0",
            "0x57197c94c17db29b8188d71896659375df67203faa1e8eb257cfecf41992a43a"
          ],
          "data": "0x00000000000000000000000000000000000000000000000000000000691ef95800000000000000000000000000000000000000000000000000000000691efcdc",
          "blockHash": "0x68169255af2e36bf9ae6aea42aeea80c1e6e4acc22aabdc5e0e12ff224b089e5",
          "blockNumber": "0x2052483",
          "blockTimestamp": "0x691da7e6",
          "transactionHash": "0xece00bbb95497ed5f19602d9a935f0c4b099348dae1012e13ec3b9fa721af9cf",
          "transactionIndex": "0xb",
          "logIndex": "0x59",
          "removed": false
        }
      ],
      "logsBloom": "0x00000000000000000000000000000000000000000000000000000000000000000000000000000000000004000002000000000000000000000000000014000000000000000000000000800000000080000000000000000000000000800000000000000000000000000000000000000000800000000000000000000000000000000000000000000000000000000000000000000000000000000000000000000000000000000000080000000000000000000000000000000000000000000000000000000000000000000000001000000000000000040000000000000000000000000000000000000000000000000000000000000000000000000000000000000000",
      "type": "0x2",
      "transactionHash": "0xece00bbb95497ed5f19602d9a935f0c4b099348dae1012e13ec3b9fa721af9cf",
      "transactionIndex": "0xb",
      "blockHash": "0x68169255af2e36bf9ae6aea42aeea80c1e6e4acc22aabdc5e0e12ff224b089e5",
      "blockNumber": "0x2052483",
      "gasUsed": "0x3ee60",
      "effectiveGasPrice": "0xf4325",
      "from": "0xc5b2130f38eac51a1b93723509237572963322e9",
      "to": "0x9ca7025f746beb0ab596a167496fd346a0e06de5",
      "contractAddress": null,
      "l1BaseFeeScalar": "0x44d",
      "l1BlobBaseFee": "0x1",
      "l1BlobBaseFeeScalar": "0xa118b",
      "l1Fee": "0x68",
      "l1GasPrice": "0x16",
      "l1GasUsed": "0x640"
    },
    {
      "status": "0x1",
      "cumulativeGasUsed": "0xc6895c",
      "logs": [
        {
          "address": "0x9ca7025f746beb0ab596a167496fd346a0e06de5",
          "topics": [
            "0x375b93db8e087a80beb91d1a191dd247767bb9df982963a9868fc739edf1f8c6",
            "0x0000000000000000000000004792d2032fc90ffe1f06951d66b28c6a35b47e64",
            "0xb19c308fc9c2057ab2d85e7f568ba114dc2efad27606951d9648583768390569"
          ],
          "data": "0x00000000000000000000000000000000000000000000000000000000691ef95800000000000000000000000000000000000000000000000000000000691efcdc",
          "blockHash": "0x68169255af2e36bf9ae6aea42aeea80c1e6e4acc22aabdc5e0e12ff224b089e5",
          "blockNumber": "0x2052483",
          "blockTimestamp": "0x691da7e6",
          "transactionHash": "0xce3cd31e73c532d6d022f7716721586ca40eebd6fc53c96f7af15f3555afd2ca",
          "transactionIndex": "0xc",
          "logIndex": "0x5a",
          "removed": false
        }
      ],
      "logsBloom": "0x00000000000000000000000000000000000000000000000000000000000000000000000000000080000000000000000000000000000000000000000014000000000000000000000000800000000000000000000000000000000000800000000000000000000000000000000000000008000000000000000000000000000000000000000000000000000000000000000000000000000000000800000000000000000000000000080000000000000000000000000000000000000000000000000000000000000000000200000000000000000000040000000000000000000000000000000000000000000000000000000000800000000000000040000000000000",
      "type": "0x2",
      "transactionHash": "0xce3cd31e73c532d6d022f7716721586ca40eebd6fc53c96f7af15f3555afd2ca",
      "transactionIndex": "0xc",
      "blockHash": "0x68169255af2e36bf9ae6aea42aeea80c1e6e4acc22aabdc5e0e12ff224b089e5",
      "blockNumber": "0x2052483",
      "gasUsed": "0x3ee60",
      "effectiveGasPrice": "0xf4325",
      "from": "0xc5b2130f38eac51a1b93723509237572963322e9",
      "to": "0x9ca7025f746beb0ab596a167496fd346a0e06de5",
      "contractAddress": null,
      "l1BaseFeeScalar": "0x44d",
      "l1BlobBaseFee": "0x1",
      "l1BlobBaseFeeScalar": "0xa118b",
      "l1Fee": "0x68",
      "l1GasPrice": "0x16",
      "l1GasUsed": "0x640"
    },
    {
      "status": "0x1",
      "cumulativeGasUsed": "0xca77bc",
      "logs": [
        {
          "address": "0x9ca7025f746beb0ab596a167496fd346a0e06de5",
          "topics": [
            "0x375b93db8e087a80beb91d1a191dd247767bb9df982963a9868fc739edf1f8c6",
            "0x000000000000000000000000e80e14c61c7c08840709767a8365afa30a92f4f1",
            "0xa2246028955c70af58354bc1ea97eab213495bee081eaf66a360727cf96be32c"
          ],
          "data": "0x00000000000000000000000000000000000000000000000000000000691ef95800000000000000000000000000000000000000000000000000000000691efcdc",
          "blockHash": "0x68169255af2e36bf9ae6aea42aeea80c1e6e4acc22aabdc5e0e12ff224b089e5",
          "blockNumber": "0x2052483",
          "blockTimestamp": "0x691da7e6",
          "transactionHash": "0xdcca88f41d4535a06ae8bbf8a16dcc74390c28bbc17c3ed519a61ad60983f419",
          "transactionIndex": "0xd",
          "logIndex": "0x5b",
          "removed": false
        }
      ],
      "logsBloom": "0x00000000000000000000000000000000000000000000000000000000000000000000000000000000000000000000000000000000000000000000000014000000000000000000000000800000000000000000000000000000000000800000000000100000000000000000000000000000000000000000000000000000000004000000000000000000000000000000000000000000000000000000000000000000000000000000080000000001000000400000000000000000000000000000000000000000000004000000000000000000000000040000000002000000000000000000000000000000000000000000000000000000000000000000000000000000",
      "type": "0x2",
      "transactionHash": "0xdcca88f41d4535a06ae8bbf8a16dcc74390c28bbc17c3ed519a61ad60983f419",
      "transactionIndex": "0xd",
      "blockHash": "0x68169255af2e36bf9ae6aea42aeea80c1e6e4acc22aabdc5e0e12ff224b089e5",
      "blockNumber": "0x2052483",
      "gasUsed": "0x3ee60",
      "effectiveGasPrice": "0xf4325",
      "from": "0xc5b2130f38eac51a1b93723509237572963322e9",
      "to": "0x9ca7025f746beb0ab596a167496fd346a0e06de5",
      "contractAddress": null,
      "l1BaseFeeScalar": "0x44d",
      "l1BlobBaseFee": "0x1",
      "l1BlobBaseFeeScalar": "0xa118b",
      "l1Fee": "0x68",
      "l1GasPrice": "0x16",
      "l1GasUsed": "0x640"
    },
    {
      "status": "0x1",
      "cumulativeGasUsed": "0xce661c",
      "logs": [
        {
          "address": "0x9ca7025f746beb0ab596a167496fd346a0e06de5",
          "topics": [
            "0x375b93db8e087a80beb91d1a191dd247767bb9df982963a9868fc739edf1f8c6",
            "0x000000000000000000000000d0e2fafaa0f4a2de69cd765aa5bd23313e09ed34",
            "0xdf098476d3c5f25e5dd7b4d396346c3a494b8174e35d99a4d7e08fb347b816ac"
          ],
          "data": "0x00000000000000000000000000000000000000000000000000000000691ef95800000000000000000000000000000000000000000000000000000000691efcdc",
          "blockHash": "0x68169255af2e36bf9ae6aea42aeea80c1e6e4acc22aabdc5e0e12ff224b089e5",
          "blockNumber": "0x2052483",
          "blockTimestamp": "0x691da7e6",
          "transactionHash": "0x07f1621253ac9ee399539bb0dc9bd9e22009b901e6c4cc2d39bce246d5415194",
          "transactionIndex": "0xe",
          "logIndex": "0x5c",
          "removed": false
        }
      ],
      "logsBloom": "0x00000000000080800000000000000000000020000000000000000000000000000000000000000000000000000000000000000000000000000000000014000000000000000000000008800000000000000000000000000000000000800000000000000000000000000000000000000000000000000000000000000000000000000000000000000000000000000000000000000000000000000000000000400000000040000000080000000000000000000000000000000000000000000000000000000000000000000000000000000000000000040000000000000000000000000000000000000000000000000000000000000000000000000000000000000000",
      "type": "0x2",
      "transactionHash": "0x07f1621253ac9ee399539bb0dc9bd9e22009b901e6c4cc2d39bce246d5415194",
      "transactionIndex": "0xe",
      "blockHash": "0x68169255af2e36bf9ae6aea42aeea80c1e6e4acc22aabdc5e0e12ff224b089e5",
      "blockNumber": "0x2052483",
      "gasUsed": "0x3ee60",
      "effectiveGasPrice": "0xf4325",
      "from": "0xc5b2130f38eac51a1b93723509237572963322e9",
      "to": "0x9ca7025f746beb0ab596a167496fd346a0e06de5",
      "contractAddress": null,
      "l1BaseFeeScalar": "0x44d",
      "l1BlobBaseFee": "0x1",
      "l1BlobBaseFeeScalar": "0xa118b",
      "l1Fee": "0x68",
      "l1GasPrice": "0x16",
      "l1GasUsed": "0x640"
    },
    {
      "status": "0x1",
      "cumulativeGasUsed": "0xd2547c",
      "logs": [
        {
          "address": "0x9ca7025f746beb0ab596a167496fd346a0e06de5",
          "topics": [
            "0x375b93db8e087a80beb91d1a191dd247767bb9df982963a9868fc739edf1f8c6",
            "0x0000000000000000000000007cccbff86c53827a34fe393954d821c53e105f8e",
            "0x0c85bd174e5b7f0e121547e35190e12338e8e7e995a5d4447ae7c3ff678e58a7"
          ],
          "data": "0x00000000000000000000000000000000000000000000000000000000691ef95800000000000000000000000000000000000000000000000000000000691efcdc",
          "blockHash": "0x68169255af2e36bf9ae6aea42aeea80c1e6e4acc22aabdc5e0e12ff224b089e5",
          "blockNumber": "0x2052483",
          "blockTimestamp": "0x691da7e6",
          "transactionHash": "0xb7d4fa1eefeaa4ed8ea08ba9f3d27901fb3729dd5bb7ff5dcfe208d93d745e8d",
          "transactionIndex": "0xf",
          "logIndex": "0x5d",
          "removed": false
        }
      ],
      "logsBloom": "0x00000000000000000000000000000000000000000000000000000000000000000000000000200000000000000000000000000000000000000000000014000000000000000000000000800000000000000000000000000000000000800000000000000000000000000000000000000000000000000000000000000000000000000000000000000000000000000000000000000000000000000000000000000020000000000000080000000000800000000000000000000000000000000000000000000000000000000000000400000000000400040000000000000000000000000000000000000000000000000000000000000000000000000000000002000000",
      "type": "0x2",
      "transactionHash": "0xb7d4fa1eefeaa4ed8ea08ba9f3d27901fb3729dd5bb7ff5dcfe208d93d745e8d",
      "transactionIndex": "0xf",
      "blockHash": "0x68169255af2e36bf9ae6aea42aeea80c1e6e4acc22aabdc5e0e12ff224b089e5",
      "blockNumber": "0x2052483",
      "gasUsed": "0x3ee60",
      "effectiveGasPrice": "0xf4325",
      "from": "0xc5b2130f38eac51a1b93723509237572963322e9",
      "to": "0x9ca7025f746beb0ab596a167496fd346a0e06de5",
      "contractAddress": null,
      "l1BaseFeeScalar": "0x44d",
      "l1BlobBaseFee": "0x1",
      "l1BlobBaseFeeScalar": "0xa118b",
      "l1Fee": "0x68",
      "l1GasPrice": "0x16",
      "l1GasUsed": "0x640"
    },
    {
      "status": "0x1",
      "cumulativeGasUsed": "0xe3e974",
      "logs": [
        {
          "address": "0x9ca7025f746beb0ab596a167496fd346a0e06de5",
          "topics": [
            "0x375b93db8e087a80beb91d1a191dd247767bb9df982963a9868fc739edf1f8c6",
            "0x000000000000000000000000b28d4a12e396dfd89ae62dd0f46da4c2657db2d6",
            "0x296ca80c17f9d5051a407bc789d443915efdf247fc550129ea19dbd147530519"
          ],
          "data": "0x00000000000000000000000000000000000000000000000000000000691ef95800000000000000000000000000000000000000000000000000000000691efcdc",
          "blockHash": "0xc15124c76a1c693df1270d888ff321a6798cf94eb0d1ee48cddc7be64cab95eb",
          "blockNumber": "0x2052483",
          "blockTimestamp": "0x691da7e6",
          "transactionHash": "0xcc814c064ea1be6a02abb5b5432b6be8ba9c6f0f0e32cf33c9211034a91f2be6",
          "transactionIndex": "0x12",
          "logIndex": "0x86",
          "removed": false
        }
      ],
      "logsBloom": "0x00000000000000000000000000000000000000000000000000000000000000000000000800000000000000000000000000040000000000002000000014000000000000000000000000800000100000000000000000000000000000800000000000000000000000000000000000000000000000004000000000000000000000000000000000000000000000002000000000000000000000000000000000000000000000000000080000000000000000000000000000000000000000000000000000000000000000000000000000000000000000040000000000000000000000000000000000000000000000000000000000000000000000000000000000000000",
      "type": "0x2",
      "transactionHash": "0xcc814c064ea1be6a02abb5b5432b6be8ba9c6f0f0e32cf33c9211034a91f2be6",
      "transactionIndex": "0x12",
      "blockHash": "0xc15124c76a1c693df1270d888ff321a6798cf94eb0d1ee48cddc7be64cab95eb",
      "blockNumber": "0x2052483",
      "gasUsed": "0x3ee60",
      "effectiveGasPrice": "0xf4325",
      "from": "0xc5b2130f38eac51a1b93723509237572963322e9",
      "to": "0x9ca7025f746beb0ab596a167496fd346a0e06de5",
      "contractAddress": null,
      "l1BaseFeeScalar": "0x44d",
      "l1BlobBaseFee": "0x1",
      "l1BlobBaseFeeScalar": "0xa118b",
      "l1Fee": "0x69",
      "l1GasPrice": "0x16",
      "l1GasUsed": "0x647"
    },
    {
      "status": "0x1",
      "cumulativeGasUsed": "0xe7d7d4",
      "logs": [
        {
          "address": "0x9ca7025f746beb0ab596a167496fd346a0e06de5",
          "topics": [
            "0x375b93db8e087a80beb91d1a191dd247767bb9df982963a9868fc739edf1f8c6",
            "0x000000000000000000000000be41d762c1b53492ff4e62b48b7c1bf67a7a576f",
            "0x11402ab2652f8c6219375e5878b917ffd68fd27113ea67bbde391c62e82bc7a7"
          ],
          "data": "0x00000000000000000000000000000000000000000000000000000000691ef95800000000000000000000000000000000000000000000000000000000691efcdc",
          "blockHash": "0x1f8709ec23d50a158b83491f6705bfc7b1e3b16f390f7055cb15705e13c502f7",
          "blockNumber": "0x2052483",
          "blockTimestamp": "0x691da7e6",
          "transactionHash": "0x293271b1185df6978bd616ddcf9820fbe44391a07f1fe87da3debd8b235c0f56",
          "transactionIndex": "0x13",
          "logIndex": "0x87",
          "removed": false
        }
      ],
      "logsBloom": "0x00000000000000000000000000000000000800000000000000000000000000000000000000000000000000000000000000000000000000000000000014000000000000000000000000800000000000000000000000000000000000800000000000000000000000001000000000000000000001000000000000000000000000000000000000000000000000000000000000000000000000000000021000000000000000000000080000000000000000000000000000000000000000000000000000000000000000000000000000000000000000040000000000000000000000000000000000000000000000000000000000000000000000000000000000000000",
      "type": "0x2",
      "transactionHash": "0x293271b1185df6978bd616ddcf9820fbe44391a07f1fe87da3debd8b235c0f56",
      "transactionIndex": "0x13",
      "blockHash": "0x1f8709ec23d50a158b83491f6705bfc7b1e3b16f390f7055cb15705e13c502f7",
      "blockNumber": "0x2052483",
      "gasUsed": "0x3ee60",
      "effectiveGasPrice": "0xf4325",
      "from": "0xc5b2130f38eac51a1b93723509237572963322e9",
      "to": "0x9ca7025f746beb0ab596a167496fd346a0e06de5",
      "contractAddress": null,
      "l1BaseFeeScalar": "0x44d",
      "l1BlobBaseFee": "0x1",
      "l1BlobBaseFeeScalar": "0xa118b",
      "l1Fee": "0x68",
      "l1GasPrice": "0x16",
      "l1GasUsed": "0x647"
    },
    {
      "status": "0x1",
      "cumulativeGasUsed": "0xebc634",
      "logs": [
        {
          "address": "0x9ca7025f746beb0ab596a167496fd346a0e06de5",
          "topics": [
            "0x375b93db8e087a80beb91d1a191dd247767bb9df982963a9868fc739edf1f8c6",
            "0x000000000000000000000000653e4019498c173c96fc232aad3d49244b68bc73",
            "0xa088e71afb1be3aebf21d170dd89adf64308f525617dd53d56fd07075e45b63e"
          ],
          "data": "0x00000000000000000000000000000000000000000000000000000000691ef95800000000000000000000000000000000000000000000000000000000691efcdc",
          "blockHash": "0x1f8709ec23d50a158b83491f6705bfc7b1e3b16f390f7055cb15705e13c502f7",
          "blockNumber": "0x2052483",
          "blockTimestamp": "0x691da7e6",
          "transactionHash": "0x887c7a7dada1ed41b432cee91e2b5260ddccfb6fe8febefd5b30d244f91507c5",
          "transactionIndex": "0x14",
          "logIndex": "0x88",
          "removed": false
        }
      ],
      "logsBloom": "0x00000000000000000000000000000000000000000000000000000000100000000000000000000000000000000000000008000000000000000000000014000000000000000000000000800001000000000000000000000000000000800000000000000000000000000000000000000000000000000000000000000000000000000000000000000000000000000000000000000000000000000000000000000000000000000000080000000020000000000000000000000000000000000000000000000000000000000000000000000000000000040000000000000000002200000000000000000000000000000000000000000000000000000000000000000000",
      "type": "0x2",
      "transactionHash": "0x887c7a7dada1ed41b432cee91e2b5260ddccfb6fe8febefd5b30d244f91507c5",
      "transactionIndex": "0x14",
      "blockHash": "0x1f8709ec23d50a158b83491f6705bfc7b1e3b16f390f7055cb15705e13c502f7",
      "blockNumber": "0x2052483",
      "gasUsed": "0x3ee60",
      "effectiveGasPrice": "0xf4325",
      "from": "0xc5b2130f38eac51a1b93723509237572963322e9",
      "to": "0x9ca7025f746beb0ab596a167496fd346a0e06de5",
      "contractAddress": null,
      "l1BaseFeeScalar": "0x44d",
      "l1BlobBaseFee": "0x1",
      "l1BlobBaseFeeScalar": "0xa118b",
      "l1Fee": "0x68",
      "l1GasPrice": "0x16",
      "l1GasUsed": "0x647"
    }
  ],
  "libraries": [],
  "pending": [],
  "returns": {},
  "timestamp": 1763551207160,
  "chain": 84532,
  "commit": "dcb7368"
}